:10000000D4C100000C94342A0C945F2A0C948A2AE0
:100010000C94B52A0C94E02A0C940B2B0C94362BE0
:100020000C94612B0C94690A0C943D0B0C947A0B84
:10003000EDC100000C949D34E9C10000E7C100004F
:10004000E5C10000E3C10000E1C10000DFC1000024
:10005000DDC10000DBC10000D9C100000C948C2B75
:10006000D5C100000C94922F0C94C82FCFC1000072
:10007000CDC10000CBC10000C9C10000C7C1000054
:10008000C5C10000C3C10000C1C10000BFC1000064
:100090000C941E300C945430B9C10000FBC3000016
:1000A000B5C10000B3C10000B1C10000AFC1000084
:1000B000ADC10000ABC10000A9C10000A7C1000094
:1000C000A5C10000A3C100000C942D350C94AA30EA
:1000D0000C94E0309BC100000C9436310C946C31D0
:1000E00095C100000E2AD829E029EC29F9291A2AFD
:1000F000272AEE2CF32CF82C022D0C2D852D162DF5
:100100001E2D262D302D3A2D442D532D5D2D852D60
:10011000672D712D7B2DA92DAC2D9B2D9F2DA52DF0
:10012000E32DB02DB42DBA2DBE2DC22DC82DCC2D52
:10013000D02DE32DD62DDA2DDE2D403DFE3E683F3D
:100140006B3F423E753EFF3C203DE33C453F343F24
:10015000413F6B3F6B3F6B3FCE3C05A84CCDB2D4CB
:100160004EB93836A9020C50B9918688083CA6AA27
:10017000AA2ABE000000803F00000A0B02090C0DF5
:100180000E0807030401000000000000000000004A
:10019000000000000000000000000000000000005F
:1001A000000000001211100000000000000000001C
:1001B000000000000000000000000000000001023C
:1001C0001020200808102040102040800201020169
:1001D0000804020101020408102040808040201021
:1001E000080402018004020180402010080402017A
:1001F00008040201010204081020408001020408E2
:1002000010204080050505050705080808080202BA
:1002100002020A0A080804040404010101010101A0
:1002200001010303030303030303040707070C0C83
:100230000C0C0C0C0C0C020202020606060606064A
:1002400006060B0B0B0B0B0B0B0B00002000230007
:10025000260029002C002F003200000100000301BD
:100260000601090100002200250028002B002E00B5
:100270003100340002010000050108010B010000FB
:100280002100240027002A002D0030003300010146
:100290000000040107010A0102001D3A2774694E9B
:1002A00053E8F5D2CF9C81A6BBCDD0F7EAB9A483A1
:1002B0009E25381F02514C6B76879ABDA0F3EEC97C
:1002C000D46F7255481B06213C4A57706D3E23047B
:1002D00019A2BF9885D6CBECF1130E2934677A5D4D
:1002E00040FBE6C1DC8F92B5A8DEC3E4F9AAB79063
:1002F0008D362B0C11425F78659489AEB3E0FDDA40
:10030000C77C61465B0815322F5944637E2D301738
:100310000AB1AC8B96C5D8FFE2263B1C01524F6850
:1003200075CED3F4E9BAA7809DEBF6D1CC9F82A518
:10033000B8031E3924776A4D50A1BC9B86D5C8EFFF
:10034000F24954736E3D20071A6C71564B18052202
:100350003F8499BEA3F0EDCAD735280F12415C7BCC
:1003600066DDC0E7FAA9B4938EF8E5C2DF8C91B6DA
:10037000AB100D2A3764795E43B2AF8895C6DBFCBB
:10038000E15A47607D2E3314097F6245580B1631C0
:100390002C978AADB0E3FED9C400530359085F0916
:1003A000F12F7D3009319531013211241FBECFEF7D
:1003B000D1E2DEBFCDBF00E00CBF15E0A0E0B2E0AF
:1003C000ECEEFCE800E00BBF02C007900D92A434F5
:1003D000B107D9F72CE0A4E4B5E001C01D92AD3619
:1003E000B207E1F711E0C5EDD1E000E006C02197CA
:1003F0000109802FFE010E94F844CD3CD10780E026
:100400000807A9F70E94F3400C947446F9CDCF92E7
:10041000DF92EF92FF926B017C0186E3C816D10454
:10042000E104F10428F486E3C80ED11CE11CF11CA0
:1004300060E08C2D0E94E42DC601FF90EF90DF90CC
:10044000CF9008950895CF93DF93EB010E94A22CE3
:1004500099838883DF91CF910895089580917405E1
:1004600090E020917505821B910908959091750582
:1004700080917405981750F4E92FF0E0EA58FA4F8C
:10048000208130E09F5F9093750502C02FEF3FEF12
:10049000C9010895E091750580917405E81730F45D
:1004A000F0E0EA58FA4F808190E008958FEF9FEFD7
:1004B00008950895CF92DF92EF92FF920F931F93CA
:1004C000CF93DF937C01262F972F8A0180915005CF
:1004D000882391F0C62FD72F6E01C40ED51ECC15E0
:1004E000DD0569F06991D701ED91FC910190F081F2
:1004F000E02DC7011995F3CF642F822F93D1C80146
:10050000DF91CF911F910F91FF90EF90DF90CF90EF
:100510000895CF93DF931F92CDB7DEB76983209103
:1005200050052223D1F020915105203240F021E0E6
:1005300030E0FC013383228380E090E014C080919E
:100540005205E82FF0E0ED5AFA4F998190838F5FC2
:10055000809352058093510504C061E0CE0101965D
:1005600061D181E090E00F90DF91CF910895FC017F
:100570001382128288EE93E0A0E0B0E0848395833A
:10058000A683B78386EA93E09183808308951092CF
:10059000750510927405109252051092510586C08F
:1005A00081E080935005609373051092520510927C
:1005B00051050895F5CF0F93062F21E04091510585
:1005C00063E575E080917305D7D0109252051092C3
:1005D0005105109250050F9108954F925F926F92BE
:1005E0007F92AF92BF92CF92EF92FF920F931F93A1
:1005F000CF93DF935C01F62ED42F28013901EE2032
:1006000011F1CEDFCE2DC43008F0C3E0C150C0F0F0
:10061000D501ED91FC91B8E0CB9FC0011124A3015D
:10062000920104C056954795379527958A95D2F73C
:10063000CA01B9010190F081E02DC5011995E6CFFD
:1006400060E0C501B8DF4D2FD13208F040E22C2D1B
:1006500066E775E08F2D48D010927505809374057C
:10066000DF91CF911F910F91FF90EF90CF90BF90AE
:10067000AF907F906F905F904F900895CF92EF92E0
:100680000F931F93C22EE12C00E010E09801A5DF2C
:100690001F910F91EF90CF90089521E0EFCF21E0CF
:1006A000EDCF61E088CF84E495E061CF109203063E
:1006B00081E0809301061092000661E084E10E94CF
:1006C000202E61E085E10E94202EE9EBF0E08081A0
:1006D0008E7F808380818D7F808388E48093B800C3
:1006E00085E48093BC000895413208F043C09091A6
:1006F00003069111FCCF91E090930306209301062D
:100700002FEF209396051092DB05240F2093DA0536
:100710009093020690910206880F892B809302061F
:1007200080910006813061F41092000680910206EB
:100730008093BB008091BC0083FDF8CF85EC01C0A5
:1007400085EE8093BC00809103068130E1F38091B7
:10075000DB05841710F44091DB052CED35E0FB013F
:10076000D9018A2F821B841718F48D918193F9CFB8
:10077000842F089580E008950F93413208F04AC015
:10078000909103069111FCCF32E030930306009361
:1007900001063FEF309396051092DB054093DA0592
:1007A000FB016CED75E0DB013A2F361B341718F4B2
:1007B00031913D93F9CF1092020630910206880FD5
:1007C000832B8093020680910006813061F41092A1
:1007D0000006809102068093BB008091BC0083FDDF
:1007E000F8CF85EC01C085EE8093BC00222321F078
:1007F000809103068230D1F3809196058F3F79F086
:1008000080919605803241F080919605803331F0D9
:1008100094E005C091E003C092E001C093E0892F0D
:100820000F9108954091B805262F30E0240F311D17
:1008300021323105DCF4209103062430C9F4FC0197
:1008400080E090E0861758F43091B8052191DC01E2
:10085000A654BA4FA30FB11D2C930196F3CF8091EC
:10086000B805680F6093B80580E0089581E00895A9
:1008700082E0089585ED8093BC008091BC0084FDEA
:10088000FCCF10920306089585EC8093BC00109273
:10089000030608951F920F920FB60F9211240BB604
:1008A0000F922F933F934F935F936F937F938F9309
:1008B0009F93AF93BF93EF93FF938091B900887F8D
:1008C000803609F49DC070F5883209F45CC090F45C
:1008D000803109F455C038F4882309F4F3C0883016
:1008E00009F44EC0F2C0883109F44DC0803209F4D9
:1008F0005EC0EBC0803409F469C050F4803309F461
:1009000056C0883309F0E1C080939605BDDFDDC095
:10091000803509F44FC0883509F45DC0883409F08A
:10092000D4C0D2C0883909F4C3C0A8F4883709F408
:1009300067C038F4883609F463C0803709F460C0B2
:10094000C4C0883809F4B4C0803909F45FC0803865
:1009500009F0BBC05BC0803B09F482C038F4803A28
:1009600009F466C0883A09F47BC0AFC0803C09F442
:10097000A3C0883C09F4A0C0883B09F486C0A5C088
:100980008091020610C09091DB058091DA059817DE
:1009900070F5E091DB0581E08E0F8093DB05F0E0E0
:1009A000E452FA4F80818093BB0085EC82C0809333
:1009B00096058AC0E091DB0581E08E0F8093DB0510
:1009C0008091BB00F0E0E452FA4F80839091DB0508
:1009D0008091DA056AC0E091DB0581E08E0F80939B
:1009E000DB058091BB00F0E0E452FA4F80838091F8
:1009F0000106811169C081E08093000684EA5DC030
:100A000083E08093030610929705CFCF80919705DE
:100A1000803208F04DC0E091970581E08E0F809301
:100A200097058091BB00F0E0E856FA4F8083BDCF78
:100A30002BDF80919705803230F4E0919705F0E04C
:100A4000E856FA4F10826091970570E0E091FC053E
:100A5000F091FD0588E995E019951092970535C04C
:100A600084E0809303061092B9051092B805E091D6
:100A7000FE05F091FF0519958091B805811105C01B
:100A800081E08093B8051092BA05E091B90581E044
:100A90008E0F8093B905F0E0E654FA4F8081809381
:100AA000BB009091B9058091B805981708F47DCFE7
:100AB00085E88093BC0009C085EC8093BC0010924F
:100AC000030603C010929605D5DEFF91EF91BF910A
:100AD000AF919F918F917F916F915F914F913F91D6
:100AE0002F910F900BBE0F900FBE0F901F90189577
:100AF000EF92FF920F931F93CF93DF931F921F925A
:100B0000CDB7DEB7062F142F682F84E495E0298334
:100B10003A8346DD602F84E495E0FBDC2981022FD7
:100B2000E22E3A81F32E8E2D801B811738F4F701C7
:100B300061917F0184E495E0ECDCF5CF84E495E0FD
:100B4000B0DD91E0811190E0892F0F900F90DF913F
:100B5000CF911F910F91FF90EF900895CF93DF9366
:100B60001F92CDB7DEB749839E012F5F3F4F41E013
:100B7000BFDF0F90DF91CF9108952F923F924F9258
:100B80005F926F927F928F929F92AF92BF92CF921D
:100B9000DF92EF92FF920F931F93CF93DF9300D0DA
:100BA0001F921F92CDB7DEB7F82EE62E242E6901D4
:100BB0000E94D62B4B015C01312C1D82822D90E0CE
:100BC0009C838B832801612C712C321408F04DC05A
:100BD0006F2D84E495E0E4DC6E2D84E495E099DCEF
:100BE00084E495E05EDD6F2D84E495E0D9DC4B81F3
:100BF0005C81431951094132510514F040E250E043
:100C00006F2D84E495E049DD84E495E027DC892BB1
:100C100011F10115110591F4F6012D81E20FF11D7D
:100C200027FDFA95FA83E98384E495E01FDCE981E6
:100C3000FA8180832D812F5F2D83E6CF0E94D62BF2
:100C4000DC01CB0188199909AA09BB09841595050E
:100C5000A605B70508F384E495E023DD822D40E284
:100C6000421508F480E2380EB0CF01151105D1F01D
:100C70000E94D62BDC01CB0188199909AA09BB096E
:100C800020E030E080179107A207B30758F0822DCB
:100C900090E0ED812E2FEE0F330B2817390714F457
:100CA0002FEF2D838D810F900F900F900F900F904D
:100CB000DF91CF911F910F91FF90EF90DF90CF9038
:100CC000BF90AF909F908F907F906F905F904F906C
:100CD0003F902F9008950F931F9389019A0141E04F
:100CE0004CDF1F910F910895EF92FF920F931F9386
:100CF000CF93DF931F92CDB7DEB7182F062FF42EB8
:100D0000E22E20910A0230910B02AE014F5F5F4F3D
:100D1000E2DF9981EE2041F041E050E001C0440F54
:100D2000FA94EAF7492B09C021E030E0A90101C09B
:100D3000440FFA94EAF7409549234983602F812FA5
:100D40000DDF0F90DF91CF911F910F91FF90EF90EA
:100D50000895DF92EF92FF920F931F93CF93DF934B
:100D60001F92CDB7DEB7182FF62EE42ED22E20918B
:100D70000A0230910B02AE014F5F5F4FACDF882358
:100D800019F1EE2DF0E0ED19F109319621E030E096
:100D900002C0220F331FDA94E2F7215031090E2EE0
:100DA00001C0220F0A94EAF7802F01C0880FEA954C
:100DB000EAF7422F4095998149232823422B498302
:100DC0006F2D812FCBDE01C080E00F90DF91CF919E
:100DD0001F910F91FF90EF90DF90089528E6FC019E
:100DE000208308950F93062F23E042E06AE1FC017F
:100DF0008081AFDF0F9108950F93062F22E044E02A
:100E00006BE1FC018081A5DF0F9108950F93062F00
:100E100022E044E06CE1FC0180819BDF0F910895AA
:100E20000F931F93CF93DF93EC0100910A0210916F
:100E30000B029C012F5F3F4F42E06BE388819DDEF8
:100E4000298130E0322F22278A81A901482BCA014B
:100E5000DF91CF911F910F9108950F931F93CF931F
:100E6000DF93EC0100910A0210910B029C012F5FAD
:100E70003F4F42E06DE3888180DE298130E0322FF0
:100E800022278A81A901482BCA01DF91CF911F91A6
:100E90000F9108950F931F93CF93DF93EC0100916F
:100EA0000A0210910B029C012F5F3F4F42E06FE35B
:100EB000888163DE298130E0322F22278A81A901CF
:100EC000482BCA01DF91CF911F910F9108950F9385
:100ED0001F93CF93DF93EC0100910A0210910B0254
:100EE0009C012F5F3F4F42E061E4888146DE29810B
:100EF00030E0322F22278A81A901482BCA01DF91D5
:100F0000CF911F910F9108950F931F93CF93DF936C
:100F1000EC0100910A0210910B029C012F5F3F4FE0
:100F200042E063E4888129DE298130E0322F2227E4
:100F30008A81A901482BCA01DF91CF911F910F919E
:100F400008950F931F93CF93DF93EC0100910A0252
:100F500010910B029C012F5F3F4F42E065E48881B6
:100F60000CDE298130E0322F22278A81A901482B0B
:100F7000CA01DF91CF911F910F9108950F931F9395
:100F8000CF93DF93EC0100910A0210910B029C01B8
:100F90002F5F3F4F42E067E48881EFDD298130E039
:100FA000322F22278A81A901482BCA01DF91CF91D4
:100FB0001F910F910895262F46E06BE6FC0180817A
:100FC00093CE0F93062F23E042E06BE6FC01808175
:100FD000C0DE0F910895CF93DF93EC0161E0F1DF64
:100FE00060E0CE0109DF60E0CE0110DF60E0CE01FD
:100FF000DF91CF91E0CF84E495E0C9DA84E096E018
:10100000EADF20E045E06AE688E66EDE21E041E0C6
:1010100067E388E669DE20E046E06BE688E664CEBA
:10102000CF93DF93EC0184E096E0FADE9983888326
:1010300084E096E012DF9B838A8384E096E02ADFD7
:101040009D838C83DF91CF910895CF93DF931F927F
:10105000CDB7DEB7682F84E495E0698398DA6981BB
:1010600084E096E0BFDE84E096E00F90DF91CF91C0
:10107000B2CFCF93DF93EC0184E096E045DF998314
:10108000888384E096E05DDF9B838A8384E096E03A
:1010900075DF9D838C83DF91CF910895CF93DF938C
:1010A000EC0184E096E013DF99838883DF91CF9190
:1010B000089584E096E092CEFC0180E090E0A0E804
:1010C000BFE380839183A283B38384839583A683C4
:1010D000B78380879187A287B38708951F93CF93A3
:1010E000DF931F92CDB7DEB7162F6EE170E084E478
:1010F00095E049835FDA612F84E495E00ADA49815B
:10110000642F84E495E005DA84E495E00F90DF91A4
:10111000CF911F91C6CA462F62E0E0DF64E670E01F
:1011200080E090E00C94072C1F93CF93DF93EC01A9
:10113000162F65E070E080E090E00E94072C1123FC
:1011400019F060E0CE01E7DF40E760E0CE01C6DFE6
:1011500040EA61E0CE01C2DF40E062E0CE01DF9113
:10116000CF911F91BBCFDF92EF92FF920F931F930E
:10117000CF93DF937B01EA0189016EE170E084E4A3
:1011800095E018DA63E084E495E0C3D984E495E05F
:1011900088DA6EE170E084E495E00CDA46E050E035
:1011A0006EE170E084E495E07ADA84E495E056D963
:1011B000069761F584E495E059D9D82E84E495E04A
:1011C00055D9E0E0F0E0FD2D8E2B9F2BF7019183A8
:1011D000808384E495E04AD9F82E84E495E046D9EA
:1011E00060E070E07F2D862B972BF8019183808340
:1011F00084E495E03BD9182F84E495E037D920E0CA
:1012000030E0312F822B932B9983888384E495E0FF
:10121000DF91CF911F910F91FF90EF90DF9041CA26
:1012200084E495E0B4D961E089E196E07DDF20E0D7
:1012300045E06AE688E658DD21E041E067E388E6BC
:1012400053DD20E046E06BE688E64ECDCF93DF939A
:10125000EC0123E136E045E156E067E176E089E123
:1012600096E081DF6091170670911806072E000C3A
:10127000880B990B0E949242688379838A839B83AF
:101280006091150670911606072E000C880B990BBD
:101290000E9492426C837D838E839F8360911306AC
:1012A00070911406072E000C880B990B0E94924235
:1012B000688779878A879B87DF91CF91089589E135
:1012C00096E0FACE9CB195FB882780F994FF03C085
:1012D00081110FC002C0882361F080913506909182
:1012E0003606A0913706B09138060196A11DB11DB2
:1012F0000BC08091350690913606A0913706B091CB
:1013000038060197A109B1098093350690933606F6
:10131000A0933706B093380608959CB194FB8827B4
:1013200080F995FF03C0882379F002C081110CC0B9
:101330008091350690913606A0913706B091380617
:101340000196A11DB11D0BC0809135069091360606
:10135000A0913706B09138060197A109B109809391
:10136000350690933606A0933706B0933806089555
:1013700099B193FB882780F992FF03C081110FC0B8
:1013800002C0882361F08091430690914406A091A9
:101390004506B09146060196A11DB11D0BC0809176
:1013A000430690914406A0914506B09146060197E8
:1013B000A109B1098093430690934406A093450682
:1013C000B0934606089599B192FB882780F993FF60
:1013D00003C0882379F002C081110CC080914306BC
:1013E00090914406A0914506B09146060196A11D34
:1013F000B11D0BC08091430690914406A091450613
:10140000B09146060197A109B109809343069093D4
:101410004406A0934506B093460608952CB1822F4A
:10142000807890E0880F892F881F990B26FF03C0D2
:10143000892B79F402C0019761F480915106909153
:101440005206A0915306B09154060196A11DB11DFC
:101450000BC08091510690915206A0915306B09115
:1014600054060197A109B109809351069093520641
:10147000A0935306B093540608952CB126FB8827F9
:1014800080F990E027FF03C0019779F402C0892B0F
:1014900061F48091510690915206A0915306B0914B
:1014A00054060196A11DB11D0BC08091510690916B
:1014B0005206A0915306B09154060197A109B109B3
:1014C0008093510690935206A0935306B09354060E
:1014D00008951F920F920FB60F9211242F933F93EE
:1014E0004F935F936F937F938F939F93AF93BF932C
:1014F00083B185FB992790F9292F30E086FB882757
:1015000080F940917506509176062417350779F5D4
:10151000482F50E05093740640937306882359F087
:10152000232B61F040916D0650916E0660916F061D
:101530007091700666C02130310561F480916D06AE
:1015400090916E06A0916F06B09170060196A11D54
:10155000B11D35C040916D0650916E0660916F06C9
:101560007091700641505109610971093FC0309373
:101570007606209375062130310551F58823A1F0B8
:1015800080916D0690916E06A0916F06B0917006E5
:101590000196A11DB11D80936D0690936E06A093D8
:1015A0006F06B093700647C080916D0690916E06ED
:1015B000A0916F06B09170060197A109B1098093BF
:1015C0006D0690936E06A0936F06B093700627C0C9
:1015D00040916D0650916E0660916F067091700695
:1015E00081110FC04F5F5F4F6F4F7F4F40936D066C
:1015F00050936E0660936F06709370069923D9F02E
:101600000EC0415051096109710940936D06509314
:101610006E0660936F067093700691110CC08091F6
:101620006D0690916E06A0916F06B09170060196BE
:10163000A11DB11D0BC080916D0690916E06A09109
:101640006F06B09170060197A109B10980936D06EC
:1016500090936E06A0936F06B0937006BF91AF9102
:101660009F918F917F916F915F914F913F912F91BA
:101670000F900FBE0F901F9018951F920F920FB6EC
:101680000F9211248F939F93AF93BF938091060184
:1016900081709091030190FF03C081110FC002C0BF
:1016A000813061F480915F0690916006A09161069F
:1016B000B09162060196A11DB11D0BC080915F061D
:1016C00090916006A0916106B09162060197A10910
:1016D000B10980935F0690936006A0936106B09372
:1016E0006206BF91AF919F918F910F900FBE0F90A7
:1016F0001F9018951F920F920FB60F9211248F937F
:101700009F93AF93BF9380910301817090910601E5
:1017100090FF03C0813079F402C081110CC0809128
:101720005F0690916006A0916106B09162060196F5
:10173000A11DB11D0BC080915F0690916006A09124
:101740006106B09162060197A109B10980935F0615
:1017500090936006A0936106B0936206BF91AF912B
:101760009F918F910F900FBE0F901F9018950F9320
:101770001F93CF93DF938C018EE0809FE001819FC8
:10178000D00D1124CF5CD94F798368835B834A8362
:101790008881998160E00E94E42D8A819B8160E0CC
:1017A0000E94E42D8881998161E00E94202E8A8127
:1017B0009B8161E00E94202E0230110509F47FC058
:1017C00044F401151105E9F00130110509F448C090
:1017D000BEC00330110509F4A6C00430110509F09C
:1017E000B6C08091680081608093680080916B0032
:1017F000806280936B0080916B00806480936B00AB
:10180000A6C08091310690913206029784319105ED
:1018100040F4FC01EE54FC4F8081082E000C990B23
:1018200002C08FEF9FEF41E050E062E679E00E9456
:10183000C029809133069091340602978431910536
:1018400040F4FC01EE54FC4F8081082E000C990BF3
:1018500002C08FEF9FEF41E050E06DE879E05DC09E
:1018600080913F069091400602978431910540F4A3
:10187000FC01EE54FC4F8081082E000C990B02C035
:101880008FEF9FEF41E050E068EB79E00E94C029C4
:10189000809141069091420602978431910540F46F
:1018A000FC01EE54FC4F8081082E000C990B02C005
:1018B0008FEF9FEF41E050E063EE79E02EC0809122
:1018C0004D0690914E0602978431910540F4FC013B
:1018D000EE54FC4F8081082E000C990B02C08FEF54
:1018E0009FEF41E050E06EE07AE00E94C0298091D5
:1018F0004F069091500602978431910540F4FC0107
:10190000EE54FC4F8081082E000C990B02C08FEF23
:101910009FEF41E050E06DE37AE0DF91CF911F91BE
:101920000F910C94C02980916800846080936800B6
:101930008091680082608093680080916D00816072
:1019400080936D0080916C00826080936C00DF91C9
:10195000CF911F910F9108952EE0269FF001279FB0
:10196000F00D1124EF5CF94F6481758186819781B8
:1019700008956F927F928F929F92AF92BF92CF9273
:10198000DF92EF92FF920F931F93CF93DF931F92FB
:10199000CDB7DEB7B62ED72E3A01F02E3E2DB401CC
:1019A000E22FF0E0E830F10511F4E4E0F0E0CC20C3
:1019B00049F091E0C91649F092E0C91649F002E0F9
:1019C00010E008C00AE010E005C000E110E002C02D
:1019D00008E010E0813009F4FDC038F0823009F4ED
:1019E00012C2833009F428C34FC4F1100CC0E69D25
:1019F000A001E79D500DF69D500D11246B2D7D2DFE
:101A000085E597E026C385E597E039830E944C324F
:101A1000398131111DC08B2C9D2C680C791C8614CA
:101A2000970409F431C4E1E0A801FE1207C0F401F3
:101A3000608185E597E00E941D3306C0F401608156
:101A400085E597E00E942333FFEF8F1A9F0AE7CFC7
:101A50003130E9F48B2C9D2C6114710409F414C409
:101A600081E0F40160817181A801F81205C085E56B
:101A700097E00E94383304C085E597E00E943D332B
:101A8000F1E06F1A710882E0880E911CE5CF3230C8
:101A9000F9F48B2C9D2C6114710409F4F5C391E0C9
:101AA000F40140815181628173819801F91205C06E
:101AB00085E597E00E94113304C085E597E00E9418
:101AC0005133F1E06F1A710884E0880E911CE3CF66
:101AD0003330F1F48B2C9D2C680C791C8614970400
:101AE00009F4D2C391E0F4016081062E000C770B5B
:101AF000A801F91205C085E597E00E94E63204C00E
:101B000085E597E00E94EC32FFEF8F1A9F0AE6CF3F
:101B10003430E9F48B2C9D2C6114710409F4B4C3A6
:101B200081E0F40160817181A801F81205C085E5AA
:101B300097E00E94E63204C085E597E00E94EC320F
:101B4000F1E06F1A710882E0880E911CE5CF353004
:101B5000F9F48B2C9D2C6114710409F495C391E068
:101B6000F40140815181628173819801F91205C0AD
:101B700085E597E00E949F3204C085E597E00E94CA
:101B80000133F1E06F1A710884E0880E911CE3CFF5
:101B9000363009F079C30B2D1D2DB12C6114710461
:101BA00009F472C391E0F80140815181628173812F
:101BB0009501F91205C085E597E00E943E3404C006
:101BC00085E597E00E943F34F1E06F1A71080C5FE1
:101BD0001F4FE4CFF1100CC0E69DA001E79D500D12
:101BE000F69D500D11246B2D7D2D82EF97E031C2B3
:101BF00082EF97E039830E944C32398131111BC04A
:101C00008B2C9D2C680C791C8614970409F43CC31A
:101C100081E0A801F4016081F81205C082EF97E02D
:101C20000E941D3304C082EF97E00E942333FFEF30
:101C30008F1A9F0AE9CF3130E9F48B2C9D2C611467
:101C4000710409F421C381E0F40160817181A8016C
:101C5000F81205C082EF97E00E94383304C082EF8B
:101C600097E00E943D33F1E06F1A710882E0880E20
:101C7000911CE5CF3230F9F48B2C9D2C611471044A
:101C800009F402C391E0F4014081518162817381C2
:101C90009801F91205C082EF97E00E94113304C049
:101CA00082EF97E00E945133F1E06F1A710884E0EF
:101CB000880E911CE3CF3330F1F48B2C9D2C680CF3
:101CC000791C8614970409F4DFC291E0F401608165
:101CD000062E000C770BA801F91205C082EF97E0E1
:101CE0000E94E63204C082EF97E00E94EC32FFEFE0
:101CF0008F1A9F0AE6CF3430E9F48B2C9D2C6114A7
:101D0000710409F4C1C281E0F40160817181A8010C
:101D1000F81205C082EF97E00E94E63204C082EF1D
:101D200097E00E94EC32F1E06F1A710882E0880EB1
:101D3000911CE5CF3530F9F48B2C9D2C6114710486
:101D400009F4A2C291E0F401408151816281738162
:101D50009801F91205C082EF97E00E949F3204C0FB
:101D600082EF97E00E940133F1E06F1A710884E07E
:101D7000880E911CE3CF363009F086C28B2C9D2C47
:101D8000B12C6114710409F47FC291E0F401F912DD
:101D90001AC0C1100AC040815181628173819501CE
:101DA00082EF97E00E943E3427C06081718182817A
:101DB00093810E945F42AB01BC01980182EF97E0E2
:101DC0000E949F3219C0C1100AC0408151816281B6
:101DD0007381950182EF97E00E943F340DC06081CE
:101DE0007181828193810E945F42AB01BC019801A5
:101DF00082EF97E00E940133F1E06F1A710884E0EE
:101E0000880E911CBECFF1100CC0E69DA001E79D8D
:101E1000500DF69D500D11246B2D7D2D8FE898E00F
:101E200018C18FE898E039830E944C323981311112
:101E30001BC08B2C9D2C680C791C8614970409F40C
:101E400023C291E0A801F4016081F91205C08FE876
:101E500098E00E941D3304C08FE898E00E9423336D
:101E6000FFEF8F1A9F0AE9CF3130E9F48B2C9D2CBC
:101E70006114710409F408C281E0F4016081718188
:101E8000A801F81205C08FE898E00E94383304C01A
:101E90008FE898E00E943D33F1E06F1A710882E00C
:101EA000880E911CE5CF3230F9F48B2C9D2C6114F7
:101EB000710409F4E9C191E0F4014081518162812A
:101EC00073819801F91205C08FE898E00E941133E0
:101ED00004C08FE898E00E945133F1E06F1A710856
:101EE00084E0880E911CE3CF3330F1F48B2C9D2CD1
:101EF000680C791C8614970409F4C6C191E0F401BA
:101F00006081062E000C770BA801F91205C08FE83E
:101F100098E00E94E63204C08FE898E00E94EC321C
:101F2000FFEF8F1A9F0AE6CF3430E9F48B2C9D2CFB
:101F30006114710409F4A8C181E0F4016081718128
:101F4000A801F81205C08FE898E00E94E63204C0AC
:101F50008FE898E00E94EC32F1E06F1A710882E09D
:101F6000880E911CE5CF3530F9F48B2C9D2C611433
:101F7000710409F489C191E0F401408151816281C9
:101F800073819801F91205C08FE898E00E949F3292
:101F900004C08FE898E00E940133F1E06F1A7108E5
:101FA00084E0880E911CE3CF363009F06DC18B2C94
:101FB0009D2CB12C6114710409F466C191E0F40107
:101FC000F9121AC0C1100AC0408151816281738127
:101FD00095018FE898E00E943E3427C060817181AE
:101FE000828193810E945F42AB01BC0198018FE81E
:101FF00098E00E949F3219C0C1100AC040815181EF
:102000006281738195018FE898E00E943F340DC092
:1020100060817181828193810E945F42AB01BC012A
:1020200098018FE898E00E940133F1E06F1A71087F
:1020300084E0880E911CBECFF1101CC0E69DA0016B
:10204000E79D500DF69D500D11246B2D7D2D8CE2DA
:1020500099E00F90DF91CF911F910F91FF90EF903A
:10206000DF90CF90BF90AF909F908F907F906F90B8
:102070000C940C328CE299E039830E944C32398105
:1020800031111BC08B2C9D2C680C791C8614970475
:1020900009F4FAC091E0A801F4016081F91205C0C9
:1020A0008CE299E00E941D3304C08CE299E00E940A
:1020B0002333FFEF8F1A9F0AE9CF3130E9F48B2CDD
:1020C0009D2C6114710409F4DFC081E0F40160818A
:1020D0007181A801F81205C08CE299E00E943833A2
:1020E00004C08CE299E00E943D33F1E06F1A710860
:1020F00082E0880E911CE5CF3230F9F48B2C9D2CB8
:102100006114710409F4C0C091E0F401408151816F
:10211000628173819801F91205C08CE299E00E94F6
:10212000113304C08CE299E00E945133F1E06F1A40
:10213000710884E0880E911CE3CF3330F1F48B2CCE
:102140009D2C680C791C8614970409F49DC091E0BD
:10215000F4016081062E000C770BA801F91205C06E
:102160008CE299E00E94E63204C08CE299E00E9481
:10217000EC32FFEF8F1A9F0AE6CF3430E9F48B2C54
:102180009D2C6114710409F47FC081E0F401608129
:102190007181A801F81205C08CE299E00E94E63234
:1021A00004C08CE299E00E94EC32F1E06F1A7108F1
:1021B00082E0880E911CE5CF3530F9F48B2C9D2CF4
:1021C0006114710409F460C091E0F401408151810F
:1021D000628173819801F91205C08CE299E00E9436
:1021E0009F3204C08CE299E00E940133F1E06F1A43
:1021F000710884E0880E911CE3CF363009F044C0AA
:102200008B2C9D2CB12C61147104F1F191E0F4013F
:10221000F9121AC0C1100AC04081518162817381D4
:1022200095018CE299E00E943E3427C06081718163
:10223000828193810E945F42AB01BC0198018CE2D4
:1022400099E00E949F3219C0C1100AC0408151819B
:102250006281738195018CE299E00E943F340DC048
:1022600060817181828193810E945F42AB01BC01D8
:1022700098018CE299E00E940133F1E06F1A710835
:1022800084E0880E911CBFCF0F90DF91CF911F91FA
:102290000F91FF90EF90DF90CF90BF90AF909F9005
:1022A0008F907F906F9008951F93CF93DF931F922D
:1022B000CDB7DEB7162F61E0812F79830E94E42D20
:1022C000812F7981972F0F90DF91CF911F910895E2
:1022D0000895CF93C82FCB01BA010E945F428C2F83
:1022E000CF910C94C72C662311F061E001C060E02F
:1022F0000C94E42D662311F061E001C060E00C94C1
:10230000202E4F925F926F927F928F929F92AF9208
:10231000BF92CF92DF92EF92FF920F931F93CF93D2
:10232000DF93CDB7DEB764970FB6F894DEBF0FBE6C
:10233000CDBFCE010D960E9439088D859E85909364
:10234000430C8093420C8F8598899093450C809321
:10235000440C89899A899093470C8093460CCE014E
:102360000D960E9410088D859E859093490C809350
:10237000480C8F85988990934B0C80934A0C8989DF
:102380009A8990934D0C80934C0CC0903C03D09054
:102390003D03E0903E03F0903F03A701960160915A
:1023A000550A7091560A8091570A9091580A0E94D6
:1023B000F341882341F0C092550AD092560AE09228
:1023C000570AF092580A8091530A9091540A0E9439
:1023D0002D0243E050E06AE37CE08091530A909143
:1023E000540A0E942302609140037091410380913E
:1023F0004203909143030E94CD426B017C010E94F5
:10240000001C811120C0C701B6010E94AE1B8111C2
:102410001AC020E030E040E853E4C701B6010E9452
:10242000E7426B017C015B01870120E030E0A901FC
:102430000E94F34187FF0BC0C701B60190580E946C
:102440006442619508C0A12CB12C00E010E0B501F8
:10245000C8010E9464426B8B6091390A70913A0AFC
:1024600080913B0A90913C0A0E946442C62E609182
:10247000310A7091320A8091330A9091340A0E9495
:102480006442E62E6091350A7091360A8091370ACF
:102490009091380A0E946442062F60912D0A709133
:1024A0002E0A80912F0A9091300A0E946442262FB2
:1024B0006091290A70912A0A80912B0A90912C0A26
:1024C0002C8B0E946442862F812C912C92E0A92EA5
:1024D0002C8941E050E0BE016D5E7F4F4ADA609189
:1024E00044037091450380914603909147030E94F5
:1024F000644288E30E94202E609148037091490352
:1025000080914A0390914B030E94644281E40E94AF
:10251000202E61E070E080E090E01EDA6093320CE3
:102520007093330C8093340C9093350C63E070E01F
:1025300080E090E011DA6093360C7093370C809352
:10254000380C9093390CCE0101960E94260989819E
:102550009A81AB81BC818093260C9093270CA09329
:10256000280CB093290C8D819E81AF81B885809312
:102570002A0C90932B0CA0932C0CB0932D0C8985D6
:102580009A85AB85BC8580932E0C90932F0CA093DD
:10259000300CB093310CE0911C0CF0911D0C20819B
:1025A00031814281538160914C0370914D03809140
:1025B0004E0390914F030E94E7430E944A442091AA
:1025C00050033091510340915203509153030E94A4
:1025D000E743162F072FF82EE92ECC24C394D12CD5
:1025E0002091540330915503409156035091570365
:1025F0000E94F34187FD02C0C12CD12CB60188E0B6
:1026000090E078DEA0902803B0902903C0902A03C0
:10261000D0902B039501A601612F702F8F2D9E2D39
:102620000E94E3431816B4F0A0907C03B0907D03A1
:10263000C0907E03D0907F039501A601612F702F7B
:102640008F2D9E2D0E94F34187FD04C0A12EB02E38
:10265000CF2CDE2C209180033091810340918203A6
:1026600050918303B501C6010E94E7430E94CD4209
:102670004B015C010E940C1C811120C0C501B401FA
:102680000E94D71B81111AC020E030E040E853E4DB
:10269000C501B4010E94E7424B015C013B016501A9
:1026A00020E030E0A9010E94F34187FF0BC0C50183
:1026B000B40190580E946442619508C0612C712C4D
:1026C000C12CD12CB301C6010E94644270E080E0AD
:1026D00090E00E949242AB01BC018091DB0A909194
:1026E000DC0AF7DDCC24C394D12C2091580330911F
:1026F000590340915A0350915B03612F702F8F2D26
:102700009E2D0E94F34187FD02C0C12CD12CB60141
:1027100085E090E0EFDDA0902C03B0902D03C090F9
:102720002E03D0902F039501A601612F702F8F2DBE
:102730009E2D0E94E343181694F0A0908403B0905D
:102740008503C0908603D09087039501A601612F71
:10275000702F8F2D9E2D0E94F34187FF04C01A2DEC
:102760000B2DFC2CED2C2091880330918903409196
:102770008A0350918B03612F702F8F2D9E2D0E9405
:10278000E7430E94CD426B017C010E940C1C811129
:1027900020C0C701B6010E94D71B81111AC020E0DA
:1027A00030E040E853E4C701B6010E94E7426B0104
:1027B0007C015B01870120E030E0A9010E94F34128
:1027C00087FF0BC0C701B60190580E946442619513
:1027D00008C0A12CB12C00E010E0B501C8010E9496
:1027E000644270E080E090E00E949242AB01BC0144
:1027F0008091C30A9091C40A6CDD8EE49CE00E9433
:102800004E08C0903803D0903903E0903A03F0901E
:102810003B03A70196016091710A7091720A809141
:10282000730A9091740A0E94F341882341F0C09288
:10283000710AD092720AE092730AF092740A80913F
:102840006F0A9091700A0E942D0243E050E06CE301
:102850007CE080916F0A9091700A0E942302C090E0
:102860003403D0903503E0903603F0903703A7018E
:10287000960160918D0A70918E0A80918F0A9091D5
:10288000900A0E94F341882341F0C0928D0AD092B1
:102890008E0AE0928F0AF092900A80918B0A9091B2
:1028A0008C0A0E942D0243E050E06EE37CE08091B0
:1028B0008B0A90918C0A0E942302C0903003D09022
:1028C0003103E0903203F0903303A7019601609149
:1028D000A90A7091AA0A8091AB0A9091AC0A0E9451
:1028E000F341882341F0C092A90AD092AA0AE0924B
:1028F000AB0AF092AC0A8091A70A9091A80A0E94B4
:102900002D0243E050E060E47CE08091A70A9091C2
:10291000A80A0E942302C090530BD090540BE09061
:10292000550BF090560BC701B6010E9492422B0145
:102930003C012091640330916503409166035091FE
:1029400067030E94F34187FF0BC0F7FC09C080902A
:102950005C0390905D03A0905E03B0905F0303C0A2
:10296000812C912C540120E030E040E85FE360913D
:1029700060037091610380916203909163030E94F0
:102980008E419B01AC01C301B2010E94E34387FD6C
:1029900009C01092530B1092540B1092550B1092C9
:1029A000560B0DC02FEFC21AD20AE20AF20AC092E9
:1029B000530BD092540BE092550BF092560BC5017D
:1029C000B4010E9464428AE30E94202EC090570BFB
:1029D000D090580BE090590BF0905A0BC701B601FC
:1029E0000E9492422B013C012091740330917503A7
:1029F00040917603509177030E94F34187FF0BC00B
:102A0000F7FC09C080906C0390906D03A0906E035A
:102A1000B0906F0303C0812C912C540120E030E072
:102A200040E85FE3609170037091710380917203DD
:102A3000909173030E948E419B01AC01C301B201CE
:102A40000E94E34387FD09C01092570B1092580B68
:102A50001092590B10925A0B0DC08FEFC81AD80A5A
:102A6000E80AF80AC092570BD092580BE092590B23
:102A7000F0925A0BC501B4010E9464428BE30E949C
:102A8000202E89E30E944F2E8093500C682F8DE3F7
:102A90000E94202E82E090E00E946C29E0911C0CA4
:102AA000F0911D0C408151816281738180E090E042
:102AB0000E94682960910D0C70910E0C80910F0C92
:102AC0009091100C0E9490426B017C016091110C5E
:102AD0007091120C8091130C9091140C0E949042F2
:102AE00020E030E040E85FE40E94E7439B01AC0156
:102AF000C701B6010E948F412FE832EC45EF5CE33D
:102B00000E94E743AB01BC0181E090E00E9468298C
:102B10008090150C9090160CA090170CB090180C8B
:102B200020E030E040E85FEBC501B4010E94F341D2
:102B300000911C0C10911D0C882319F1F801C08024
:102B4000D180E280F380A7019601C501B4010E9403
:102B50008E414B015C0120E030E040E054E3C701CE
:102B6000B6010E94E7439B01AC01C501B4010E947C
:102B7000E343181634F086EC93E09093710B809346
:102B8000700B80911B0C882331F086EC93E09093BE
:102B9000710B8093700B8091010C9091020CA091AD
:102BA000030CB091040CBC01CD016F5F7F4F8F4FC0
:102BB0009F4F6093010C7093020C8093030C9093D1
:102BC000040C6115710581059105A9F4C090050CEF
:102BD000D090060CE090070CF090080CFFEFCF1A95
:102BE000DF0AEF0AFF0AC092050CD092060CE092B1
:102BF000070CF092080CC090090CD0900A0CE090E1
:102C00000B0CF0900C0C0E949042A70196010E94C0
:102C1000E7434B015C016091050C7091060C8091BB
:102C2000070C9091080C0E949042A70196010E9407
:102C3000E74320E030E040E85FE40E94E7439B0187
:102C4000AC01C501B4010E948F41F801608371831A
:102C50008283938380910D0C90910E0CA0910F0CA8
:102C6000B091100C0196A11DB11D80930D0C909395
:102C70000E0CA0930F0CB093100C892B8A2B8B2B6E
:102C800099F48091110C9091120CA091130CB091B9
:102C9000140C0196A11DB11D8093110C9093120C80
:102CA000A093130CB093140C64960FB6F894DEBF87
:102CB0000FBECDBFDF91CF911F910F91FF90EF908D
:102CC000DF90CF90BF90AF909F908F907F906F904C
:102CD0005F904F9008952F923F924F925F926F9224
:102CE0007F928F929F92AF92BF92CF92DF92EF929C
:102CF000FF920F931F93CF93DF9384E090E0F7D47C
:102D0000E0E7FBE086EBDF011D928A95E9F789E1B8
:102D10009CE097838683CCE1DCE0D093B10BC09339
:102D2000B00B09E01CE0158B048BF093DB0BE093F8
:102D3000DA0BF583E48321E030E0DC012D933C9352
:102D40008AED93E0938782872EE13CE039832883E4
:102D500040E050E060E87FEB4093150C5093160C78
:102D60006093170C7093180C4FE852EC65EF7CE3FE
:102D7000E801488359836A837B834FEE5BE089EAED
:102D800098E0AFE8B3EDEA0188839983AA83BB8317
:102D90008BEA9AE7A4E8BEEE8093F30B9093F40BD2
:102DA000A093F50BB093F60B8BEA99E8A4E1B3E599
:102DB0008093F70B9093F80BA093F90BB093FA0B59
:102DC0008CE09BE8A4EBB7E28093FB0B9093FC0BA9
:102DD000A093FD0BB093FE0BA5EBB6E0B383A283EB
:102DE000E9E8F6E01196FC93EE9381ED94E091838F
:102DF000808393838283958384839783868391875B
:102E00008087938782879587848797878687918B2A
:102E1000808B938B828B958B848B978B868B918FFA
:102E2000808F938F828F958F848F978F868F91A3BA
:102E300080A393A382A395A384A397A386A391A71A
:102E400080A793A782A7CFEFDBE01596DC93CE9304
:102E5000149713965C934E93129717963C932E9368
:102E600016978BE2E6E2FCE0DF011D928A95E9F716
:102E700005E01AE08BE691E0F8019C0111922150E7
:102E80003040E1F7E7E7F6E082E1DF011D928A9545
:102E9000E9F7F983E88389E190E09183808386EF05
:102EA00092E09383828384EC92E09583848388E22A
:102EB00092E0978386838CE092E091878087C1E0DF
:102EC000C0935F0B812C912C540183948092E40A6F
:102ED0009092E50AA092E60AB092E70A80E090E0BC
:102EE0000E942508C093E80A1092DD0AC093600B87
:102EF00092EEC92E9AE0D92EF60110828092DE0A57
:102F00009092DF0AA092E00AB092E10A0E94FB07C9
:102F1000D601CC9322E3622E6092430A33E3732EF0
:102F20007092440A44E3442E4092450A55E3552EDC
:102F30005092460A66E3362E3092470A77E3272EF0
:102F40002092480AB8E3B093490AD9E3D0934A0AD9
:102F5000D1E3D0934B0AE0E3E0934C0AD0934D0ABF
:102F6000D0934E0AD0934F0A6092500AD093510AE0
:102F70007092520AD801D8961C92C093610B80912E
:102F80003C0390913D03A0913E03B0913F03809399
:102F9000550A9093560AA093570AB093580A109274
:102FA000420AF80181AE92AEA3AEB4AE60E070E02A
:102FB000CB010E9407029093540A8093530A20E0A9
:102FC00030E0A90160E070E00E942202C093420A52
:102FD000C093620BD8018D929D92AD92BC921397D3
:102FE00080E090E0A0E0B0E4F80184A395A3A6A35C
:102FF000B7A380E090E0A0E8BFE380A791A7A2A7D5
:10300000B3A714A615A616A617A610AA11AA12AA47
:1030100013AA14AA15AA16AA17AA1092070BC093EE
:10302000630B0CE01BE0F80110828092080B909279
:10303000090BA0920A0BB0920B0B61E088E30E948F
:10304000E42DD801CC9310920D0BC093640B02E1D8
:103050001BE0F801108280920E0B90920F0BA09251
:10306000100BB092110B61E081E40E94E42DD801B5
:10307000CC931092F50AC093650B0AEF1AE0F801A1
:1030800010828092F60A9092F70AA092F80AB09203
:10309000F90A42E150E063E170E081E090E00E94D3
:1030A000B70BD801CC931092FB0AC093660B00E0DB
:1030B0001BE0F80110828092FC0A9092FD0AA09217
:1030C000FE0AB092FF0A4EE350E06FE070E083E04A
:1030D00090E00E94B70BD801CC931092010BC093E3
:1030E000670B06E01BE0F80110828092020B9092C1
:1030F000030BA092040BB092050B0E941009D8019B
:10310000CC931092EF0AC0935D0B04EF1AE0F80124
:1031100010828092F00A9092F10AA092F20AB09284
:10312000F30A61E070E088E090E0DDD8D801CC934C
:103130006092CB0A7092CC0A4092CD0A5092CE0A8D
:103140003092CF0A2092D00AB8E3B093D10AE9E3D3
:10315000E093D20AD093D30AF0E3F093D40AD09349
:10316000D50AD093D60AD093D70A6092D80AD093C2
:10317000D90A7092DA0A1092C50AC0935E0BEAEC83
:10318000CE2EEAE0DE2ED6011C928092C60A9092E4
:10319000C70AA092C80AB092C90AE12CF12C870193
:1031A000A801970166E070E080E090E07DD8909300
:1031B000DC0A8093DB0A8CD8F601C0831092E90AFE
:1031C000C0935B0B0EEE1AE0D8011C928092EA0AC3
:1031D0009092EB0AA092EC0AB092ED0A61E070E0E6
:1031E00085E090E080D8F801C0836092B30A7092C5
:1031F000B40A4092B50A5092B60A3092B70A2092A9
:10320000B80AF8E3F093B90A29E32093BA0AD093F5
:10321000BB0A30E33093BC0AD093BD0AD093BE0AF8
:10322000D093BF0A6092C00AD093C10A7092C20ABA
:103230001092AD0AC0935C0BF2EBCF2EFAE0DF2EBA
:10324000D6011C928092AE0A9092AF0AA092B00A68
:10325000B092B10AE12CF12C8701A801970162E03C
:1032600070E080E090E020D89093C40A8093C30A75
:103270002FD8F601C0831092250BC093680B0AE289
:103280001BE0D8011C928092260B9092270BA092F3
:10329000280BB092290B0E94FB07F801C0836092B3
:1032A0005F0A7092600A4092610A5092620A3092FC
:1032B000630A2092640AF8E3F093650A29E32093F5
:1032C000660AD093670A30E33093680AD093690A9C
:1032D000D0936A0AD0936B0A60926C0AD0936D0AFD
:1032E00070926E0A1092590AC093690B809138034C
:1032F00090913903A0913A03B0913B038093710AF6
:103300009093720AA093730AB093740A0EE51AE0C0
:10331000D8011C9280925A0A90925B0AA0925C0A91
:10332000B0925D0A6AE070E080E090E00E940702DF
:103330009093700A80936F0A20E030E0A90160E06A
:1033400070E00E942202F801C08360927B0A7092B2
:103350007C0A40927D0A50927E0A30927F0A209227
:10336000800AF8E3F093810A29E32093820AD0933C
:10337000830A30E33093840AD093850AD093860A77
:10338000D093870A6092880AD093890A70928A0A39
:103390001092750AC0936A0B8091340390913503A3
:1033A000A0913603B091370380938D0A90938E0AD3
:1033B000A0938F0AB093900A0AE71AE0D8011C92F2
:1033C0008092760A9092770AA092780AB092790A4F
:1033D00061E070E080E090E00E94070290938C0A28
:1033E00080938B0A20E030E0A90160E070E00E9449
:1033F0002202F801C0836092970A7092980A409264
:10340000990A50929A0A30929B0A20929C0AF8E3F9
:10341000F0939D0A29E320939E0AD0939F0A30E3FC
:103420003093A00AD093A10AD093A20AD093A30A02
:103430006092A40AD093A50A7092A60A1092910AEB
:10344000C0936B0B8091300390913103A0913203B4
:10345000B09133038093A90A9093AA0AA093AB0A70
:10346000B093AC0A06E91AE0D8011C928092920A45
:103470009092930AA092940AB092950A69E070E043
:1034800080E090E00E9407029093A80A8093A70A28
:1034900020E030E0A90160E070E00E942202F80123
:1034A000C0831092530B1092540B1092550B109234
:1034B000560B1092130BC0936C0B08E11BE0D80164
:1034C0001C928092140B9092150BA092160BB09246
:1034D000170B61E08AE30E94E42DF801C08310928B
:1034E000570B1092580B1092590B10925A0B1092C6
:1034F000190BC0936D0B0EE11BE0D8011C9280925A
:103500001A0B90921B0BA0921C0BB0921D0B61E04A
:103510008BE30E94E42DF801C08310922B0BC09323
:103520006E0B00E31BE0D8011C9280922C0B909252
:103530002D0BA0922E0BB0922F0B60E089E30E941E
:10354000E42DF801C08310921F0BC0936F0B04E2AF
:103550001BE0D8011C928092200B9092210BA0922C
:10356000220BB092230B61E08DE30E94E42DF80161
:10357000C083DF91CF911F910F91FF90EF90DF906B
:10358000CF90BF90AF909F908F907F906F905F9003
:103590004F903F902F9008958091E30A811103C0CE
:1035A00081E08093E30A8091DD0A811103C081E00C
:1035B0008093DD0A80913D0A811103C081E08093F0
:1035C0003D0A8091070B811103C081E08093070BB6
:1035D00080910D0B811103C081E080930D0B8091D0
:1035E000F50A811103C081E08093F50A8091FB0AFE
:1035F000811103C081E08093FB0A8091010B81114E
:1036000003C081E08093010B8091EF0A811103C018
:1036100081E08093EF0A8091C50A811103C081E0A7
:103620008093C50A8091E90A811103C081E08093EB
:10363000E90A8091AD0A811103C081E08093AD0A4F
:103640008091250B811103C081E08093250B80912F
:10365000590A811103C081E08093590A8091750A4B
:10366000811103C081E08093750A8091910A8111D4
:1036700003C081E08093910A8091130B811103C0F4
:1036800081E08093130B8091190B811103C081E0BD
:103690008093190B80912B0B811103C081E08093E3
:1036A0002B0B80911F0B811103C081E080931F0BB6
:1036B000089560E070E080E89FE7089560E070E0C2
:1036C00080E89FE7089560E070E080E89FEF08954C
:1036D00060E070E080E89FEF089560E070E080ECCB
:1036E0009FEF089560E070E080EC9FEF0895F5DFB4
:1036F00060935D0C70935E0C80935F0C9093600CF4
:10370000F1DF6093510C7093520C8093530C9093A3
:10371000540CCFDF6093590C70935A0C80935B0C60
:1037200090935C0CCBDF6093550C7093560C809398
:10373000570C9093580CC7DF6093610C7093620C28
:103740008093630C9093640CC3DF6093650C70935B
:10375000660C8093670C9093680C0895CF92DF926B
:10376000EF92FF92CF936B017C012091590C309125
:103770005A0C40915B0C50915C0C0E94F341C1E0EB
:10378000882371F02091610C3091620C4091630CA0
:103790005091640CC701B6010E94F3418111C0E051
:1037A0008C2FCF91FF90EF90DF90CF900895CF9224
:1037B000DF92EF92FF92CF936B017C012091550C29
:1037C0003091560C4091570C5091580C0E94F34187
:1037D000C1E0882371F02091650C3091660C409116
:1037E000670C5091680CC701B6010E94F34181112A
:1037F000C0E08C2FCF91FF90EF90DF90CF90089595
:10380000CF93C1E09B01AC010E94F341811101C043
:10381000C0E08C2FCF910895CF93C1E09B01AC0104
:103820000E94F341811101C0C0E08C2FCF91089517
:10383000EF92FF920F931F93CF93DF93DC01EA0186
:10384000F90114968D919C91159712960D911C91EA
:103850001397080F191F2881398118964D915C9193
:1038600019974217530728F04D915C911197452BFA
:1038700039F17801E21AF30A18964D915C91199783
:10388000481B590B4E0D5F1D4617570794F1A901B0
:10389000460F571F40175107E0F0F182E082338353
:1038A00022836E197F0975836483161617061CF42C
:1038B000382F292F02C030E020E03683278313C041
:1038C00018968D919C911997821B930B86179707D9
:1038D00084F071836083338322831582148217827C
:1038E000168288819981680F791F7983688380E0C7
:1038F00001C081E0DF91CF911F910F91FF90EF9078
:103900000895CF92DF92EF92FF92CF93DF936B01F6
:103910007C0184E48C9DE0018D9DD00D1124CF535A
:10392000D94F8AA99BA9009721F00E94C3451BAAE1
:103930001AAA84E48C9DF0018D9DF00D1124EF53A3
:10394000F94F86A997A9009711F00E94C34584E416
:103950008C9DF0018D9DF00D1124EF53F94F138ACA
:10396000128A168A178A108E118E128E138E148E5A
:10397000158E168E178E10A211A281E090E093A3EF
:1039800082A315A214A216A217A210A611A613A60E
:1039900012A615A614A616A617A610AA11AA13AA4F
:1039A00012AA15AA14AA17AA16AA11AE10AE12AE20
:1039B00013AE14AE15AEDF01DE961D921D921D9260
:1039C0001C921397EE5BFF4F11821082DF91CF9113
:1039D000FF90EF90DF90CF9008950F931F93CF93B8
:1039E000DF93EB01DC018D919C91FC01A681B781F5
:1039F000E881F98123E0EE0FFF1F2A95E1F7129687
:103A00002D913C911397E20FF31F00811181AC853A
:103A1000BD859D01220F331FDC0112968D919C9173
:103A20001397D901A80FB91F8D919C9124813581DD
:103A3000232B19F461E070E002C062E070E0689F3F
:103A40009001699F300D789F300D112488859985EC
:103A5000289FB001299F700D389F700D1124EC81B3
:103A6000FD812E9FC0012F9F900D3E9F900D112430
:103A7000800F911FFA019183808373836283DF91AA
:103A8000CF911F910F9108952F923F924F925F9285
:103A90006F927F928F929F92AF92BF92CF92DF925E
:103AA000EF92FF920F931F93CF93DF9300D000D03C
:103AB000CDB7DEB7DC011496ED91FC91159701901E
:103AC000F081E02D808591859A838983A281B381DD
:103AD000BC83AB83FB0181909190A190B1908F0149
:103AE000C12CD12C7601C814D904EA04FB040CF0D3
:103AF0005FC0D80114964D905D906D907C901797A3
:103B000018964D915D916D917C911B97F80170967F
:103B1000FE83ED83F801A081B18183E0AA0FBB1F72
:103B20008A95E1F7E981FA8182819381A80FB91F13
:103B30002D903C901197F80124853585220F331F75
:103B40008B819C81280F391FF90100811181149606
:103B50008D919C911597892B19F481E090E002C01A
:103B600082E090E0809F9001819F300D909F300D0A
:103B70001124249F8001259F100D349F100D1124C6
:103B8000249DC001259D900D349D900D1124A80108
:103B90006D817E81820D931D0E945B468D819E8189
:103BA000080F191F9FEFC91AD90AE90AF90A9BCF12
:103BB00026960FB6F894DEBF0FBECDBFDF91CF9132
:103BC0001F910F91FF90EF90DF90CF90BF90AF903B
:103BD0009F908F907F906F905F904F903F902F902D
:103BE0000895CF93DF93DB01A457BC4F2C91222380
:103BF00069F024E4269FF001279FF00D1124EF5374
:103C0000F94FEF0119922A95E9F71C9224E4269FB7
:103C1000F001279FF00D1124EF53F94F1482158204
:103C2000168217821186108613861286118A108AD0
:103C300017861686DF91CF9164CE2F923F924F92D6
:103C40005F926F927F928F929F92AF92BF92CF922C
:103C5000DF92EF92FF920F931F93CF93DF93CDB735
:103C6000DEB728970FB6F894DEBF0FBECDBF6B014D
:103C70007C011A0184E48C9D90018D9D300D1124EE
:103C80002F53394FF90184819581A681B781892B02
:103C90008A2B8B2B09F4B8C0A12CB12C412C512CB0
:103CA000320138872F83C90104969A838983D90109
:103CB0001896BC83AB83E981FA8180819181A281CE
:103CC000B381481659066A067B0694F5AB81BC8120
:103CD000ED91FC91EA0DFB1D228133818901812C3C
:103CE000912C82149304C4F4D801ED91FC91309787
:103CF00069F0848195812D833E830E94C345F8013C
:103D0000808191810E94C3453E812D81FFEF8F1AF2
:103D10009F0A0E5F1F4FE5CFC9010E94C3458FEF79
:103D2000481A580A680A780A94E0A90EB11CC3CF51
:103D3000AF81B88518968D919C9119970E94C345C3
:103D4000EF81F88582859385892B59F1A12CB12CBF
:103D5000812C912C84E48C9D80018D9D100D11246B
:103D60000553194F8214930484F4D801ED91FC910A
:103D7000EA0DFB1D848195810E94C345BFEF8B1A1C
:103D80009B0AEEE0AE0EB11CEDCF84E48C9DF001F9
:103D90008D9DF00D1124EF53F94F828593850E947C
:103DA000C34584E48C9D90018D9D300D11248901C3
:103DB0000F53194FD80150968D919C9151970E94A5
:103DC000C345F801868597850E94C345C701B601A2
:103DD00098DDC701B60128960FB6F894DEBF0FBE76
:103DE000CDBFDF91CF911F910F91FF90EF90DF90AA
:103DF000CF90BF90AF909F908F907F906F905F908B
:103E00004F903F902F90EDCE28960FB6F894DEBFDE
:103E10000FBECDBFDF91CF911F910F91FF90EF901B
:103E2000DF90CF90BF90AF909F908F907F906F90DA
:103E30005F904F903F902F90089524E4269FF001CB
:103E4000279FF00D1124EF53F94F8289938904972E
:103E5000029758F485E090E0938B828B8FEF9FEF71
:103E6000DC01828F938FA48FB58F08952F923F929C
:103E70004F925F926F927F928F929F92AF92BF927A
:103E8000CF92DF92EF92FF920F931F93CF93DF9326
:103E9000CDB7DEB7E0970FB6F894DEBF0FBECDBF4B
:103EA0009AA389A31B016A012801390184E4849D36
:103EB0008001859D100D112498012F53394F7901F0
:103EC000D9014D925D926D927C921397AB01C30123
:103ED000B201B3DEF801EB53F94FD6014D915D917C
:103EE0006D917D918D01CA014083518362837383FB
:103EF00064E070E00E941445F70191878087892B68
:103F000009F499C11E8E1D8E198E1A8E1B8E1C8E61
:103F1000F8A2EF8E97012C5F3F4F38A72FA32C5F9D
:103F20003F4F3AA729A7EFA1F8A580819181A281EF
:103F3000B381298D3A8D4B8D5C8D281739074A073F
:103F40005B070CF0E4C0A9A5BAA58D919C912D8DBD
:103F50003E8D280F391F3A8B298BD801ED91FC91AA
:103F6000EE0FFF1FA9A1BAA18D919C91E80FF91F37
:103F700080819181F90191838083D80114962D91DC
:103F80003D914D915C9117972BA33CA34DA35EA34C
:103F9000085F1F4F62E070E0C1010E941445E9898B
:103FA000FA8993838283892B09F445C11D8A1E8A6D
:103FB0001F8A188E2D893E894F89588D8BA19CA10F
:103FC000ADA1BEA1281739074A075B070CF08CC0CA
:103FD000D801ED90FC90EE0CFF1CE989FA89C280B3
:103FE000D380CE0CDF1C68E070E081E090E00E949E
:103FF0001445D6018D939C93E989FA898281938136
:10400000FC01EE0DFF1DC080D180C114D10409F464
:1040100012C1D80114964D915D916D917C911797C5
:10402000CA01F6014083518362837383085F1F4F87
:1040300064E070E00E941445D60115969C938E931F
:104040001497892B09F4F7C01C8A1B8A812C912CA8
:104050005401F60180819181A281B381881699066D
:10406000AA06BB06A4F5F601E480F5802B893C89FD
:10407000E20EF31EF801DE01119680E101900D922F
:104080008A95E1F7005F1F4FA701BE016F5F7F4F69
:10409000A9A1BAA114968D919C9115979EDCF60169
:1040A00026813781D70112968D919C911397820FAB
:1040B000931F97838683BFEF8B1A9B0AAB0ABB0AB9
:1040C0002B893C892C5F3F4F3C8B2B8BC2CF2D899A
:1040D0003E894F89588D2F5F3F4F4F4F5F4F2D8B3C
:1040E0003E8B4F8B588F66CF298D3A8D4B8D5C8DD3
:1040F0002F5F3F4F4F4F5F4F298F3A8F4B8F5C8F12
:104100002D8D3E8D2C5F3F4F3E8F2D8F0CCF6EE05F
:1041100070E0C1010E941445AF8DB8A11B969C931D
:104120008E931A97812C912CA12CB12CC12CD12CBF
:1041300024E4249DC001259D900D11249C0125534C
:10414000394F3A8B298B21E030E0A214B3040CF0F4
:104150004AC0D8014D915D916D917D918D01CA014B
:10416000E989FA89E080F180E80CF91C57FD63C009
:10417000D70111963C932E930097A1F02FA738AB4F
:104180004BA75CA76DA77EA70E942E45F7019583DC
:1041900084832FA538A94BA55CA56DA57EA5892B89
:1041A00031F449C0D70115961C921E921497F7015D
:1041B0005383428384819581978386839187808707
:1041C0001386128681E090E0452B462B472B11F495
:1041D00080E090E0C80ED91EFFEFAF1ABF0A4EE094
:1041E000840E911CB2CF84E4849D8001859D100DC6
:1041F00011240F53194FD8011D961C921E921C9723
:10420000C60133E0880F991F3A95E1F70E942E45C9
:10421000F801918B808B892B71F0C601880F991F53
:104220000E942E45D8011F969C938E931E97892B32
:1042300011F080E005C0A101C301B201FEDC81E004
:10424000E0960FB6F894DEBF0FBECDBFDF91CF91E1
:104250001F910F91FF90EF90DF90CF90BF90AF90A4
:104260009F908F907F906F905F904F903F902F9096
:1042700008952F923F924F925F926F927F928F920A
:104280009F92AF92BF92CF92DF92EF92FF920F93E5
:104290001F93CF93DF93CDB7DEB768970FB6F8942F
:1042A000DEBF0FBECDBF9C8B8B8BDB0149015A015A
:1042B00024E4289DC001299D900D11249C012F53B9
:1042C000394F79012D913C911197F701358B248B52
:1042D000FC01E952F94F14964D915D916D917C91DD
:1042E00017974083518362837383FC01E552F94F32
:1042F00018964D915D916D917C911B9740835183F0
:1043000062837383FC01E152F94F1C964D915D91DC
:104310006D917C911F974083518362837383FC016D
:10432000E151F94F50965C91509751964C915197AD
:1043300052963C91529753962C91539750834183B8
:10434000328323838D010C5E1F4F852F942F181607
:1043500019060CF068C0880F991F880F991F0E94DA
:104360002E45D701D3969C938E93D297892B09F42F
:10437000BCC0212C312C412C512C32019701225DE3
:104380003F4F3E8B2D8B2C5F3F4F388F2F8B2E5FF7
:104390003F4F3A8B298BB301A2012FEF421A520AE9
:1043A000620A720AED89FE8980819181A281B381BE
:1043B000481759076A077B074CF5AF89B88DCD9030
:1043C000DC90C20CD31CF801DE01119680E1019053
:1043D0000D928A95E1F7005F1F4FA601BE016F5F46
:1043E0007F4FEB89FC8984819581F7DAA989BA89A5
:1043F0008D919C911197F60122813381820F931F39
:104400008D939C93F4E02F0E311CC5CFD701D49629
:104410008D919C91D5970E942E45F70197AB86AB65
:10442000892B09F462C0F80180819181A281B38156
:1044300024E4289DF001299DF00D1124EF53F94F3C
:10444000AC01BD014D7F21E030E0452B462B472BD1
:1044500011F020E030E033A322A324E4289DF001F2
:10446000299DF00D1124EF53F94F0197A109B109CE
:1044700021E030E00297A105B10510F020E030E026
:1044800035A324A384E4889DF001899DF00D1124B7
:10449000CF018951994FD80114964D915D916D913D
:1044A0007C911797DC014D935D936D937C931397EB
:1044B000EF53F94F868D978DA0A1B1A1B7FF10C022
:1044C000B095A095909581959F4FAF4FBF4F82AF0C
:1044D00093AFA4AFB5AF168E178E10A211A20AC06B
:1044E00012AE13AE14AE15AE05C0C501B40109DAA3
:1044F00081E001C080E068960FB6F894DEBF0FBE81
:10450000CDBFDF91CF911F910F91FF90EF90DF9082
:10451000CF90BF90AF909F908F907F906F905F9063
:104520004F903F902F900895CF92DF92EF92FF929D
:10453000CF93DF931092490724E4269FF001279F31
:10454000F00D1124EF53F94F15A614A620E030E02A
:10455000C12CD12CDF011A96C1E0D0E0C416D506DB
:10456000D4F4ED91FC911197E20FF31FE280F380F8
:104570001E141F0454F4E480F580F782E682F1866D
:10458000E08613861286D183C083EFEFCE1ADE0A4F
:10459000225F3F4FE3CF24E4269FF001279FF00DD9
:1045A0001124EF53F94F13A612A611AE10AEDF017E
:1045B000DE961D921D921D921C92139782E090E050
:1045C000938B828BDF91CF91FF90EF90DF90CF9014
:1045D000089524E4269FF001279FF00D1124EF5346
:1045E000F94F138A128A29CB24E4269FF001279FD2
:1045F000F00D1124EF53F94F828993898130910591
:10460000C8F08530910518F0059769F008958FEF8F
:104610009FEFDC01828F938FA48FB58F85E090E0B0
:10462000938B828B08958FEF9FEFDC01828F938FA6
:10463000A48FB58F089524E4249FF001259FF00DE9
:104640001124EF53F94F2EE0AC01249FC001259FA8
:10465000900D11240284F385E02DE80FF91F81E00D
:10466000809349078285938591878087408551850E
:104670002681378181E090E04217530711F080E0F6
:1046800090E09183808308952F923F924F925F92A2
:104690006F927F928F929F92AF92BF92CF92DF9252
:1046A000EF92FF920F931F93CF93DF93CDB7DEB7B7
:1046B000C255D1090FB6F894DEBF0FBECDBF21960B
:1046C0009FAF8EAF21974BA75CA76DA77EA7480130
:1046D000590184E4889D8001899D100D1124F80101
:1046E000EF53F94F2285338527963FAF2EAF27979B
:1046F00082899389029709F060C186A597A5A0A930
:10470000B1A9892B8A2B8B2B29F484E090E0938B21
:10471000828B53C18489958921964EAD5FAD2197D7
:104720004817590709F049C186A997A99AAB89ABDF
:104730001EAE1DAE19AE1AAE1BAE1CAE8F01DF0150
:104740009E962996BFAFAEAF2997F2962B96FFAFF4
:10475000EEAF2B979801285C3F4F2D963FAF2EAFC1
:104760002D97A8014A5D5F4F2F965FAF4EAF2F97F1
:10477000C801829661969FAF8EAF61971A97639634
:10478000BFAFAEAF63972996EEADFFAD299780819D
:104790009181A281B38129AD3AAD4BAD5CAD2817B3
:1047A00039074A075B070CF0E7C02B96EEADFFAD6B
:1047B0002B97808191812DAD3EAD280F391F3EABE7
:1047C0002DABD90112960D90BC91A02D2396BFAFB1
:1047D000AEAF2397B695A795B695A7952596BFAF8B
:1047E000AEAF25972D96EEADFFAD2D9780819181CF
:1047F000892B09F496C02F96AEADBFAD2F97CD9003
:10480000DD90ED90FC9029A83AA8F9010190F08183
:10481000E02DF8ABEFA718AE1FAA8FA998AD25968B
:10482000AEADBFAD25978A179B070CF07AC0619695
:10483000AEADBFAD61978D919C91892B69F1EFA5CC
:10484000F8A94080518062807380A7019601C3015E
:10485000B2010E94E34387FD0BC0A7019601D1017D
:104860006D917D918D919C910E94F34187FD8CC04B
:10487000A7019601C301B2010E94E343181664F434
:10488000A7019601F10160817181828193810E946B
:10489000F341882309F478C06396AEADBFAD63974A
:1048A0008D919C91892B69F1EFA5F8A940805180E9
:1048B00062807380A7019601C301B2010E94F34197
:1048C00087FF0BC0A7019601D1016D917D918D915C
:1048D0009C910E94E34387FF57C0A7019601C30143
:1048E000B2010E94F34181110CC0A7019601F101B0
:1048F00060817181828193810E94E34318160CF4D8
:1049000043C02FA938AD2F5F3F4F38AF2FAB34E0F6
:10491000230E311C4FA558A94C5F5F4F58AB4FA7D2
:104920007CCFEDA9FEA96081718123964EAD5FAD6C
:10493000239789A99AA90E945B4625968EAD9FADC3
:104940002597880F991F880F991F29A93AA9280F21
:10495000391F3AAB29AB89AD9AADABADBCAD019671
:10496000A11DB11D89AF9AAFABAFBCAFADADBEADB0
:104970001496BEAFADAF07CF81E090E0D801D996D5
:104980009C938E93D89719C084E4889DF001899DEB
:10499000F00D1124EF53F94F868D978DA0A1B1A191
:1049A000892B8A2B8B2B09F064C284E090E0938BD7
:1049B000828B86AD97AD93A782A784E4889DF00192
:1049C000899DF00D1124EF53F94F8289938982302C
:1049D000910571F482AD93ADA4ADB5AD181619066D
:1049E0001A061B060CF04CC2CC24C394D12C05C073
:1049F000049709F045C2C12CD12C8EE02196EEAD72
:104A0000FFAD21978E9F70018F9FF00C1124279688
:104A10002EAD3FAD2797E20EF31ED70112964D91B2
:104A20005C9113974115510509F42AC216968D9190
:104A30009C9117979AA789A7FE01319684E1DF011F
:104A40001D928A95E9F7898A9A8AAB8ABC8AC11431
:104A5000D10409F457C084E4889DF001899DF00DCC
:104A60001124EF53F94FDF01DE964D905D906D906C
:104A70007C9082AD93ADA4ADB5AD481659066A06DB
:104A80007B0609F03FC0F701648175810084F185E0
:104A9000E02D84819581A681B7819C018D8B9E8BB1
:104AA000AF8BB88F285F3F4F3E8B2D8BD701189669
:104AB0008D919C911997280F391F19963C932E932D
:104AC000189718968D919C911997460F571F841B24
:104AD000950B97FD06C0860F971F19969C938E9392
:104AE000189784E4889DF001899DF00D1124E15010
:104AF000F94FB1E04B1A51086108710840825182A8
:104B0000628273829E012B5E3F4FAE01475D5F4F15
:104B100064E170E0C7010E94181C082F10E0011525
:104B2000110509F091C18CE090E0A0E0B0E08D8328
:104B30009E83AF83B8879E01235E3F4FAE01475DE2
:104B40005F4F64E070E0C7010E94181C082F10E05E
:104B50000115110509F078C180E190E0A0E0B0E016
:104B60008D839E83AF83B8874D8D5E8DBE01655D5D
:104B70007F4F8F8D98A10E945B468BA19CA10097CF
:104B800061F06D8D7E8DEBE2F0E0EC0FFD1F6E0F9E
:104B90007F1F49A15AA10E945B461DA21EA21FA20F
:104BA00018A621962EAD3FAD2197220F331F38AFA7
:104BB0002FAB24E4289DC001299D900D11248F5313
:104BC000994FAC014C5F5F4F5AAF49AFDC0118966B
:104BD000BEAFADAF2DA13EA14FA158A529AB3AABB9
:104BE0004BAB5CABE9ADFAAD80819181A281B38121
:104BF000281739074A075B070CF0CFC0ADADBEAD33
:104C0000ED91FC9189A99AA9880F991F880F991F86
:104C1000E80FF91FA081B1818C91882309F4AFC0FE
:104C2000833009F4ACC00280F381E02D2FA938ADA8
:104C3000E20FF31F4081518158AB4FA7452B09F478
:104C40009EC089859A85AB85BC850196A11DB11D45
:104C500089879A87AB87BC879E01235E3F4FAE0151
:104C6000475D5F4F64E070E0C7010E94181C90E050
:104C7000009709F0E8C08D819E81AF81B8850496C8
:104C8000A11DB11D8D839E83AF83B8874D8D5E8D31
:104C9000BE016B5D7F4F8F8D98A10E945B468BA1FB
:104CA0009CA1009761F06D8D7E8DA5E2B0E0AC0F08
:104CB000BD1F6A0F7B1F49A15AA10E945B461EAA15
:104CC0001DAA412C512C3201EFA5F8A980819181B8
:104CD000A281B381481659066A067B060CF04FC0C4
:104CE000EFA5F8A9248035802DA93EA9220E331EF8
:104CF000D10112966D917C9113979E01235E3F4FD7
:104D0000AE01475D5F4FC7010E94181C90E00097FD
:104D100009F099C0F10182819381092E000CAA0B40
:104D2000BB0B4D815E816F817885840F951FA61F17
:104D3000B71F8D839E83AF83B887608171814D8D4E
:104D40005E8D8F8D98A10E945B468BA19CA10097E0
:104D500059F0D1016D917C912D8D3E8D620F731FA5
:104D600049A15AA10E945B46BFEF4B1A5B0A6B0A2E
:104D70007B0AEDA9FEA93496FEABEDABA5CF49A801
:104D80005AA86BA87CA8FFEF4F1A5F0A6F0A7F0A28
:104D90004DA25EA26FA278A61DCF89859A85AB85AC
:104DA000BC85892B8A2B8B2B09F44EC08AE190E0BD
:104DB000A0E0B0E089839A83AB83BC8321962EADBB
:104DC0003FAD2197C901330FAA0BBB0B8D879E877F
:104DD000AF87B88B4D895E89BE016F5F7F4F8F892A
:104DE000988D0E945B468B8D9C8D009761F06D893C
:104DF0007E8941E050E04C0F5D1F640F751F498DA7
:104E00005A8D0E945B4689A59AA5D70117969C9357
:104E10008E93169711961C921E92CD2889F184E4E8
:104E2000889DF001899DF00D1124E150F94F80819A
:104E30009181A281B3810196A11DB11D80839183CF
:104E4000A283B3831DC08C01CD28D1F4012BC1F006
:104E500084E4889DF001899DF00D1124EF53F94FF2
:104E600081E090E095A784A785E090E0938B828B0A
:104E700007C083E090E0938B828B81E090E09BCD34
:104E8000CE5ADF4F0FB6F894DEBF0FBECDBFDF9115
:104E9000CF911F910F91FF90EF90DF90CF90BF9037
:104EA000AF909F908F907F906F905F904F903F90CA
:104EB0002F900895CF92DF92EF92FF920F931F935E
:104EC0006B017C0184E48C9DF0018D9DF00D11241B
:104ED000EF53F94F82899389009709F450C00197E5
:104EE000B9F482A593A59C012F5F3F4F33A722A75A
:104EF000092E000CAA0BBB0B028D138D248D358D52
:104F000080179107A207B307D1F5C701B6010CDBE3
:104F100084E48C9DF0018D9DF00D1124EF53F94F29
:104F200082899389039759F582A593A59C012F5FE8
:104F30003F4F33A722A7092E000CAA0BBB0B468DAF
:104F4000578D60A171A184179507A607B707BCF01C
:104F500086AD97AD93A782A784E090E0938B828B78
:104F600082AD93ADA4ADB5AD181619061A061B0691
:104F700034F4EE5BFF4F81E090E0918380831F91DA
:104F80000F91FF90EF90DF90CF90089524E4269F3B
:104F9000F001279FF00D1124EF53F94F8289938977
:104FA0000497B1F482A593A5019693A782A7092E31
:104FB000000CAA0BBB0B46895789608D718D841735
:104FC0009507A607B70721F485E090E0938B828BC5
:104FD00008952F923F924F925F926F927F928F929D
:104FE0009F92AF92BF92CF92DF92EF92FF920F9378
:104FF0001F93CF93DF93CDB7DEB72E970FB6F894FC
:10500000DEBF0FBECDBF49835A836B837C834901CA
:10501000442E552E24E4249DF001259DF00D1124ED
:10502000EF53F94F228833889101245031091586B6
:1050300014862230310508F0DDC0DC0111961C9287
:105040001E9213961C921E921297A12CB12C60E016
:1050500070E09F01265F3F4F38872F837F013CE040
:10506000E30EF11CDF015096BA87A9879F01225FEA
:105070003F4F3C872B87681579050CF06FC0EF8197
:10508000F885A081B1819D012A0D3B1D3E872D87AA
:10509000D9012D913C911197232B09F059C01896F5
:1050A0000D911C9119971296ED91FC911397FE8327
:1050B000ED8316962D913C911797D7014D915C91F8
:1050C000DA01E3E0AA0FBB1FEA95E1F7E985FA856B
:1050D000C080D180FD01EC0DFD1D440F551FAB8537
:1050E000BC85CD90DC904C0D5D1DDA016D937C93F9
:1050F000D7014D915C9111974F5F5F4F4D935C933A
:1051000013830283AD85BE851B963C932E931A971D
:105110000217130748F4201B310B318320831582BB
:1051200014821782168214C0AD85BE851496CD9068
:10513000DC9015974D815E814C0D5D1D401B510B20
:10514000518340832C193D0935832483D782C6823D
:105150006F5F7F4FBEE0AB0EB11C8DCF24E4249D6A
:105160008001259D100D11240F53194FF80124853E
:105170003585DC0111963C932E9340895189139615
:105180005C934E9312974685578515965C934E9384
:105190001497232BA1F5B5E02B16310481F510925D
:1051A0004907828D938DA48DB58DAE014F5F5F4F02
:1051B00064E070E08F3F9F4FAF4FBF4F59F480E2E4
:1051C00090E00E94CE3869817A818B819C81A40114
:1051D00000DA15C08FE190E00E94CE38D8019B968E
:1051E0001C921E929A9781E090E053969C938E9326
:1051F000529705C0FC0111821082138212822E96F2
:105200000FB6F894DEBF0FBECDBFDF91CF911F91D7
:105210000F91FF90EF90DF90CF90BF90AF909F9055
:105220008F907F906F905F904F903F902F90089558
:10523000EF92FF920F931F93CF93DF937C018B012B
:10524000EA010E945139811121C080918E03909111
:105250008F03049711F183E090E090938F03809384
:105260008E031BC098819111F0CF28ED38EB45E0FB
:1052700050E060E070E0CB010E94DB3BAE01B80182
:10528000C7010E94E93BC8010E94B43B80914A07D4
:1052900090914B07892B31F3D8CFDF91CF911F919C
:1052A0000F91FF90EF900895CF93DF9320918E039D
:1052B00030918F032430310541F0EB010E94E93B2E
:1052C000CE01DF91CF910C94B43BDF91CF91089543
:1052D0000C94FC3F0C94F13F0C94DF3F0C94C43BC6
:1052E0000C94833F089560E070E080E090E00C94BF
:1052F0002C390895AF92BF92CF92DF92EF92FF9236
:105300000F931F93CF93DF931F921F92CDB7DEB7FA
:105310005C0169017A018B0180E090E0C114D10445
:10532000E104F104F1F0C114D10421E0E206F1043A
:1053300010F4A60102C04FEF5FEF9E012F5F3F4FB9
:10534000B801C5010E949D408F3F2FEF920749F0A1
:1053500029813A81C21AD30AE108F108020F131F0A
:10536000DDCF0F900F90DF91CF911F910F91FF90A4
:10537000EF90DF90CF90BF90AF900895089508957B
:10538000883008F070C0A82FB0E0AA0FBB1FA0574C
:10539000BC4F11967C936E9390E0FC013197E730FF
:1053A000F105A0F58827EE58FF4F8F4F0C94F84475
:1053B000809169008C7F482B40936900E89A08959A
:1053C00080916900440F551F440F551F837F482B60
:1053D00040936900E99A08958091690074E0440F50
:1053E000551F7A95E1F78F7C482B40936900EA9A24
:1053F00008958091690066E0440F551F6A95E1F7B2
:105400008F73482B40936900EB9A089580916A004E
:105410008C7F482B40936A00EC9A089580916A0033
:10542000440F551F440F551F837F482B40936A003C
:10543000ED9A089580916A0024E0440F551F2A9543
:10544000E1F78F7C482B40936A00EE9A0895809193
:105450006A0096E0440F551F9A95E1F78F73482B29
:1054600040936A00EF9A08951F920F920FB60F9221
:1054700011240BB60F922F933F934F935F936F932B
:105480007F938F939F93AF93BF93EF93FF93E0919D
:105490009403F09195031995FF91EF91BF91AF910E
:1054A0009F918F917F916F915F914F913F912F913C
:1054B0000F900BBE0F900FBE0F901F9018951F926C
:1054C0000F920FB60F9211240BB60F922F933F93AA
:1054D0004F935F936F937F938F939F93AF93BF93FC
:1054E000EF93FF93E0919603F09197031995FF9145
:1054F000EF91BF91AF919F918F917F916F915F914C
:105500004F913F912F910F900BBE0F900FBE0F90B8
:105510001F9018951F920F920FB60F9211240BB681
:105520000F922F933F934F935F936F937F938F933C
:105530009F93AF93BF93EF93FF93E0919803F09104
:1055400099031995FF91EF91BF91AF919F918F9121
:105550007F916F915F914F913F912F910F900BBE73
:105560000F900FBE0F901F9018951F920F920FB6BD
:105570000F9211240BB60F922F933F934F935F938B
:105580006F937F938F939F93AF93BF93EF93FF930B
:10559000E0919A03F0919B031995FF91EF91BF91D0
:1055A000AF919F918F917F916F915F914F913F91BB
:1055B0002F910F900BBE0F900FBE0F901F9018955C
:1055C0001F920F920FB60F9211240BB60F922F93CA
:1055D0003F934F935F936F937F938F939F93AF937B
:1055E000BF93EF93FF93E0919003F091910319958E
:1055F000FF91EF91BF91AF919F918F917F916F91AB
:105600005F914F913F912F910F900BBE0F900FBE66
:105610000F901F9018951F920F920FB60F921124A2
:105620000BB60F922F933F934F935F936F937F939C
:105630008F939F93AF93BF93EF93FF93E091920368
:10564000F09193031995FF91EF91BF91AF919F91C5
:105650008F917F916F915F914F913F912F910F901B
:105660000BBE0F900FBE0F901F9018951F920F92B8
:105670000FB60F9211240BB60F922F933F934F93B7
:105680005F936F937F938F939F93AF93BF93EF93AA
:10569000FF93E0919C03F0919D031995FF91EF9189
:1056A000BF91AF919F918F917F916F915F914F913A
:1056B0003F912F910F900BBE0F900FBE0F901F9038
:1056C00018951F920F920FB60F9211240BB60F92DE
:1056D0002F933F934F935F936F937F938F939F93FA
:1056E000AF93BF93EF93FF93E0919E03F0919F03DD
:1056F0001995FF91EF91BF91AF919F918F917F91FC
:105700006F915F914F913F912F910F900BBE0F9032
:105710000FBE0F901F9018951F920F920FB60F9209
:1057200011242F933F938F939F93AF93BF938091B7
:105730004D0790914E07A0914F07B09150073091BF
:105740004C0723E0230F2D3720F40196A11DB11D36
:1057500005C026E8230F0296A11DB11D20934C071A
:1057600080934D0790934E07A0934F07B093500737
:105770008091510790915207A0915307B09154071F
:105780000196A11DB11D8093510790935207A093DC
:105790005307B0935407BF91AF919F918F913F9161
:1057A0002F910F900FBE0F901F9018952FB7F89460
:1057B00060914D0770914E0780914F07909150076F
:1057C0002FBF08953FB7F8948091510790915207E9
:1057D000A0915307B091540726B5A89B05C02F3F51
:1057E00019F00196A11DB11D3FBFBA2FA92F982F07
:1057F0008827820F911DA11DB11DBC01CD0142E082
:10580000660F771F881F991F4A95D1F708958F92C9
:105810009F92AF92BF92CF92DF92EF92FF926B0175
:105820007C01D0DF4B015C01C114D104E104F1041F
:10583000F1F0A4DDC7DFDC01CB0188199909AA09C1
:10584000BB09883E9340A105B10570F321E0C21A5F
:10585000D108E108F10888EE880E83E0981EA11CAB
:10586000B11CC114D104E104F10421F7DDCFFF9094
:10587000EF90DF90CF90BF90AF909F908F90089562
:10588000789484B5826084BD84B5816084BD85B51B
:10589000826085BD85B5816085BDEEE6F0E08081E2
:1058A00081608083E1E8F0E0108280818260808303
:1058B000808181608083E0E8F0E080818160808386
:1058C000E1EBF0E0808184608083E0EBF0E08081B8
:1058D00081608083E1E9F0E0808182608083808163
:1058E00081608083E0E9F0E0808181608083E1EA8B
:1058F000F0E0808182608083808181608083E0EA43
:10590000F0E0808181608083E1E2F1E0808182606B
:105910008083808181608083E0E2F1E0808181602A
:105920008083EAE7F0E08081846080838081826008
:1059300080838081816080838081806880831092F1
:10594000C1000895863308F0865390917B00282F7C
:105950002870977F922B90937B0087702091A003F3
:1059600090E4299F90011124822B80937C008091E8
:105970007A00806480937A0080917A0086FDFCCF63
:10598000809178002091790090E0922B08951F93E8
:10599000CF93DF93182FEB0161E016D1209711F41C
:1059A00060E004C0CF3FD10531F461E0812FDF9189
:1059B000CF911F9145C1E12FF0E0E858FE4FE491EF
:1059C0004E2F50E0FA013197E231F10508F09DC009
:1059D0008827E758FF4F8F4F0C94F84484B58068B0
:1059E00084BDC7BD97C084B5806284BDC8BD92C068
:1059F00080918000806880938000D0938900C0935C
:105A0000880088C080918000806280938000D0935D
:105A10008B00C0938A007EC0809180008860809354
:105A20008000D0938D00C0938C0074C08091B00032
:105A300080688093B000C093B3006CC08091B000C8
:105A400080628093B000C093B40064C080919000E5
:105A5000806880939000D0939900C09398005AC0BA
:105A600080919000806280939000D0939B00C093BF
:105A70009A0050C080919000886080939000D093ED
:105A80009D00C0939C0046C08091A00080688093D8
:105A9000A0008091A0008F7B8093A000D093A900EC
:105AA000C093A80037C08091A00080628093A000BE
:105AB000D093AB00C093AA002DC08091A000886055
:105AC0008093A000D093AD00C093AC0023C0809120
:105AD0002001806880932001D0932901C093280180
