:10000000C7C100000C94AF210C94DA210C94052296
:100010000C9430220C945B220C9486220C94B12216
:100020000C94DC220C94350A0C94090B0C94460BAE
:10003000E0C100000C944E2ADCC10000DAC10000CF
:10004000D8C10000D6C10000D4C10000D2C1000058
:10005000D0C10000CEC10000CCC100000C94072329
:10006000C8C100000C94E5260C941B27C2C10000F7
:10007000C0C10000BEC10000BCC10000BAC1000088
:10008000B8C10000B6C10000B4C10000B2C1000098
:100090000C9471270C94A727ACC10000C7C30000C3
:1000A000A8C10000A6C10000A4C10000A2C10000B8
:1000B000A0C100009EC100009CC100009AC10000C8
:1000C00098C1000096C100000C94D72A0C94FD271B
:1000D0000C9433288EC100000C9489280C94BF28FE
:1000E00088C10000892153215B216721742195215A
:1000F000A22169246E2473247D2487240025912461
:100100009924A124AB24B524BF24CE24D8240025CF
:10011000E224EC24F6242425272516251A2520255B
:100120005E252B252F25352539253D2543254725BA
:100130004B255E25512555255925E932A734113522
:100140001435EB331E34A832C9328C32EE34DD3430
:10015000EA34143514351435773205A84CCDB2D4B1
:100160004EB93836A9020C50B9918688083CA6AA27
:10017000AA2ABE000000803F00000A0B02090C0DF5
:100180000E0807030401000000000000000000004A
:10019000000000000000000000000000000000005F
:1001A000000000001211100000000000000000001C
:1001B000000000000000000000000000000001023C
:1001C0001020200808102040102040800201020169
:1001D0000804020101020408102040808040201021
:1001E000080402018004020180402010080402017A
:1001F00008040201010204081020408001020408E2
:1002000010204080050505050705080808080202BA
:1002100002020A0A080804040404010101010101A0
:1002200001010303030303030303040707070C0C83
:100230000C0C0C0C0C0C020202020606060606064A
:1002400006060B0B0B0B0B0B0B0B00002200250003
:1002500028002B002E0031003400020100000501AF
:1002600008010B0100002100240027002A002D00B6
:100270003000330001010000040107010A010200FF
:100280001D3A2774694E53E8F5D2CF9C81A6BBCDA9
:10029000D0F7EAB9A4839E25381F02514C6B7687AC
:1002A0009ABDA0F3EEC9D46F7255481B06213C4A93
:1002B00057706D3E230419A2BF9885D6CBECF1137D
:1002C0000E2934677A5D40FBE6C1DC8F92B5A8DE6B
:1002D000C3E4F9AAB7908D362B0C11425F78659470
:1002E00089AEB3E0FDDAC77C61465B0815322F5951
:1002F00044637E2D30170AB1AC8B96C5D8FFE22639
:100300003B1C01524F6875CED3F4E9BAA7809DEB30
:10031000F6D1CC9F82A5B8031E3924776A4D50A12F
:10032000BC9B86D5C8EFF24954736E3D20071A6C0A
:1003300071564B1805223F8499BEA3F0EDCAD735FC
:10034000280F12415C7B66DDC0E7FAA9B4938EF8F2
:10035000E5C2DF8C91B6AB100D2A3764795E43B2EB
:10036000AF8895C6DBFCE15A47607D2E3314097FC8
:100370006245580B16312C978AADB0E3FED9C40004
:100380001F0325082B094427D0275C28E828542977
:1003900011241FBECFEFD1E2DEBFCDBF00E00CBF06
:1003A00014E0A0E0B2E0E6E6F7E700E00BBF02C031
:1003B00007900D92A03BB107D9F72BE0A0EBB4E07A
:1003C00001C01D92A131B207E1F711E0C8ECD1E004
:1003D00000E006C021970109802FFE010E94353AF6
:1003E000C03CD10780E00807A9F70E949C360C9416
:1003F000B13B06CE8091E00490E02091E104821BA5
:10040000910908959091E1048091E004981750F4C7
:10041000E92FF0E0EE51FB4F208130E09F5F909399
:10042000E10402C02FEF3FEFC9010895E091E1041C
:100430008091E004E81730F4F0E0EE51FB4F80814A
:1004400090E008958FEF9FEF08950895CF92DF9287
:10045000EF92FF920F931F93CF93DF937C01262F90
:10046000972F8A018091BC04882391F0C62FD72F43
:100470006E01C40ED51ECC15DD0569F06991D7015A
:10048000ED91FC910190F081E02DC7011995F3CF1A
:10049000642F822F93D1C801DF91CF911F910F91CB
:1004A000FF90EF90DF90CF900895CF93DF931F924E
:1004B000CDB7DEB769832091BC042223D1F020910F
:1004C000BD04203240F021E030E0FC013383228380
:1004D00080E090E014C08091BE04E82FF0E0E15489
:1004E000FB4F998190838F5F8093BE048093BD04FE
:1004F00004C061E0CE01019661D181E090E00F90EF
:10050000DF91CF910895FC011382128288EE93E06F
:10051000A0E0B0E084839583A683B78382E493E070
:100520009183808308951092E1041092E004109268
:10053000BE041092BD0486C081E08093BC04609329
:10054000DF041092BE041092BD040895F5CF0F93FE
:10055000062F21E04091BD046FEB74E08091DF0431
:10056000D7D01092BE041092BD041092BC040F911B
:1005700008954F925F926F927F92AF92BF92CF9207
:10058000EF92FF920F931F93CF93DF935C01F62EB0
:10059000D42F28013901EE2011F1CEDFCE2DC43049
:1005A00008F0C3E0C150C0F0D501ED91FC91B8E076
:1005B000CB9FC0011124A301920104C05695479519
:1005C000379527958A95D2F7CA01B9010190F08134
:1005D000E02DC5011995E6CF60E0C501B8DF4D2FCC
:1005E000D13208F040E22C2D62EE74E08F2D48D01D
:1005F0001092E1048093E004DF91CF911F910F915D
:10060000FF90EF90CF90BF90AF907F906F905F90F2
:100610004F900895CF92EF920F931F93C22EE12C2B
:1006200000E010E09801A5DF1F910F91EF90CF90AF
:10063000089521E0EFCF21E0EDCF61E088CF80EB9E
:1006400094E061CF10926F0581E080936D05109268
:100650006C0561E084E10E949B2561E085E10E94D8
:100660009B25E9EBF0E080818E7F808380818D7F08
:10067000808388E48093B80085E48093BC0008956B
:10068000413208F043C090916F059111FCCF91E089
:1006900090936F0520936D052FEF20930205109224
:1006A0004705240F2093460590936E0590916E05A3
:1006B000880F892B80936E0580916C05813061F4E1
:1006C00010926C0580916E058093BB008091BC00F8
:1006D00083FDF8CF85EC01C085EE8093BC0080914E
:1006E0006F058130E1F380914705841710F4409144
:1006F000470528E435E0FB01D9018A2F821B8417C6
:1007000018F48D918193F9CF842F089580E0089596
:100710000F93413208F04AC090916F059111FCCFC0
:1007200032E030936F0500936D053FEF3093020583
:100730001092470540934605FB0168E475E0DB0134
:100740003A2F361B341718F431913D93F9CF10929C
:100750006E0530916E05880F832B80936E05809116
:100760006C05813061F410926C0580916E05809368
:10077000BB008091BC0083FDF8CF85EC01C085EE05
:100780008093BC00222321F080916F058230D1F349
:10079000809102058F3F79F080910205803241F00F
:1007A00080910205803331F094E005C091E003C0F0
:1007B00092E001C093E0892F0F91089540912405A4
:1007C000262F30E0240F311D21323105DCF4209139
:1007D0006F052430C9F4FC0180E090E0861758F4DE
:1007E000309124052191DC01AA5DBA4FA30FB11D00
:1007F0002C930196F3CF80912405680F6093240514
:1008000080E0089581E0089582E0089585ED809369
:10081000BC008091BC0084FDFCCF10926F05089550
:1008200085EC8093BC0010926F0508951F920F9283
:100830000FB60F9211240BB60F922F933F934F9345
:100840005F936F937F938F939F93AF93BF93EF9338
:10085000FF938091B900887F803609F49DC070F5C0
:10086000883209F45CC090F4803109F455C038F442
:10087000882309F4F3C0883009F44EC0F2C08831EF
:1008800009F44DC0803209F45EC0EBC0803409F435
:1008900069C050F4803309F456C0883309F0E1C0D0
:1008A00080930205BDDFDDC0803509F44FC0883577
:1008B00009F45DC0883409F0D4C0D2C0883909F485
:1008C000C3C0A8F4883709F467C038F4883609F43F
:1008D00063C0803709F460C0C4C0883809F4B4C06C
:1008E000803909F45FC0803809F0BBC05BC0803B31
:1008F00009F482C038F4803A09F466C0883A09F4F1
:100900007BC0AFC0803C09F4A3C0883C09F4A0C000
:10091000883B09F486C0A5C080916E0510C09091F7
:10092000470580914605981770F5E091470581E0ED
:100930008E0F80934705F0E0E85BFA4F808180934B
:10094000BB0085EC82C0809302058AC0E091470518
:1009500081E08E0F809347058091BB00F0E0E85B5B
:10096000FA4F808390914705809146056AC0E091D7
:10097000470581E08E0F809347058091BB00F0E032
:10098000E85BFA4F808380916D05811169C081E039
:1009900080936C0584EA5DC083E080936F051092BC
:1009A0000305CFCF80910305803208F04DC0E09160
:1009B000030581E08E0F809303058091BB00F0E07A
:1009C000EC5FFA4F8083BDCF2BDF8091030580322F
:1009D00030F4E0910305F0E0EC5FFA4F1082609193
:1009E000030570E0E0916805F091690584E095E009
:1009F00019951092030535C084E080936F0510921D
:100A0000250510922405E0916A05F0916B05199572
:100A100080912405811105C081E080932405109206
:100A20002605E091250581E08E0F80932505F0E0F5
:100A3000EA5DFA4F80818093BB00909125058091FB
:100A40002405981708F47DCF85E88093BC0009C081
:100A500085EC8093BC0010926F0503C010920205D4
:100A6000D5DEFF91EF91BF91AF919F918F917F91D3
:100A70006F915F914F913F912F910F900BBE0F900F
:100A80000FBE0F901F901895EF92FF920F931F9338
:100A9000CF93DF931F921F92CDB7DEB7062F142F8F
:100AA000682F80EB94E029833A8346DD602F80EB4A
:100AB00094E0FBDC2981022FE22E3A81F32E8E2D69
:100AC000801B811738F4F70161917F0180EB94E07E
:100AD000ECDCF5CF80EB94E0B0DD91E0811190E0AB
:100AE000892F0F900F90DF91CF911F910F91FF9061
:100AF000EF900895CF93DF931F92CDB7DEB7498370
:100B00009E012F5F3F4F41E0BFDF0F90DF91CF91FC
:100B100008952F923F924F925F926F927F928F92A1
:100B20009F92AF92BF92CF92DF92EF92FF920F937C
:100B30001F93CF93DF9300D01F921F92CDB7DEB7E4
:100B4000F82EE62E242E69010E9451234B015C01F0
:100B5000312C1D82822D90E09C838B832801612C97
:100B6000712C321408F04DC06F2D80EB94E0E4DC62
:100B70006E2D80EB94E099DC80EB94E05EDD6F2DD0
:100B800080EB94E0D9DC4B815C81431951094132FF
:100B9000510514F040E250E06F2D80EB94E049DD08
:100BA00080EB94E027DC892B11F10115110591F4FC
:100BB000F6012D81E20FF11D27FDFA95FA83E983F5
:100BC00080EB94E01FDCE981FA8180832D812F5F27
:100BD0002D83E6CF0E945123DC01CB0188199909AE
:100BE000AA09BB0984159505A605B70508F380EB8E
:100BF00094E023DD822D40E2421508F480E2380EB5
:100C0000B0CF01151105D1F00E945123DC01CB01B9
:100C100088199909AA09BB0920E030E080179107DB
:100C2000A207B30758F0822D90E0ED812E2FEE0F32
:100C3000330B2817390714F42FEF2D838D810F9074
:100C40000F900F900F900F90DF91CF911F910F9108
:100C5000FF90EF90DF90CF90BF90AF909F908F90DC
:100C60007F906F905F904F903F902F9008950F93DB
:100C70001F9389019A0141E04CDF1F910F91089564
:100C8000EF92FF920F931F93CF93DF931F92CDB7F5
:100C9000DEB7182F062FF42EE22E20910A02309193
:100CA0000B02AE014F5F5F4FE2DF9981EE2041F012
:100CB00041E050E001C0440FFA94EAF7492B09C023
:100CC00021E030E0A90101C0440FFA94EAF7409511
:100CD00049234983602F812F0DDF0F90DF91CF9142
:100CE0001F910F91FF90EF900895DF92EF92FF9286
:100CF0000F931F93CF93DF931F92CDB7DEB7182FBB
:100D0000F62EE42ED22E20910A0230910B02AE0173
:100D10004F5F5F4FACDF882319F1EE2DF0E0ED1946
:100D2000F109319621E030E002C0220F331FDA943E
:100D3000E2F7215031090E2E01C0220F0A94EAF782
:100D4000802F01C0880FEA95EAF7422F40959981DC
:100D500049232823422B49836F2D812FCBDE01C0ED
:100D600080E00F90DF91CF911F910F91FF90EF9056
:100D7000DF90089528E6FC01208308950F93062F45
:100D800023E042E06AE1FC018081AFDF0F9108952A
:100D90000F93062F22E044E06BE1FC018081A5DF88
:100DA0000F9108950F93062F22E044E06CE1FC01BF
:100DB00080819BDF0F9108950F931F93CF93DF9353
:100DC000EC0100910A0210910B029C012F5F3F4F32
:100DD00042E06BE388819DDE298130E0322F2227BB
:100DE0008A81A901482BCA01DF91CF911F910F91F0
:100DF00008950F931F93CF93DF93EC0100910A02A4
:100E000010910B029C012F5F3F4F42E06DE3888100
:100E100080DE298130E0322F22278A81A901482BE8
:100E2000CA01DF91CF911F910F9108950F931F93E6
:100E3000CF93DF93EC0100910A0210910B029C0109
:100E40002F5F3F4F42E06FE3888163DE298130E00E
:100E5000322F22278A81A901482BCA01DF91CF9125
:100E60001F910F9108950F931F93CF93DF93EC0180
:100E700000910A0210910B029C012F5F3F4F42E04C
:100E800061E4888146DE298130E0322F22278A8181
:100E9000A901482BCA01DF91CF911F910F910895AD
:100EA0000F931F93CF93DF93EC0100910A021091EF
:100EB0000B029C012F5F3F4F42E063E4888129DEF3
:100EC000298130E0322F22278A81A901482BCA01CB
:100ED000DF91CF911F910F9108950F931F93CF939F
:100EE000DF93EC0100910A0210910B029C012F5F2D
:100EF0003F4F42E065E488810CDE298130E0322FEB
:100F000022278A81A901482BCA01DF91CF911F9125
:100F10000F9108950F931F93CF93DF93EC010091EE
:100F20000A0210910B029C012F5F3F4F42E067E4E1
:100F30008881EFDD298130E0322F22278A81A901C3
:100F4000482BCA01DF91CF911F910F910895262F51
:100F500046E06BE6FC01808193CE0F93062F23E0E1
:100F600042E06BE6FC018081C0DE0F910895CF93D3
:100F7000DF93EC0161E0F1DF60E0CE0109DF60E0CA
:100F8000CE0110DF60E0CE01DF91CF91E0CF80EBAA
:100F900094E0C9DA80E795E0EADF20E045E06AE620
:100FA00088E66EDE21E041E067E388E669DE20E066
:100FB00046E06BE688E664CECF93DF93EC0180E7F2
:100FC00095E0FADE9983888380E795E012DF9B83C2
:100FD0008A8380E795E02ADF9D838C83DF91CF9120
:100FE0000895CF93DF931F92CDB7DEB7682F80EBC4
:100FF00094E0698398DA698180E795E0BFDE80E755
:1010000095E00F90DF91CF91B2CFCF93DF93EC01BA
:1010100080E795E045DF9983888380E795E05DDF91
:101020009B838A8380E795E075DF9D838C83DF91C6
:10103000CF910895CF93DF93EC0180E795E013DF24
:1010400099838883DF91CF91089580E795E092CED0
:10105000FC0180E090E0A0E8BFE380839183A2835D
:10106000B38384839583A683B78380879187A28780
:10107000B38708951F93CF93DF931F92CDB7DEB749
:10108000162F6EE170E080EB94E049835FDA612F08
:1010900080EB94E00ADA4981642F80EB94E005DA72
:1010A00080EB94E00F90DF91CF911F91C6CA462F3D
:1010B00062E0E0DF64E670E080E090E00C94822380
:1010C0001F93CF93DF93EC01162F65E070E080E073
:1010D00090E00E948223112319F060E0CE01E7DF47
:1010E00040E760E0CE01C6DF40EA61E0CE01C2DF4A
:1010F00040E062E0CE01DF91CF911F91BBCFDF9244
:10110000EF92FF920F931F93CF93DF937B01EA013E
:1011100089016EE170E080EB94E018DA63E080EB27
:1011200094E0C3D980EB94E088DA6EE170E080EB64
:1011300094E00CDA46E050E06EE170E080EB94E081
:101140007ADA80EB94E056D9069761F580EB94E06B
:1011500059D9D82E80EB94E055D9E0E0F0E0FD2D90
:101160008E2B9F2BF7019183808380EB94E04AD9EB
:10117000F82E80EB94E046D960E070E07F2D862B5E
:10118000972BF8019183808380EB94E03BD9182F53
:1011900080EB94E037D920E030E0312F822B932B85
:1011A0009983888380EB94E0DF91CF911F910F9119
:1011B000FF90EF90DF9041CA80EB94E0B4D961E0FA
:1011C00085E895E07DDF20E045E06AE688E658DDC9
:1011D00021E041E067E388E653DD20E046E06BE68E
:1011E00088E64ECDCF93DF93EC012FE735E041E861
:1011F00055E063E875E085E895E081DF609183055F
:1012000070918405072E000C880B990B0E94D33730
:10121000688379838A839B836091810570918205BD
:10122000072E000C880B990B0E94D3376C837D83AB
:101230008E839F8360917F0570918005072E000C3F
:10124000880B990B0E94D337688779878A879B8799
:10125000DF91CF91089585E895E0FACE9CB195FB9A
:10126000882780F994FF03C081110FC002C0882332
:1012700061F08091A1059091A205A091A305B09184
:10128000A4050196A11DB11D0BC08091A1059091EF
:10129000A205A091A305B091A4050197A109B109E8
:1012A0008093A1059093A205A093A305B093A405F4
:1012B00008959CB194FB882780F995FF03C088238B
:1012C00079F002C081110CC08091A1059091A20516
:1012D000A091A305B091A4050196A11DB11D0BC05D
:1012E0008091A1059091A205A091A305B091A405BC
:1012F0000197A109B1098093A1059093A205A0933C
:10130000A305B093A405089599B193FB882780F9AC
:1013100092FF03C081110FC002C0882361F0809149
:10132000AF059091B005A091B105B091B2050196BD
:10133000A11DB11D0BC08091AF059091B005A0918A
:10134000B105B091B2050197A109B1098093AF052C
:101350009093B005A093B105B093B205089599B1EB
:1013600092FB882780F993FF03C0882379F002C09D
:1013700081110CC08091AF059091B005A091B1058D
:10138000B091B2050196A11DB11D0BC08091AF05B2
:101390009091B005A091B105B091B2050197A10956
:1013A000B1098093AF059093B005A093B105B093B8
:1013B000B20508952CB1822F807890E0880F892F94
:1013C000881F990B26FF03C0892B79F402C001976F
:1013D00061F48091BD059091BE05A091BF05B091CB
:1013E000C0050196A11DB11D0BC08091BD05909156
:1013F000BE05A091BF05B091C0050197A109B10933
:101400008093BD059093BE05A093BF05B093C00522
:1014100008952CB126FB882780F990E027FF03C0B0
:10142000019779F402C0892B61F48091BD059091F8
:10143000BE05A091BF05B091C0050196A11DB11DCB
:101440000BC08091BD059091BE05A091BF05B091E4
:10145000C0050197A109B1098093BD059093BE0510
:10146000A093BF05B093C00508951F920F920FB6C9
:101470000F9211242F933F934F935F936F937F931A
:101480008F939F93AF93BF9383B185FB992790F977
:10149000292F30E086FB882780F94091E1055091A3
:1014A000E2052417350779F5482F50E05093E00501
:1014B0004093DF05882359F0232B61F04091D90533
:1014C0005091DA056091DB057091DC0566C0213032
:1014D000310561F48091D9059091DA05A091DB0581
:1014E000B091DC050196A11DB11D35C04091D90513
:1014F0005091DA056091DB057091DC05415051098E
:10150000610971093FC03093E2052093E105213064
:10151000310551F58823A1F08091D9059091DA0524
:10152000A091DB05B091DC050196A11DB11D809352
:10153000D9059093DA05A093DB05B093DC0547C08D
:101540008091D9059091DA05A091DB05B091DC0579
:101550000197A109B1098093D9059093DA05A09369
:10156000DB05B093DC0527C04091D9055091DA0521
:101570006091DB057091DC0581110FC04F5F5F4FFB
:101580006F4F7F4F4093D9055093DA056093DB0589
:101590007093DC059923D9F00EC0415051096109BF
:1015A00071094093D9055093DA056093DB05709378
:1015B000DC0591110CC08091D9059091DA05A091BC
:1015C000DB05B091DC050196A11DB11D0BC080911A
:1015D000D9059091DA05A091DB05B091DC05019762
:1015E000A109B1098093D9059093DA05A093DB0591
:1015F000B093DC05BF91AF919F918F917F916F91D7
:101600005F914F913F912F910F900FBE0F901F90C0
:1016100018951F920F920FB60F9211248F939F93DC
:10162000AF93BF938091060181709091030190FF69
:1016300003C081110FC002C0813061F48091CB05DD
:101640009091CC05A091CD05B091CE050196A11D3C
:10165000B11D0BC08091CB059091CC05A091CD051B
:10166000B091CE050197A109B1098093CB05909364
:10167000CC05A093CD05B093CE05BF91AF919F91BE
:101680008F910F900FBE0F901F9018951F920F9281
:101690000FB60F9211248F939F93AF93BF938091B6
:1016A000030181709091060190FF03C0813079F4AD
:1016B00002C081110CC08091CB059091CC05A09106
:1016C000CD05B091CE050196A11DB11D0BC0809135
:1016D000CB059091CC05A091CD05B091CE05019799
:1016E000A109B1098093CB059093CC05A093CD05BA
:1016F000B093CE05BF91AF919F918F910F900FBE88
:101700000F901F9018950F931F93CF93DF938C0129
:101710008EE0809FE001819FD00D1124C356DA4FE7
:10172000798368835B834A838881998160E00E9422
:101730005F258A819B8160E00E945F258881998175
:1017400061E00E949B258A819B8161E00E949B252C
:101750000230110509F47FC044F401151105E9F0C8
:101760000130110509F448C0BEC00330110509F469
:10177000A6C00430110509F0B6C0809168008160F0
:101780008093680080916B00806280936B008091F1
:101790006B00806480936B00A6C080919D05909142
:1017A0009E0502978431910540F4FC01E25BFC4FF9
:1017B0008081082E000C990B02C08FEF9FEF41E053
:1017C00050E06EE279E00E943B2180919F0590916C
:1017D000A00502978431910540F4FC01E25BFC4FC7
:1017E0008081082E000C990B02C08FEF9FEF41E023
:1017F00050E069E579E05DC08091AB059091AC0562
:1018000002978431910540F4FC01E25BFC4F80813A
:10181000082E000C990B02C08FEF9FEF41E050E0C3
:1018200064E879E00E943B218091AD059091AE057E
:1018300002978431910540F4FC01E25BFC4F80810A
:10184000082E000C990B02C08FEF9FEF41E050E093
:101850006FEA79E02EC08091B9059091BA050297A0
:101860008431910540F4FC01E25BFC4F8081082E3D
:10187000000C990B02C08FEF9FEF41E050E06AED42
:1018800079E00E943B218091BB059091BC050297B5
:101890008431910540F4FC01E25BFC4F8081082E0D
:1018A000000C990B02C08FEF9FEF41E050E069E020
:1018B0007AE0DF91CF911F910F910C943B218091A1
:1018C00068008460809368008091680082608093E3
:1018D000680080916D00816080936D0080916C0044
:1018E000826080936C00DF91CF911F910F910895DA
:1018F0002EE0269FF001279FF00D1124E356FA4FAA
:1019000064817581868197810895CF92DF92EF92ED
:10191000FF926B017C0186E3C816D104E104F10457
:1019200028F486E3C80ED11CE11CF11C60E08C2D6C
:101930000E945F25C601FF90EF90DF90CF90089541
:101940000895CF93DF93EB010E941D249983888330
:10195000DF91CF91089508951F93CF93DF931F9246
:10196000CDB7DEB7162F61E0812F79830E945F2506
:10197000812F7981972F0F90DF91CF911F9108953B
:101980000895CF93C82FCB01BA010E94A0378C2FA6
:10199000CF910C944224662311F061E001C060E015
:1019A0000C945F25662311F061E001C060E00C94A7
:1019B0009B256F927F928F929F92AF92BF92CF9210
:1019C000DF92EF92FF920F931F93CF93DF93CDB7E8
:1019D000DEB762970FB6F894DEBF0FBECDBFCE0163
:1019E0000D9613DB8D859E859093E80A8093E70A18
:1019F0008F8598899093EA0A8093E90A89899A8960
:101A00009093EC0A8093EB0ACE010D96D5DA8D8582
:101A10009E859093EE0A8093ED0A8F859889909326
:101A2000F00A8093EF0A89899A899093F20A809349
:101A3000F10AC0900003D0900103E0900203F090FF
:101A40000303A7019601609177097091780980914D
:101A5000790990917A090E949C37882341F0C092BD
:101A60007709D0927809E0927909F0927A09809109
:101A70007509909176096FDF43E050E063EE7AE0FC
:101A800080917509909176095CDFC090FC02D0903E
:101A9000FD02E090FE02F090FF02A7019601609126
:101AA00093097091940980919509909196090E94EB
:101AB0009C37882341F0C0929309D0929409E09218
:101AC0009509F0929609809191099091920943DFCE
:101AD00043E050E065EE7AE080919109909192099F
:101AE00030DFC0900403D0900503E0900603F0902F
:101AF000070320E030E040E853E4C701B6010E944C
:101B00009C3787FF0EC020E030E0A901C701B60175
:101B10000E94243987FD07C0C701B6010E94A5377E
:101B200003C06FEF01C060E070E08CE090E03ADF4E
:101B300060E070E0CB01DCDE6093DF0A7093E00AC6
:101B40008093E10A9093E20ACE0101964BDB8981F2
:101B50009A81AB81BC818093D30A9093D40AA093DD
:101B6000D50AB093D60A8D819E81AF81B8858093C6
:101B7000D70A9093D80AA093D90AB093DA0A898534
:101B80009A85AB85BC858093DB0A9093DC0AA09391
:101B9000DD0AB093DE0AE091C90AF091CA0A2081F9
:101BA00031814281538160910803709109038091D2
:101BB0000A0390910B030E9428390E948B392091CF
:101BC0000C0330910D0340910E0350910F030E94BE
:101BD0002839162F072FF82EE92ECC24C394D12CA8
:101BE000209110033091110340911203509113037F
:101BF000612F702F8F2D9E2D0E949C3787FD02C074
:101C0000C12CD12CB60184E090E0CCDEA090F4028F
:101C1000B090F502C090F602D090F7029501A601AF
:101C2000612F702F8F2D9E2D0E9424391816B4F02D
:101C3000A0901803B0901903C0901A03D0901B0312
:101C40009501A601612F702F8F2D9E2D0E949C372C
:101C500087FD04C0A12EB02ECF2CDE2C20911C03BA
:101C600030911D0340911E0350911F03B501C60121
:101C70000E9428390E940E384B015C0148D5811121
:101C80001FC0C501B4011AD581111AC020E030E08F
:101C900040E853E4C501B4010E9428384B015C01BF
:101CA0003B01650120E030E0A9010E949C3787FFDD
:101CB0000BC0C501B40190580E94A537619508C0BA
:101CC000612C712CC12CD12CB301C6010E94A53707
:101CD00070E080E090E00E94D337AB01BC018091BE
:101CE000C5099091C6094DDECC24C394D12C209116
:101CF0001403309115034091160350911703612F7F
:101D0000702F8F2D9E2D0E949C3787FD02C0C12C05
:101D1000D12CB6018BE090E045DEA090F802B090A7
:101D2000F902C090FA02D090FB029501A601612F42
:101D3000702F8F2D9E2D0E942439181694F0A0909C
:101D40002003B0902103C0902203D090230395017B
:101D5000A601612F702F8F2D9E2D0E949C3787FF2B
:101D600004C01A2D0B2DFC2CED2C20912403309156
:101D700025034091260350912703612F702F8F2D4B
:101D80009E2D0E9428390E940E386B017C01BFD421
:101D900081111FC0C701B60191D481111AC020E082
:101DA00030E040E853E4C701B6010E9428386B01D7
:101DB0007C015B01870120E030E0A9010E949C3793
:101DC00087FF0BC0C701B60190580E94A5376195E7
:101DD00008C0A12CB12C00E010E0B501C8010E94A0
:101DE000A53770E080E090E00E94D337AB01BC01E2
:101DF0008091AD099091AE09C4DD83EF9AE01AD9C4
:101E000082E090E00E94E720E091C90AF091CA0ABE
:101E1000408151816281738180E090E00E94E320E3
:101E20006091BA0A7091BB0A8091BC0A9091BD0A78
:101E30000E94D1376B017C016091BE0A7091BF0A8C
:101E40008091C00A9091C10A0E94D13720E030E011
:101E500040E85FE40E9428399B01AC01C701B6014C
:101E60000E9438372FE832EC45EF5CE30E942839B6
:101E7000AB01BC0181E090E00E94E3208090C20AA7
:101E80009090C30AA090C40AB090C50A20E030E048
:101E900040E85FEBC501B4010E949C370091C90A7C
:101EA0001091CA0A882319F1F801C080D180E2801C
:101EB000F380A7019601C501B4010E9437374B0199
:101EC0005C0120E030E040E054E3C701B6010E942D
:101ED00028399B01AC01C501B4010E9424391816B0
:101EE00034F082E693E090931E0A80931D0A80915D
:101EF000C80A882331F082E693E090931E0A80930B
:101F00001D0A8091AE0A9091AF0AA091B00AB091DB
:101F1000B10ABC01CD016F5F7F4F8F4F9F4F609320
:101F2000AE0A7093AF0A8093B00A9093B10A61151C
:101F3000710581059105A9F4C090B20AD090B30A49
:101F4000E090B40AF090B50AFFEFCF1ADF0AEF0A6B
:101F5000FF0AC092B20AD092B30AE092B40AF09299
:101F6000B50AC090B60AD090B70AE090B80AF090CF
:101F7000B90A0E94D137A70196010E9428394B0166
:101F80005C016091B20A7091B30A8091B40A909199
:101F9000B50A0E94D137A70196010E94283920E096
:101FA00030E040E85FE40E9428399B01AC01C501A4
:101FB000B4010E943837F801608371838283938370
:101FC0008091BA0A9091BB0AA091BC0AB091BD0A57
:101FD0000196A11DB11D8093BA0A9093BB0AA093EC
:101FE000BC0AB093BD0A892B8A2B8B2B99F4809164
:101FF000BE0A9091BF0AA091C00AB091C10A019691
:10200000A11DB11D8093BE0A9093BF0AA093C00A80
:10201000B093C10A62960FB6F894DEBF0FBECDBF73
:10202000DF91CF911F910F91FF90EF90DF90CF90B4
:10203000BF90AF909F908F907F906F9008952F9258
:102040003F924F925F926F927F928F929F92AF9248
:10205000BF92CF92DF92EF92FF920F931F93CF9395
:10206000DF9384E090E0F3D2EDE1FAE086EBDF016C
:102070001D928A95E9F786EC9AE097838683C9ECEE
:10208000DAE0D0935E0AC0935D0A06EB1AE0158B86
:10209000048BF093880AE093870AF583E48321E0B8
:1020A00030E0DC012D933C9386E793E093878287B1
:1020B0002BEC3AE03983288340E050E060E87FEB86
:1020C0004093C20A5093C30A6093C40A7093C50A2E
:1020D0004FE852EC65EF7CE3D8014D935D936D932F
:1020E0007C931397CCE9DAE080E09BEDADEBBEE6A4
:1020F00088839983AA83BB8381E991E2A3EBBEE144
:102100008093A00A9093A10AA093A20AB093A30A75
:1021100082E99EE7A4E9B1EE8093A40A9093A50A10
:10212000A093A60AB093A70A89E096E6A3EABDEBBE
:102130008093A80A9093A90AA093AA0AB093AB0A25
:10214000AFE0B6E0B383A283E5EFF5E01196FC9330
:10215000EE938CE494E091838083938382839583D0
:1021600084839783868391878087938782879587E7
:10217000848797878687918B808B938B828B958BB7
:10218000848B978B868B918F808F8CEA9AE0159643
:102190009C938E9314971396DC93CE931297179675
:1021A0003C932E93169722E2E3EDFAE0DF011D92B5
:1021B0002A95E9F7CFE5D9E02EEBFE0111922A9599
:1021C000E9F7E3EEF5E022E1DF011D922A95E9F758
:1021D000DC01ED93FC9386E190E09183808388ECB1
:1021E00092E0938382838CE992E09583848388E2F2
:1021F00092E0978386838CE092E091878087DD244C
:10220000D394D092160A412C512C3201439440921F
:10221000CE095092CF096092D0097092D10980E026
:1022200090E00E94F107D092D2091092C709D09293
:10223000170A0CEC19E0F80110824092C80950927C
:10224000C9096092CA097092CB090E94C707D801D8
:10225000DC9292E3892E8E8223E3922E9F8234E3D6
:10226000232E288645E3342E3986B6E3BA87E7E382
:10227000EB87F8E3FC8759E3A52EAD8661E3C62E14
:10228000CE8670E3B72EBF86C88AC98ACA8A8B8A6F
:10229000CC8A9D8A1882D092180A04EF12E0F801C5
:1022A00084859585A685B785888F998FAA8FBB8FE2
:1022B0001D8249825A826B827C8260E070E0CB0191
:1022C00024DB9F8B8E8B20E030E0A90160E070E082
:1022D00037DBDD828AA29BA22CA23DA2F6E3FEA3FD
:1022E00087E38FA3A8E3A8A7A9A6CAA6BBA6CCA6E6
:1022F000CDA6CEA68FA6C8AA99AA1C8ED092190ADE
:10230000F80180859185A285B3858CAB9DABAEAB82
:10231000BFAB19A24D8E5E8E6F8E78A261E070E029
:1023200080E090E0F2DA9BAB8AAB20E030E0A901DC
:1023300060E070E005DBD9A21092D309D092110AB7
:1023400008ED19E0D8011C924092D4095092D509A9
:102350006092D6097092D70961E070E08CE090E05D
:102360001ADBF801D0821092E509D0921A0A0AEE1F
:1023700019E0D8011C924092E6095092E709609258
:10238000E8097092E90942E050E063E070E080E023
:1023900090E0B9D9F801D0821092EB09D0921B0AD3
:1023A00000EF19E0D8011C924092EC095092ED091F
:1023B0006092EE097092EF090E94DC08F801D08269
:1023C0001092DF09D092140A04EE19E0D8011C9291
:1023D0004092E0095092E1096092E2097092E309AB
:1023E00061E070E084E090E0D6DAF801D08280927B
:1023F000B5099092B6092092B7093092B809F6E370
:10240000F093B90987E38093BA09A8E3A093BB09C5
:10241000A092BC09C092BD09B092BE09C092BF098A
:10242000C092C009C092C1098092C209C092C3097A
:102430009092C4091092AF09D092150AE4EBF9E02A
:1024400010824092B0095092B1096092B209709224
:10245000B309E12CF12C8701A801970165E070E038
:1024600080E090E079DA9093C6098093C50988DA14
:10247000A4EBB9E0DC921092D909D092120A0EEDC9
:1024800019E0F80110824092DA095092DB0960925B
:10249000DC097092DD0961E070E08BE090E07BDAAE
:1024A000D801DC9280929D0990929E0920929F090A
:1024B0003092A009B6E3B093A109E7E3E093A20943
:1024C000F8E3F093A309A092A409C092A509B092E1
:1024D000A609C092A709C092A809C092A909809232
:1024E000AA09C092AB099092AC0918AED092130A17
:1024F00010929C0949AE5AAE6BAE7CAEE12CF12C29
:102500008701A801970169E070E080E090E024DA9B
:102510009093AE098093AD0933DAD0929C09109262
:10252000F109D0921C0AC6EFD9E018824092F20954
:102530005092F3096092F4097092F5090E94C7075E
:10254000D882DF91CF911F910F91FF90EF90DF9094
:10255000CF90BF90AF909F908F907F906F905F9043
:102560004F903F902F9008958091CD09811103C025
:1025700081E08093CD098091C709811103C081E07A
:102580008093C70980915F09811103C081E0809326
:102590005F0980917B09811103C081E080937B09F1
:1025A0008091D309811103C081E08093D309809188
:1025B000E509811103C081E08093E5098091EB0971
:1025C000811103C081E08093EB098091DF098111C3
:1025D00003C081E08093DF098091AF09811103C0BE
:1025E00081E08093AF098091D909811103C081E016
:1025F0008093D90980919709811103C081E080936C
:1026000097098091F109811103C081E08093F1095C
:10261000089560E070E080E89FE7089560E070E072
:1026200080E89FE7089560E070E080E89FEF0895FC
:1026300060E070E080E89FEF089560E070E080EC7B
:102640009FEF089560E070E080EC9FEF0895F5DF64
:102650006093010B7093020B8093030B9093040B18
:10266000F1DF6093F50A7093F60A8093F70A90936E
:10267000F80ACFDF6093FD0A7093FE0A8093FF0A89
:102680009093000BCBDF6093F90A7093FA0A809362
:10269000FB0A9093FC0AC7DF6093050B7093060B4F
:1026A0008093070B9093080BC3DF6093090B709323
:1026B0000A0B80930B0B90930C0B0895CF92DF9233
:1026C000EF92FF92CF936B017C012091F90A309138
:1026D000FA0A4091FB0A5091FC0A0E949C37C1E023
:1026E000882371F02091090B30910A0B40910B0B5C
:1026F00050910C0BC701B6010E949C378111C0E0BC
:102700008C2FCF91FF90EF90DF90CF900895CF93D3
:10271000C1E09B01AC010E949C37811101C0C0E067
:102720008C2FCF910895EF92FF920F931F93CF9329
:10273000DF93DC01EA01F90114968D919C911597C4
:1027400012960D911C911397080F191F288139813A
:1027500018964D915C9119974217530728F04D91A7
:102760005C911197452B39F17801E21AF30A18961A
:102770004D915C911997481B590B4E0D5F1D4617E3
:10278000570794F1A901460F571F40175107E0F072
:10279000F182E082338322836E197F09758364831B
:1027A000161617061CF4382F292F02C030E020E03F
:1027B0003683278313C018968D919C911997821B9D
:1027C000930B8617970784F071836083338322838A
:1027D000158214821782168288819981680F791F69
:1027E0007983688380E001C081E0DF91CF911F9100
:1027F0000F91FF90EF900895CF92DF92EF92FF92AA
:10280000CF93DF936B017C0184E48C9DE0018D9D6F
:10281000D00D1124C55ED94F8AA99BA9009721F03C
:102820000E94003B1BAA1AAA84E48C9DF0018D9D96
:10283000F00D1124E55EF94F86A997A9009711F0D4
:102840000E94003B84E48C9DF0018D9DF00D1124CD
:10285000E55EF94F138A128A168A178A108E118E36
:10286000128E138E148E158E168E178E10A211A234
:1028700081E090E093A382A315A214A216A217A24E
:1028800010A611A613A612A615A614A616A617A67C
:1028900010AA11AA13AA12AA15AA14AA17AA16AA4C
:1028A00011AE10AE12AE13AE14AE15AEDF01DE9651
:1028B0001D921D921D921C921397EE5BFF4F118289
:1028C0001082DF91CF91FF90EF90DF90CF9008952D
:1028D0000F931F93CF93DF93EB01DC018D919C91BC
:1028E000FC01A681B781E881F98123E0EE0FFF1F8B
:1028F0002A95E1F712962D913C911397E20FF31F61
:1029000000811181AC85BD859D01220F331FDC0143
:1029100012968D919C911397D901A80FB91F8D9193
:102920009C9124813581232B19F461E070E002C071
:1029300062E070E0689F9001699F300D789F300DD4
:10294000112488859985289FB001299F700D389F93
:10295000700D1124EC81FD812E9FC0012F9F900DE1
:102960003E9F900D1124800F911FFA019183808367
:1029700073836283DF91CF911F910F9108952F92FE
:102980003F924F925F926F927F928F929F92AF92FF
:10299000BF92CF92DF92EF92FF920F931F93CF934C
:1029A000DF9300D000D0CDB7DEB7DC011496ED91F7
:1029B000FC9115970190F081E02D808591859A8397
:1029C0008983A281B381BC83AB83FB018190919009
:1029D000A190B1908F01C12CD12C7601C814D904DB
:1029E000EA04FB040CF05FC0D80114964D905D9092
:1029F0006D907C90179718964D915D916D917C919B
:102A00001B97F8017096FE83ED83F801A081B181D8
:102A100083E0AA0FBB1F8A95E1F7E981FA818281E1
:102A20009381A80FB91F2D903C901197F801248530
:102A30003585220F331F8B819C81280F391FF901A7
:102A40000081118114968D919C911597892B19F411
:102A500081E090E002C082E090E0809F9001819F41
:102A6000300D909F300D1124249F8001259F100D63
:102A7000349F100D1124249DC001259D900D349D7F
:102A8000900D1124A8016D817E81820D931D0E94FD
:102A9000983B8D819E81080F191F9FEFC91AD90A93
:102AA000E90AF90A9BCF26960FB6F894DEBF0FBE4F
:102AB000CDBFDF91CF911F910F91FF90EF90DF90ED
:102AC000CF90BF90AF909F908F907F906F905F90CE
:102AD0004F903F902F900895CF93DF93DB01A85D37
:102AE000BC4F2C91222369F024E4269FF001279FFC
:102AF000F00D1124E55EF94FEF0119922A95E9F7DF
:102B00001C9224E4269FF001279FF00D1124E55E1E
:102B1000F94F148215821682178211861086138649
:102B20001286118A108A17861686DF91CF9164CE9D
:102B30002F923F924F925F926F927F928F929F92CD
:102B4000AF92BF92CF92DF92EF92FF920F931F93BB
:102B5000CF93DF93CDB7DEB728970FB6F894DEBFDB
:102B60000FBECDBF6B017C011A0184E48C9D9001E6
:102B70008D9D300D1124255E394FF9018481958199
:102B8000A681B781892B8A2B8B2B09F4B8C0A12C85
:102B9000B12C412C512C320138872F83C901049666
:102BA0009A838983D9011896BC83AB83E981FA8122
:102BB00080819181A281B381481659066A067B06FD
:102BC00094F5AB81BC81ED91FC91EA0DFB1D228156
:102BD00033818901812C912C82149304C4F4D8018F
:102BE000ED91FC91309769F0848195812D833E832E
:102BF0000E94003BF801808191810E94003B3E8150
:102C00002D81FFEF8F1A9F0A0E5F1F4FE5CFC9017D
:102C10000E94003B8FEF481A580A680A780A94E02D
:102C2000A90EB11CC3CFAF81B88518968D919C9128
:102C300019970E94003BEF81F88582859385892B47
:102C400059F1A12CB12C812C912C84E48C9D800114
:102C50008D9D100D11240B5D194F8214930484F483
:102C6000D801ED91FC91EA0DFB1D848195810E94B4
:102C7000003BBFEF8B1A9B0AEEE0AE0EB11CEDCF0E
:102C800084E48C9DF0018D9DF00D1124E55EF94FDB
:102C9000828593850E94003B84E48C9D90018D9DEC
:102CA000300D11248901055E194FD80150968D9180
:102CB0009C9151970E94003BF801868597850E9460
:102CC000003BC701B60198DDC701B60128960FB6D3
:102CD000F894DEBF0FBECDBFDF91CF911F910F9152
:102CE000FF90EF90DF90CF90BF90AF909F908F902C
:102CF0007F906F905F904F903F902F90EDCE2896F1
:102D00000FB6F894DEBF0FBECDBFDF91CF911F91FC
:102D10000F91FF90EF90DF90CF90BF90AF909F907A
:102D20008F907F906F905F904F903F902F9008957D
:102D300024E4269FF001279FF00D1124E55EF94F52
:102D4000828993890497029758F485E090E0938BE9
:102D5000828B8FEF9FEFDC01828F938FA48FB58FD3
:102D600008952F923F924F925F926F927F928F922F
:102D70009F92AF92BF92CF92DF92EF92FF920F930A
:102D80001F93CF93DF93CDB7DEB7E0970FB6F894DC
:102D9000DEBF0FBECDBF9AA389A31B016A01280124
:102DA000390184E4849D8001859D100D11249801D2
:102DB000255E394F7901D9014D925D926D927C92D9
:102DC0001397AB01C301B201B3DEF801E15EF94F25
:102DD000D6014D915D916D917D918D01CA01408328
:102DE00051836283738364E070E00E94513AF7017B
:102DF00091878087892B09F499C11E8E1D8E198EAB
:102E00001A8E1B8E1C8EF8A2EF8E97012C5F3F4FFF
:102E100038A72FA32C5F3F4F3AA729A7EFA1F8A50A
:102E200080819181A281B381298D3A8D4B8D5C8DFA
:102E3000281739074A075B070CF0E4C0A9A5BAA513
:102E40008D919C912D8D3E8D280F391F3A8B298BAA
:102E5000D801ED91FC91EE0FFF1FA9A1BAA18D91B0
:102E60009C91E80FF91F80819181F9019183808302
:102E7000D80114962D913D914D915C9117972BA3FC
:102E80003CA34DA35EA3085F1F4F62E070E0C10149
:102E90000E94513AE989FA8993838283892B09F444
:102EA00045C11D8A1E8A1F8A188E2D893E894F8929
:102EB000588D8BA19CA1ADA1BEA1281739074A0747
:102EC0005B070CF08CC0D801ED90FC90EE0CFF1C61
:102ED000E989FA89C280D380CE0CDF1C68E070E0FB
:102EE00081E090E00E94513AD6018D939C93E9894C
:102EF000FA8982819381FC01EE0DFF1DC080D18093
:102F0000C114D10409F412C1D80114964D915D91F8
:102F10006D917C911797CA01F601408351836283BA
:102F20007383085F1F4F64E070E00E94513AD6013E
:102F300015969C938E931497892B09F4F7C01C8ADD
:102F40001B8A812C912C5401F60180819181A281F0
:102F5000B38188169906AA06BB06A4F5F601E4809B
:102F6000F5802B893C89E20EF31EF801DE011196F3
:102F700080E101900D928A95E1F7005F1F4FA70154
:102F8000BE016F5F7F4FA9A1BAA114968D919C914C
:102F900015979EDCF60126813781D70112968D9117
:102FA0009C911397820F931F97838683BFEF8B1A91
:102FB0009B0AAB0ABB0A2B893C892C5F3F4F3C8B99
:102FC0002B8BC2CF2D893E894F89588D2F5F3F4F64
:102FD0004F4F5F4F2D8B3E8B4F8B588F66CF298D78
:102FE0003A8D4B8D5C8D2F5F3F4F4F4F5F4F298F39
:102FF0003A8F4B8F5C8F2D8D3E8D2C5F3F4F3E8FD8
:103000002D8F0CCF6EE070E0C1010E94513AAF8D60
:10301000B8A11B969C938E931A97812C912CA12C6E
:10302000B12CC12CD12C24E4249DC001259D900DF0
:1030300011249C012B5D394F3A8B298B21E030E024
:10304000A214B3040CF04AC0D8014D915D916D916A
:103050007D918D01CA01E989FA89E080F180E80C4F
:10306000F91C57FD63C0D70111963C932E9300972E
:10307000A1F02FA738AB4BA75CA76DA77EA70E9436
:103080006B3AF701958384832FA538A94BA55CA5DE
:103090006DA57EA5892B31F449C0D70115961C92E8
:1030A0001E921497F70153834283848195819783FD
:1030B0008683918780871386128681E090E0452B76
:1030C000462B472B11F480E090E0C80ED91EFFEF8D
:1030D000AF1ABF0A4EE0840E911CB2CF84E4849DE7
:1030E0008001859D100D1124055E194FD8011D9694
:1030F0001C921E921C97C60133E0880F991F3A95C7
:10310000E1F70E946B3AF801918B808B892B71F06B
:10311000C601880F991F0E946B3AD8011F969C9395
:103120008E931E97892B11F080E005C0A101C30189
:10313000B201FEDC81E0E0960FB6F894DEBF0FBE70
:10314000CDBFDF91CF911F910F91FF90EF90DF9056
:10315000CF90BF90AF909F908F907F906F905F9037
:103160004F903F902F9008952F923F924F925F92F1
:103170006F927F928F929F92AF92BF92CF92DF9287
:10318000EF92FF920F931F93CF93DF93CDB7DEB7EC
:1031900068970FB6F894DEBF0FBECDBF9C8B8B8BAC
:1031A000DB0149015A0124E4289DC001299D900DAD
:1031B00011249C01255E394F79012D913C91119785
:1031C000F701358B248BFC01EF5CF94F14964D9180
:1031D0005D916D917C9117974083518362837383D6
:1031E000FC01EB5CF94F18964D915D916D917C91CE
:1031F0001B974083518362837383FC01E75CF94F23
:103200001C964D915D916D917C911F9740835183E8
:1032100062837383FC01E75BF94F50965C91509792
:1032200051964C91519752963C91529753962C91AE
:10323000539750834183328323838D010C5E1F4F4C
:10324000852F942F181619060CF068C0880F991F47
:10325000880F991F0E946B3AD701D3969C938E9347
:10326000D297892B09F4BCC0212C312C412C512C34
:1032700032019701225D3F4F3E8B2D8B2C5F3F4FDC
:10328000388F2F8B2E5F3F4F3A8B298BB301A201D2
:103290002FEF421A520A620A720AED89FE89808172
:1032A0009181A281B381481759076A077B074CF5C2
:1032B000AF89B88DCD90DC90C20CD31CF801DE0133
:1032C000119680E101900D928A95E1F7005F1F4F02
:1032D000A601BE016F5F7F4FEB89FC8984819581D8
:1032E000F7DAA989BA898D919C911197F60122810B
:1032F0003381820F931F8D939C93F4E02F0E311C2A
:10330000C5CFD701D4968D919C91D5970E946B3AE9
:10331000F70197AB86AB892B09F462C0F801808175
:103320009181A281B38124E4289DF001299DF00DB3
:103330001124E55EF94FAC01BD014D7F21E030E085
:10334000452B462B472B11F020E030E033A322A37E
:1033500024E4289DF001299DF00D1124E55EF94F2C
:103360000197A109B10921E030E00297A105B1055B
:1033700010F020E030E035A324A384E4889DF00120
:10338000899DF00D1124CF018F5B994FD8011496C0
:103390004D915D916D917C911797DC014D935D93FB
:1033A0006D937C931397E55EF94F868D978DA0A161
:1033B000B1A1B7FF10C0B095A095909581959F4F92
:1033C000AF4FBF4F82AF93AFA4AFB5AF168E178E7E
:1033D00010A211A20AC012AE13AE14AE15AE05C0F3
:1033E000C501B40109DA81E001C080E068960FB63A
:1033F000F894DEBF0FBECDBFDF91CF911F910F912B
:10340000FF90EF90DF90CF90BF90AF909F908F9004
:103410007F906F905F904F903F902F900895CF9244
:10342000DF92EF92FF92CF93DF931092A30624E4F2
:10343000269FF001279FF00D1124E55EF94F15A698
:1034400014A620E030E0C12CD12CDF011A96C1E097
:10345000D0E0C416D506D4F4ED91FC911197E20F9B
:10346000F31FE280F3801E141F0454F4E480F580FF
:10347000F782E682F186E08613861286D183C083C6
:10348000EFEFCE1ADE0A225F3F4FE3CF24E4269F00
:10349000F001279FF00D1124E55EF94F13A612A647
:1034A00011AE10AEDF01DE961D921D921D921C9290
:1034B000139782E090E0938B828BDF91CF91FF9006
:1034C000EF90DF90CF90089524E4269FF001279F8E
:1034D000F00D1124E55EF94F138A128A29CB24E4FA
:1034E000269FF001279FF00D1124E55EF94F828998
:1034F000938981309105C8F08530910518F00597C2
:1035000069F008958FEF9FEFDC01828F938FA48F76
:10351000B58F85E090E0938B828B08958FEF9FEFBE
:10352000DC01828F938FA48FB58F089524E4249FAC
:10353000F001259FF00D1124E55EF94F2EE0AC015E
:10354000249FC001259F900D11240284F385E02D56
:10355000E80FF91F81E08093A30682859385918708
:103560008087408551852681378181E090E0421730
:10357000530711F080E090E09183808308952F92AB
:103580003F924F925F926F927F928F929F92AF92F3
:10359000BF92CF92DF92EF92FF920F931F93CF9340
:1035A000DF93CDB7DEB7C255D1090FB6F894DEBFB1
:1035B0000FBECDBF21969FAF8EAF21974BA75CA7C3
:1035C0006DA77EA74801590184E4889D8001899DEB
:1035D000100D1124F801E55EF94F228533852796F9
:1035E0003FAF2EAF279782899389029709F060C178
:1035F00086A597A5A0A9B1A9892B8A2B8B2B29F485
:1036000084E090E0938B828B53C1848995892196C5
:103610004EAD5FAD21974817590709F049C186A9FA
:1036200097A99AAB89AB1EAE1DAE19AE1AAE1BAEF2
:103630001CAE8F01DF019E962996BFAFAEAF2997D2
:10364000F2962B96FFAFEEAF2B979801285C3F4F79
:103650002D963FAF2EAF2D97A8014A5D5F4F2F9655
:103660005FAF4EAF2F97C801829661969FAF8EAF26
:1036700061971A976396BFAFAEAF63972996EEAD89
:10368000FFAD299780819181A281B38129AD3AADA7
:103690004BAD5CAD281739074A075B070CF0E7C054
:1036A0002B96EEADFFAD2B97808191812DAD3EAD78
:1036B000280F391F3EAB2DABD90112960D90BC914E
:1036C000A02D2396BFAFAEAF2397B695A795B6951D
:1036D000A7952596BFAFAEAF25972D96EEADFFAD62
:1036E0002D9780819181892B09F496C02F96AEADDC
:1036F000BFAD2F97CD90DD90ED90FC9029A83AA812
:10370000F9010190F081E02DF8ABEFA718AE1FAAE8
:103710008FA998AD2596AEADBFAD25978A179B07AB
:103720000CF07AC06196AEADBFAD61978D919C9162
:10373000892B69F1EFA5F8A94080518062807380E0
:10374000A7019601C301B2010E94243987FD0BC075
:10375000A7019601D1016D917D918D919C910E945F
:103760009C3787FD8CC0A7019601C301B2010E945E
:103770002439181664F4A7019601F1016081718162
:10378000828193810E949C37882309F478C06396D4
:10379000AEADBFAD63978D919C91892B69F1EFA57B
:1037A000F8A94080518062807380A7019601C3010F
:1037B000B2010E949C3787FF0BC0A7019601D1017F
:1037C0006D917D918D919C910E94243987FF57C006
:1037D000A7019601C301B2010E949C3781110CC060
:1037E000A7019601F10160817181828193810E941C
:1037F000243918160CF443C02FA938AD2F5F3F4F62
:1038000038AF2FAB34E0230E311C4FA558A94C5FC5
:103810005F4F58AB4FA77CCFEDA9FEA960817181A6
:1038200023964EAD5FAD239789A99AA90E94983B34
:1038300025968EAD9FAD2597880F991F880F991FEC
:1038400029A93AA9280F391F3AAB29AB89AD9AADFE
:10385000ABADBCAD0196A11DB11D89AF9AAFABAFA9
:10386000BCAFADADBEAD1496BEAFADAF07CF81E07E
:1038700090E0D801D9969C938E93D89719C084E490
:10388000889DF001899DF00D1124E55EF94F868D2C
:10389000978DA0A1B1A1892B8A2B8B2B09F064C233
:1038A00084E090E0938B828B86AD97AD93A782A73F
:1038B00084E4889DF001899DF00D1124E55EF94FA7
:1038C000828993898230910571F482AD93ADA4AD64
:1038D000B5AD181619061A061B060CF04CC2CC24FE
:1038E000C394D12C05C0049709F045C2C12CD12C3A
:1038F0008EE02196EEADFFAD21978E9F70018F9FD8
:10390000F00C112427962EAD3FAD2797E20EF31E43
:10391000D70112964D915C9113974115510509F409
:103920002AC216968D919C9117979AA789A7FE0196
:10393000319684E1DF011D928A95E9F7898A9A8A96
:10394000AB8ABC8AC114D10409F457C084E4889DB1
:10395000F001899DF00D1124E55EF94FDF01DE963F
:103960004D905D906D907C9082AD93ADA4ADB5AD62
:10397000481659066A067B0609F03FC0F7016481C4
:1039800075810084F185E02D84819581A681B781C0
:103990009C018D8B9E8BAF8BB88F285F3F4F3E8BEA
:1039A0002D8BD70118968D919C911997280F391F4F
:1039B00019963C932E93189718968D919C91199770
:1039C000460F571F841B950B97FD06C0860F971F48
:1039D00019969C938E93189784E4889DF001899D95
:1039E000F00D1124E75AF94FB1E04B1A5108610864
:1039F000710840825182628273829E012B5E3F4F2A
:103A0000AE01475D5F4F64E170E0C7010E94931310
:103A1000082F10E00115110509F091C18CE090E02C
:103A2000A0E0B0E08D839E83AF83B8879E01235EC4
:103A30003F4FAE01475D5F4F64E070E0C7010E94F9
:103A40009313082F10E00115110509F078C180E1EA
:103A500090E0A0E0B0E08D839E83AF83B8874D8D6A
:103A60005E8DBE01655D7F4F8F8D98A10E94983B52
:103A70008BA19CA1009761F06D8D7E8DEBE2F0E053
:103A8000EC0FFD1F6E0F7F1F49A15AA10E94983BAA
:103A90001DA21EA21FA218A621962EAD3FAD2197F2
:103AA000220F331F38AF2FAB24E4289DC001299D7E
:103AB000900D1124855E994FAC014C5F5F4F5AAF5A
:103AC00049AFDC011896BEAFADAF2DA13EA14FA10D
:103AD00058A529AB3AAB4BAB5CABE9ADFAAD8081F5
:103AE0009181A281B381281739074A075B070CF03F
:103AF000CFC0ADADBEADED91FC9189A99AA9880F5B
:103B0000991F880F991FE80FF91FA081B1818C912F
:103B1000882309F4AFC0833009F4ACC00280F3817C
:103B2000E02D2FA938ADE20FF31F4081518158AB32
:103B30004FA7452B09F49EC089859A85AB85BC8526
:103B40000196A11DB11D89879A87AB87BC879E010D
:103B5000235E3F4FAE01475D5F4F64E070E0C701F9
:103B60000E94931390E0009709F0E8C08D819E8138
:103B7000AF81B8850496A11DB11D8D839E83AF834F
:103B8000B8874D8D5E8DBE016B5D7F4F8F8D98A187
:103B90000E94983B8BA19CA1009761F06D8D7E8D5A
:103BA000A5E2B0E0AC0FBD1F6A0F7B1F49A15AA16F
:103BB0000E94983B1EAA1DAA412C512C3201EFA550
:103BC000F8A980819181A281B381481659066A06BD
:103BD0007B060CF04FC0EFA5F8A9248035802DA9F5
:103BE0003EA9220E331ED10112966D917C9113973E
:103BF0009E01235E3F4FAE01475D5F4FC7010E94AC
:103C0000931390E0009709F099C0F10182819381AC
:103C1000092E000CAA0BBB0B4D815E816F8178854C
:103C2000840F951FA61FB71F8D839E83AF83B88710
:103C3000608171814D8D5E8D8F8D98A10E94983B22
:103C40008BA19CA1009759F0D1016D917C912D8D94
:103C50003E8D620F731F49A15AA10E94983BBFEF8E
:103C60004B1A5B0A6B0A7B0AEDA9FEA93496FEABE0
:103C7000EDABA5CF49A85AA86BA87CA8FFEF4F1AB7
:103C80005F0A6F0A7F0A4DA25EA26FA278A61DCFBF
:103C900089859A85AB85BC85892B8A2B8B2B09F46A
:103CA0004EC08AE190E0A0E0B0E089839A83AB83C4
:103CB000BC8321962EAD3FAD2197C901330FAA0BCE
:103CC000BB0B8D879E87AF87B88B4D895E89BE0100
:103CD0006F5F7F4F8F89988D0E94983B8B8D9C8D55
:103CE000009761F06D897E8941E050E04C0F5D1FC7
:103CF000640F751F498D5A8D0E94983B89A59AA51E
:103D0000D70117969C938E93169711961C921E922C
:103D1000CD2889F184E4889DF001899DF00D11245E
:103D2000E75AF94F80819181A281B3810196A11D4B
:103D3000B11D80839183A283B3831DC08C01CD28E4
:103D4000D1F4012BC1F084E4889DF001899DF00D30
:103D50001124E55EF94F81E090E095A784A785E006
:103D600090E0938B828B07C083E090E0938B828BF3
:103D700081E090E09BCDCE5ADF4F0FB6F894DEBFC6
:103D80000FBECDBFDF91CF911F910F91FF90EF90AC
:103D9000DF90CF90BF90AF909F908F907F906F906B
:103DA0005F904F903F902F900895CF92DF92EF92C7
:103DB000FF920F931F936B017C0184E48C9DF001B3
:103DC0008D9DF00D1124E55EF94F8289938900974E
:103DD00009F450C00197B9F482A593A59C012F5F07
:103DE0003F4F33A722A7092E000CAA0BBB0B028D55
:103DF000138D248D358D80179107A207B307D1F558
:103E0000C701B6010CDB84E48C9DF0018D9DF00DA3
:103E10001124E55EF94F82899389039759F582A5AC
:103E200093A59C012F5F3F4F33A722A7092E000CBB
:103E3000AA0BBB0B468D578D60A171A18417950706
:103E4000A607B707BCF086AD97AD93A782A784E01D
:103E500090E0938B828B82AD93ADA4ADB5AD181677
:103E600019061A061B0634F4EE5BFF4F81E090E062
:103E7000918380831F910F91FF90EF90DF90CF90FF
:103E8000089524E4269FF001279FF00D1124E55E9C
:103E9000F94F828993890497B1F482A593A501967D
:103EA00093A782A7092E000CAA0BBB0B4689578942
:103EB000608D718D84179507A607B70721F485E0FB
:103EC00090E0938B828B08952F923F924F925F9256
:103ED0006F927F928F929F92AF92BF92CF92DF921A
:103EE000EF92FF920F931F93CF93DF93CDB7DEB77F
:103EF0002E970FB6F894DEBF0FBECDBF49835A830D
:103F00006B837C834901442E552E24E4249DF001CB
:103F1000259DF00D1124E55EF94F2288338891012B
:103F200024503109158614862230310508F0DDC091
:103F3000DC0111961C921E9213961C921E921297EF
:103F4000A12CB12C60E070E09F01265F3F4F3887C5
:103F50002F837F013CE0E30EF11CDF015096BA870E
:103F6000A9879F01225F3F4F3C872B876815790502
:103F70000CF06FC0EF81F885A081B1819D012A0D01
:103F80003B1D3E872D87D9012D913C911197232B05
:103F900009F059C018960D911C9119971296ED9140
:103FA000FC911397FE83ED8316962D913C91179704
:103FB000D7014D915C91DA01E3E0AA0FBB1FEA95AE
:103FC000E1F7E985FA85C080D180FD01EC0DFD1D8A
:103FD000440F551FAB85BC85CD90DC904C0D5D1D0D
:103FE000DA016D937C93D7014D915C9111974F5FEE
:103FF0005F4F4D935C9313830283AD85BE851B9603
:104000003C932E931A970217130748F4201B310B89
:1040100031832083158214821782168214C0AD85E5
:10402000BE851496CD90DC9015974D815E814C0D28
:104030005D1D401B510B518340832C193D09358375
:104040002483D782C6826F5F7F4FBEE0AB0EB11C68
:104050008DCF24E4249D8001259D100D1124055E43
:10406000194FF80124853585DC0111963C932E9378
:104070004089518913965C934E93129746855785D4
:1040800015965C934E931497232BA1F5B5E02B1650
:10409000310481F51092A306828D938DA48DB58D88
:1040A000AE014F5F5F4F64E070E08F3F9F4FAF4FB7
:1040B000BF4F59F480E290E00E94782E69817A81A6
:1040C0008B819C81A40100DA15C08FE190E00E94F1
:1040D000782ED8019B961C921E929A9781E090E0D0
:1040E00053969C938E93529705C0FC0111821082C7
:1040F000138212822E960FB6F894DEBF0FBECDBF8C
:10410000DF91CF911F910F91FF90EF90DF90CF90B3
:10411000BF90AF909F908F907F906F905F904F90E7
:104120003F902F900895EF92FF920F931F93CF939C
:10413000DF937C018B01EA010E94FB2E811121C0DB
:1041400080912A0390912B03049711F183E090E072
:1041500090932B0380932A031BC098819111F0CF79
:1041600028ED38EB45E050E060E070E0CB010E94C4
:104170008531AE01B801C7010E949331C8010E9488
:104180005E318091A4069091A506892B31F3D8CF9A
:10419000DF91CF911F910F91FF90EF900895CF93F2
:1041A000DF9320912A0330912B032430310541F015
:1041B000EB010E949331CE01DF91CF910C945E31DF
:1041C000DF91CF9108950C94A5350C949A350C94F9
:1041D00088350C946E310C942C35089560E070E0B5
:1041E00080E090E00C94D62E0895AF92BF92CF92CB
:1041F000DF92EF92FF920F931F93CF93DF931F9263
:104200001F92CDB7DEB75C0169017A018B0180E0B6
:1042100090E0C114D104E104F104F1F0C114D1041F
:1042200021E0E206F10410F4A60102C04FEF5FEFB7
:104230009E012F5F3F4FB801C5010E9446368F3F58
:104240002FEF920749F029813A81C21AD30AE10877
:10425000F108020F131FDDCF0F900F90DF91CF9168
:104260001F910F91FF90EF90DF90CF90BF90AF9094
:10427000089508950895883008F070C0A82FB0E020
:10428000AA0FBB1FA45DBC4F11967C936E9390E068
:10429000FC013197E730F105A0F58827EE58FF4F74
:1042A0008F4F0C94353A809169008C7F482B409356
:1042B0006900E89A089580916900440F551F440FE2
:1042C000551F837F482B40936900E99A0895809198
:1042D000690074E0440F551F7A95E1F78F7C482BF5
:1042E00040936900EA9A08958091690066E0440F5E
:1042F000551F6A95E1F78F73482B40936900EB9A3D
:10430000089580916A008C7F482B40936A00EC9A54
:10431000089580916A00440F551F440F551F837FF5
:10432000482B40936A00ED9A089580916A0024E03A
:10433000440F551F2A95E1F78F7C482B40936A0064
:10434000EE9A089580916A0096E0440F551F9A9561
:10435000E1F78F73482B40936A00EF9A08951F92FC
:104360000F920FB60F9211240BB60F922F933F931B
:104370004F935F936F937F938F939F93AF93BF936D
:10438000EF93FF93E0913003F09131031995FF9182
:10439000EF91BF91AF919F918F917F916F915F91BD
:1043A0004F913F912F910F900BBE0F900FBE0F902A
:1043B0001F9018951F920F920FB60F9211240BB6F3
:1043C0000F922F933F934F935F936F937F938F93AE
:1043D0009F93AF93BF93EF93FF93E0913203F091DC
:1043E00033031995FF91EF91BF91AF919F918F91F9
:1043F0007F916F915F914F913F912F910F900BBEE5
:104400000F900FBE0F901F9018951F920F920FB62E
:104410000F9211240BB60F922F933F934F935F93FC
:104420006F937F938F939F93AF93BF93EF93FF937C
:10443000E0913403F09135031995FF91EF91BF910D
:10444000AF919F918F917F916F915F914F913F912C
:104450002F910F900BBE0F900FBE0F901F901895CD
:104460001F920F920FB60F9211240BB60F922F933B
:104470003F934F935F936F937F938F939F93AF93EC
:10448000BF93EF93FF93E0913603F09137031995B3
:10449000FF91EF91BF91AF919F918F917F916F911C
:1044A0005F914F913F912F910F900BBE0F900FBED8
:1044B0000F901F9018951F920F920FB60F92112414
:1044C0000BB60F922F933F934F935F936F937F930E
:1044D0008F939F93AF93BF93EF93FF93E0912C0340
:1044E000F0912D031995FF91EF91BF91AF919F919D
:1044F0008F917F916F915F914F913F912F910F908D
:104500000BBE0F900FBE0F901F9018951F920F9229
:104510000FB60F9211240BB60F922F933F934F9328
:104520005F936F937F938F939F93AF93BF93EF931B
:10453000FF93E0912E03F0912F031995FF91EF91D6
:10454000BF91AF919F918F917F916F915F914F91AB
:104550003F912F910F900BBE0F900FBE0F901F90A9
:1045600018951F920F920FB60F9211240BB60F924F
:104570002F933F934F935F936F937F938F939F936B
:10458000AF93BF93EF93FF93E0913803F09139031A
:104590001995FF91EF91BF91AF919F918F917F916D
:1045A0006F915F914F913F912F910F900BBE0F90A4
:1045B0000FBE0F901F9018951F920F920FB60F927B
:1045C00011240BB60F922F933F934F935F936F93EA
:1045D0007F938F939F93AF93BF93EF93FF93E0915C
:1045E0003A03F0913B031995FF91EF91BF91AF9181
:1045F0009F918F917F916F915F914F913F912F91FB
:104600000F900BBE0F900FBE0F901F9018951F922A
:104610000F920FB60F9211242F933F938F939F9376
:10462000AF93BF938091A7069091A806A091A90689
:10463000B091AA063091A60623E0230F2D3720F46F
:104640000196A11DB11D05C026E8230F0296A11DEC
:10465000B11D2093A6068093A7069093A806A09369
:10466000A906B093AA068091AB069091AC06A091E2
:10467000AD06B091AE060196A11DB11D8093AB06AB
:104680009093AC06A093AD06B093AE06BF91AF91E8
:104690009F918F913F912F910F900FBE0F901F9080
:1046A00018952FB7F8946091A7067091A80680918D
:1046B000A9069091AA062FBF08953FB7F89480915C
:1046C000AB069091AC06A091AD06B091AE0626B5B2
:1046D000A89B05C02F3F19F00196A11DB11D3FBF3A
:1046E000BA2FA92F982F8827820F911DA11DB11DC8
:1046F000BC01CD0142E0660F771F881F991F4A95C4
:10470000D1F708958F929F92AF92BF92CF92DF928E
:10471000EF92FF926B017C01D0DF4B015C01C11471
:10472000D104E104F104F1F0A4DDC7DFDC01CB0129
:1047300088199909AA09BB09883E9340A105B105CA
:1047400070F321E0C21AD108E108F10888EE880E62
:1047500083E0981EA11CB11CC114D104E104F10432
:1047600021F7DDCFFF90EF90DF90CF90BF90AF901B
:104770009F908F900895789484B5826084BD84B5AD
:10478000816084BD85B5826085BD85B5816085BD4C
:10479000EEE6F0E0808181608083E1E8F0E0108265
:1047A000808182608083808181608083E0E8F0E0A6
:1047B000808181608083E1EBF0E080818460808390
:1047C000E0EBF0E0808181608083E1E9F0E08081CE
:1047D00082608083808181608083E0E9F0E0808175
:1047E00081608083E1EAF0E0808182608083808163
:1047F00081608083E0EAF0E0808181608083E1E293
:10480000F1E0808182608083808181608083E0E24A
:10481000F1E0808181608083EAE7F0E0808184605C
:1048200080838081826080838081816080838081B9
:10483000806880831092C1000895863308F0865303
:1048400090917B00282F2870977F922B90937B006C
:10485000877020913C0390E4299F90011124822BC2
:1048600080937C0080917A00806480937A008091AC
:104870007A0086FDFCCF809178002091790090E04D
:10488000922B08951F93CF93DF93182FEB0161E0D4
:1048900016D1209711F460E004C0CF3FD10531F468
:1048A00061E0812FDF91CF911F9145C1E12FF0E0B1
:1048B000E858FE4FE4914E2F50E0FA013197E23173
:1048C000F10508F09DC08827E758FF4F8F4F0C94E3
:1048D000353A84B5806884BDC7BD97C084B5806211
:1048E00084BDC8BD92C080918000806880938000A4
:1048F000D0938900C093880088C080918000806236
:1049000080938000D0938B00C0938A007EC08091FA
:104910008000886080938000D0938D00C0938C00CD
:1049200074C08091B00080688093B000C093B300E1
:104930006CC08091B00080628093B000C093B400DE
:1049400064C080919000806880939000D09399001B
:10495000C09398005AC0809190008062809390002C
:10496000D0939B00C0939A0050C0809190008860C3
:1049700080939000D0939D00C0939C0046C080918E
:10498000A00080688093A0008091A0008F7B80931E
:10499000A000D093A900C093A80037C08091A000C8
:1049A00080628093A000D093AB00C093AA002DC07A
:1049B0008091A00088608093A000D093AD00C09348
:1049C000AC0023C080912001806880932001D093A7
:1049D0002901C093280119C0809120018062809331
:1049E0002001D0932B01C0932A010FC08091200198
:1049F000886080932001D0932D01C0932C0105C0C5
:104A0000C038D1050CF04CCF46CFDF91CF911F912C
:104A1000089590E0FC013197E231F10508F04EC0B5
:104A20008827E557FF4F8F4F0C94353A80918000CF
:104A30008F7703C0809180008F7D809380000895E0
:104A400080918000877FF9CF84B58F7702C084B5CD
:104A50008F7D84BD08958091B0008F7703C08091D1
:104A6000B0008F7D8093B0000895809190008F7783
:104A700007C0809190008F7D03C080919000877F58
:104A80008093900008958091A0008F7707C0809157
:104A9000A0008F7D03C08091A000877F8093A0003D
:104AA0000895809120018F7707C0809120018F7D2C
:104AB00003C080912001877F809320010895CF93C8
:104AC000DF9390E0FC01E254FE4F2491FC01EC5F87
:104AD000FD4F8491882361F190E0880F991FFC01BC
:104AE000EC59FD4FC591D491FC01E65BFD4FA591BA
:104AF000B491611109C09FB7F894888120958223F1
:104B00008883EC912E230BC0623061F49FB7F89438
:104B10003881822F809583238883EC912E2B2C93D0
:104B20009FBF06C08FB7F894E8812E2B28838FBFD4
:104B3000DF91CF9108951F93CF93DF93282F30E01B
:104B4000F901E858FE4F8491F901E254FE4FD491E7
:104B5000F901EC5FFD4FC491CC23C1F0162F8111F8
:104B600058DFEC2FF0E0EE0FFF1FE65BFD4FA59145
:104B7000B4918FB7F894111105C09C91ED2FE09579
:104B8000E92302C0EC91ED2BEC938FBFDF91CF9125
:104B90001F910895FC01918D228D892F90E0805CFA
:104BA0009F4F821B91098F7399270895FC01918D66
:104BB000828D981731F0828DE80FF11D858D90E080
:104BC00008958FEF9FEF0895FC01918D828D9817C6
:104BD00061F0828DDF01A80FB11D5D968C91928DE1
:104BE0009F5F9F73928F90E008958FEF9FEF0895DE
:104BF000FC01848DDF01A80FB11DA35ABF4F2C917A
:104C0000848D90E001968F739927848FA689B78948
:104C10002C93A089B1898C9180648C93938D848D21
:104C2000981306C00288F389E02D80818F7D8083F0
:104C30000895CF93DF93EC01888D8823C1F0EA8932
:104C4000FB89808185FD05C0A889B9898C9186FD85
:104C50000EC00FB607FCF5CF808185FFF2CFA88983
:104C6000B9898C9185FFEDCFCE01C2DFE8CFDF910E
:104C7000CF910895EF92FF920F931F93CF93DF93FD
:104C8000EC0181E0888F9B8D8C8D981305C0E8899D
:104C9000F989808185FD23C0F62E0B8D10E00F5F12
:104CA0001F4F0F731127E02E8C8DE8120BC00FB62B
:104CB00007FCFACFE889F989808185FFF5CFCE011D
:104CC00097DFF2CF8B8DFE01E80FF11DE35AFF4F06
:104CD000F0820B8FEA89FB898081806207C0EE89B0
:104CE000FF896083E889F98980818064808381E01D
:104CF00090E0DF91CF911F910F91FF90EF90089579
:104D0000CF92DF92EF92FF921F93CF93DF93EC014C
:104D10006A017B01122FE889F98982E080834115BD
:104D2000514E61057105B1F060E079E08DE390E0EE
:104D3000A70196010E94133ADA01C9010197A1095E
:104D4000B109B695A79597958795AC01411580E176
:104D50005807A8F0E889F989108260E874E88EE1C4
:104D600090E0A70196010E94133ABA01A9014150AF
:104D70005109610971097695679557954795EC85B5
:104D8000FD855083EE85FF854083188EEC89FD8973
:104D90001083EA89FB89808180618083EA89FB89AD
:104DA000808188608083EA89FB8980818068808334
:104DB000EA89FB8980818F7D8083DF91CF911F916C
:104DC000FF90EF90DF90CF9008951F920F920FB653
:104DD0000F9211240BB60F922F938F939F93EF9303
:104DE000FF93E091BF06F091C0068081E091C50677
:104DF000F091C60682FD12C090818091C8068F5F37
:104E00008F732091C906821751F0E091C806F0E037
:104E1000E155F94F958F8093C80601C08081FF91BD
:104E2000EF919F918F912F910F900BBE0F900FBE1E
:104E30000F901F9018951F920F920FB60F9211248A
:104E40000BB60F922F933F934F935F936F937F9384
:104E50008F939F93AF93BF93EF93FF938FEA96E067
:104E6000C7DEFF91EF91BF91AF919F918F917F919D
:104E70006F915F914F913F912F910F900BBE0F90CB
:104E80000FBE0F901F901895EFEAF6E01382128282
:104E900088EE93E0A0E0B0E084839583A683B78397
:104EA00083E594E09183808385EC90E09587848707
:104EB00084EC90E09787868780EC90E0918B808BE4
:104EC00081EC90E0938B828B82EC90E0958B848BCD
:104ED00086EC90E0978B868B118E128E138E148E3B
:104EE00008951F920F920FB60F9211240BB60F92D6
:104EF0002F938F939F93EF93FF93E0915C07F09133
:104F00005D078081E0916207F091630782FD12C026
:104F10009081809165078F5F8F732091660782175C
:104F200051F0E0916507F0E0E45BF84F958F8093D6
:104F3000650701C08081FF91EF919F918F912F9123
:104F40000F900BBE0F900FBE0F901F9018951F92E1
:104F50000F920FB60F9211240BB60F922F933F931F
:104F60004F935F936F937F938F939F93AF93BF9371
:104F7000EF93FF938CE497E03BDEFF91EF91BF91BD
:104F8000AF919F918F917F916F915F914F913F91E1
:104F90002F910F900BBE0F900FBE0F901F90189582
:104FA000ECE4F7E01382128288EE93E0A0E0B0E038
:104FB00084839583A683B78383E594E0918380837C
:104FC0008DEC90E0958784878CEC90E097878687BE
:104FD00088EC90E0918B808B89EC90E0938B828BB6
:104FE0008AEC90E0958B848B8EEC90E0978B868B8F
:104FF000118E128E138E148E08951F920F920FB67B
:105000000F9211240BB60F922F938F939F93EF93D0
:10501000FF93E091F907F091FA078081E091FF0793
:10502000F091000882FD12C09081809102088F5F8C
:105030008F7320910308821751F0E0910208F0E08D
:10504000E751F84F958F8093020801C08081FF914E
:10505000EF919F918F912F910F900BBE0F900FBEEC
:105060000F901F9018951F920F920FB60F92112458
:105070000BB60F922F933F934F935F936F937F9352
:105080008F939F93AF93BF93EF93FF9389EE97E036
:10509000AFDDFF91EF91BF91AF919F918F917F9184
:1050A0006F915F914F913F912F910F900BBE0F9099
:1050B0000FBE0F901F901895E9EEF7E01382128251
:1050C00088EE93E0A0E0B0E084839583A683B78365
:1050D00083E594E09183808385ED90E095878487D4
:1050E00084ED90E09787868780ED90E0918B808BB0
:1050F00081ED90E0938B828B82ED90E0958B848B99
:1051000086ED90E0978B868B118E128E138E148E07
:1051100008951F920F920FB60F9211240BB60F92A3
:105120002F938F939F93EF93FF93E0919608F091C5
:1051300097088081E0919C08F0919D0882FD12C043
:10514000908180919F088F5F8F732091A0088217B4
:1051500051F0E0919F08F0E0EA57F74F958F809368
:105160009F0801C08081FF91EF919F918F912F91B6
:105170000F900BBE0F900FBE0F901F9018951F92AF
:105180000F920FB60F9211240BB60F922F933F93ED
:105190004F935F936F937F938F939F93AF93BF933F
:1051A000EF93FF9386E898E023DDFF91EF91BF91A5
:1051B000AF919F918F917F916F915F914F913F91AF
:1051C0002F910F900BBE0F900FBE0F901F90189550
:1051D000E6E8F8E01382128288EE93E0A0E0B0E007
:1051E00084839583A683B78383E594E0918380834A
:1051F00085E391E09587848784E391E097878687AC
:1052000080E391E0918B808B81E391E0938B828BA3
:1052100082E391E0958B848B86E391E0978B868B7C
:10522000118E128E138E148E08958F929F92AF92CC
:10523000BF92CF92DF92EF92FF920F931F93CF9383
:10524000DF937C018B016C0182E0C80ED11C470109
:10525000E5E08E0E911CC0E0D0E0F60161916F0197
:105260004AE050E0C801C6D05C016EE2C80167D0D8
:105270008A0D9B1DC80FD91FC814D90471F74AE0C5
:1052800050E0F7016581C801B5D08C0F9D1FDF91FB
:10529000CF911F910F91FF90EF90DF90CF90BF9033
:1052A000AF909F908F900895E3E2F9E083E694E059
:1052B0009183808312821382148215820895CF9283
:1052C000DF92EF92FF920F931F93CF93DF936C01C6
:1052D0007A018B01C0E0D0E0CE15DF0589F0D8015E
:1052E0006D918D01D601ED91FC910190F081E02D41
:1052F000C6011995892B11F47E0102C02196ECCFCD
:10530000C701DF91CF911F910F91FF90EF90DF9038
:10531000CF9008956115710579F0FB01019000208F
:10532000E9F73197AF01461B570BDC01ED91FC917A
:105330000280F381E02D199480E090E00895DC0173
:10534000ED91FC910190F081E02D19944F925F92C4
:105350006F927F92EF92FF920F931F93CF93DF9301
:10536000CDB7DEB7A1970FB6F894DEBF0FBECDBFA5
:105370007C01FA01CB0119A2223008F42AE08E0147
:105380000F5D1F4F422E512C612C712CBF01A301C8
:1053900092010E94133AF901CA01015011096A30C1
:1053A00014F4605D01C0695CD8016C93232B242B3D
:1053B000252B61F7B801C701ADDFA1960FB6F894B0
:1053C000DEBF0FBECDBFDF91CF911F910F91FF9038
:1053D000EF907F906F905F904F9008952115310569
:1053E00041F4DC01ED91FC910190F081E02D642FFE
:1053F0001994ACCF9A01462F50E060E070E0EECFF8
:105400008230A9F028F4882349F0813051F00895C2
:10541000843021F1E8F0853039F1089510926E0062
:10542000089580916F008D7F80936F000895809123
:1054300070008D7F8093700081E08093B000809138
:10544000B100887F84608093B1001092B30008950A
:10545000809171008D7F809371000895809172001A
:105460008D7F809372000895809173008D7F80936B
:1054700073000895CF93C82F80913D038C1307C00C
:10548000EEE7F2E0E4918FEF80933D0301C0EFEF90
:105490008E2FB6DF60E08C2FCF914DCB1F920F92F5
:1054A0000FB60F9211240BB60F922F933F934F9389
:1054B0005F936F937F938F939F93AF93BF93EF937C
:1054C000FF9380912C0990912D09A0912E09B09104
:1054D0002F09892B8A2B8B2B51F180912909E0917F
:1054E0002A09F0912B0990818927808380912C09CA
:1054F00090912D09A0912E09B0912F091816190627
:105500001A061B06BCF480912C0990912D09A091DC
:105510002E09B0912F090197A109B10980932C0997
:1055200090932D09A0932E09B0932F0903C0809169
:105530003D03A0DFFF91EF91BF91AF919F918F91BC
:105540007F916F915F914F913F912F910F900BBE83
:105550000F900FBE0F901F90189540E052EC61E045
:1055600070E080E090E006D061E08DE0A8DA60E0D5
:105570008DE0E1CA8130910571F01CF4892B39F07E
:1055800008958230910559F0039769F0089526E057
:105590008FEA96E00BC026E08CE497E007C026E097
:1055A00089EE97E003C026E086E898E0A9CB1F9239
:1055B0000F920FB60F9211240BB60F922F933F93B9
:1055C0004F935F936F937F938F939F93AF93BF930B
:1055D000EF93FF938DEA98EF909325018093240138
:1055E00080915D0990915E09019719F461E08DE069
:1055F000A2DA0E948036FF91EF91BF91AF919F9107
:105600008F917F916F915F914F913F912F910F906B
:105610000BBE0F900FBE0F901F9018958DEA98EF5C
:105620009093250180932401A3E7B0E08C918E7FB5
:105630008C93E0E2F1E080818C7F8083E1E2F1E015
:105640008081877E808380818460808380818C7F5D
:1056500080838C9181608C93089581E008956F928E
:105660007F928F929F92AF92BF92CF92DF92EF92F2
:10567000FF920F931F93CF93DF935C017B014A014D
:1056800001E010E00E151F0564F568018FEFC81AE0
:10569000D80AE801CC0FDD1FC80DD91D68807980BC
:1056A00061147104E1F065E674E0C3010E94A83B57
:1056B000892B19F41982188212C068E674E0C301BC
:1056C0000E94A83B892B59F4CE14DF0441F06801F5
:1056D000E2E0CE0ED11C198218821B821A8286014A
:1056E000D1CF81E0F5018083B401C7010E94D0359C
:1056F000F5019283818380E090E0DF91CF911F914B
:105700000F91FF90EF90DF90CF90BF90AF909F9060
:105710008F907F906F90089580E399E0089580E0E6
:1057200008950F931F93CF93DF938B01BA01E90183
:10573000198218829801012E000C440B550BFC01B4
:10574000818192810E94F520019621F019830883BE
:1057500080E001C081E0DF91CF911F910F9108950A
:105760000F931F93CF93DF931F921F92CDB7DEB796
:10577000FB018A01B9019E012F5F3F4FAF01FC0180
:10578000818192810E94E735019639F089819A8161
:10579000F8019183808380E001C081E00F900F9039
:1057A000DF91CF911F910F910895FC0180810895A1
:1057B0000895089581E0FB01808380E008950895B5
:1057C00010925A090895FC01818192810C94C73589
:1057D000CF93DF93CDB7DEB72A970FB6F894DEBF2D
:1057E0000FBECDBFAC01CB0160E070E049835A83AE
:1057F0006B837C83092E000CAA0BBB0B8D839E83CD
:10580000AF83B8879E01275F3F4FAE014F5F5F4F69
:1058100068E070E08091490990914A0982DF811126
:1058200008C081E029853A852830310519F480E0E7
:1058300001C081E02A960FB6F894DEBF0FBECDBF3F
:10584000DF91CF9108950F931F93CF93DF931F9212
:105850001F92CDB7DEB78B019E012F5F3F4FAC018A
:105860008091490990914A095CDF811108C081E06B
:1058700029813A812017310719F480E001C081E0C5
:105880000F900F90DF91CF911F910F910895CF93BB
:10589000DF93EC0110924D0910924C0910925909B6
:1058A00010925809AC0160E070E0CB010E94641ACC
:1058B000AE0161E070E080E090E00E94641A8091A7
:1058C000490990914A09DF91CF9179CF4F925F9228
:1058D0006F927F928F929F92AF92BF92CF92DF9200
:1058E000EF92FF920F931F93CF93DF931F921F921C
:1058F000CDB7DEB79C016C0197FF03C087E0C80EEF
:10590000D11C43E0D594C7944A95E1F7C90168E0FA
:1059100070E00E94003A7C0189010E5F1F4F809168
:10592000470990914809801791070CF0DCC08091DD
:10593000450990914609009731F00E94003B109272
:10594000480910924709C8010E946B3A9093460992
:1059500080934509892B29F0109348090093470942
:10596000C2C0A12CB12CAC14BD040CF05EC0412C03
:10597000512C320100E010E09801225B364FAE015D
:105980004F5F5F4F61E070E08091490990914A0953
:10599000E7DE811198C189819A812FEF421A520A5C
:1059A000620A720A20E942162FE5520621E06206D9
:1059B00071043CF060915809709159098DEE90E0A6
:1059C0002DC0080F191F0A30110551F549E050E0AC
:1059D00060E070E08EE499E00E94723660915809B0
:1059E000709159098823C1F08091560990E0681799
:1059F000790709F0B8CF8EEE90E0EADE8091580981
:105A000090915909019699279093590980935809C3
:105A10008FEFA81AB80AA7CF8FEE90E0D9DEA7CFF4
:105A20000A3011050CF4A8CF9ECFEF2809F44BC122
:105A3000C12CD12C760100E010E09801225B364F9A
:105A4000AE014F5F5F4F61E070E080914909909136
:105A50004A0986DE811137C189819A812FEFC21AE6
:105A6000D20AE20AF20A20E9C2162FE5D20621E0A4
:105A7000E206F1043CF060915809709159098DEEED
:105A800090E02AC0080F191F0A30110539F549E0C6
:105A900050E060E070E08EE499E00E947236609120
:105AA0005809709159098823A9F08091560990E00E
:105AB0006817790709F007C18EEE90E089DE8091C2
:105AC0005809909159090196992790935909809303
:105AD0005809F9C08FEE90E07BDEAACF0A3011059D
