:10000000DDC100000C94C01F0C94EB1F0C94162053
:100010000C9441200C946C200C9497200C94C220DA
:100020000C94ED200C9439090C940D0A0C944A0A96
:10003000F6C100000C943A28F2C10000F0C10000A3
:10004000EEC10000ECC10000EAC10000E8C1000000
:10005000E6C10000E4C10000E2C100000C941821D8
:10006000DEC100000C94D1240C940725D8C10000F7
:10007000D6C10000D4C10000D2C10000D0C1000030
:10008000CEC10000CCC10000CAC10000C8C1000040
:100090000C945D250C949325C2C10000F9C30000A7
:1000A000BEC10000BCC10000BAC10000B8C1000060
:1000B000B6C10000B4C10000B2C10000B0C1000070
:1000C000AEC10000ACC100000C94BD280C94E92521
:1000D0000C941F26A4C100000C9475260C94AB262A
:1000E0009EC100009A1F641F6C1F781F851FA61FEA
:1000F000B31F55225A225F2269227322EC227D22ED
:1001000085228D229722A122AB22BA22C422EC2280
:10011000CE22D822E22210231323022306230C230B
:100120004A2317231B232123252329232F2333236A
:1001300037234A233D2341234523C7308632F032FB
:10014000F332CA31FD318630A7306A30CD32BC324D
:10015000C932F332F332F3325530084AD73B3BCE43
:10016000016E84BCBFFDC12F3D6C74319ABD5683B6
:100170003DDA3D00C77F11BED9E4BB4C3E916BAA6E
:10018000AABE000000803F05A84CCDB2D44EB938BD
:1001900036A9020C50B9918688083CA6AAAA2ABEA4
:1001A000000000803F0000000A0B02090C0D0E0841
:1001B0000703040100000000000000000000000030
:1001C000000000000000000000000000000000002F
:1001D00000001211100000000000000000000000EC
:1001E00000000000000000000000000001021020DC
:1001F000200808102040102040800201020108045D
:1002000002010102040810204080804020100804F0
:100210000201800402018040201008040201080449
:10022000020101020408102040800102040810208D
:1002300040800505050507050808080802020202B6
:100240000A0A080804040404010101010101010172
:100250000303030303030303040707070C0C0C0C3D
:100260000C0C0C0C02020202060606060606060626
:100270000B0B0B0B0B0B0B0B0000220025002800B7
:100280002B002E003100340002010000050108019E
:100290000B0100002100240027002A002D0030005F
:1002A000330001010000040107010A0102001D3AA8
:1002B0002774694E53E8F5D2CF9C81A6BBCDD0F709
:1002C000EAB9A4839E25381F02514C6B76879ABDEC
:1002D000A0F3EEC9D46F7255481B06213C4A5770F3
:1002E0006D3E230419A2BF9885D6CBECF1130E29DD
:1002F00034677A5D40FBE6C1DC8F92B5A8DEC3E4CB
:10030000F9AAB7908D362B0C11425F78659489AEAF
:10031000B3E0FDDAC77C61465B0815322F594463B0
:100320007E2D30170AB1AC8B96C5D8FFE2263B1C58
:1003300001524F6875CED3F4E9BAA7809DEBF6D190
:10034000CC9F82A5B8031E3924776A4D50A1BC9B6F
:1003500086D5C8EFF24954736E3D20071A6C71566A
:100360004B1805223F8499BEA3F0EDCAD735280F5C
:1003700012415C7B66DDC0E7FAA9B4938EF8E5C252
:10038000DF8C91B6AB100D2A3764795E43B2AF882B
:1003900095C6DBFCE15A47607D2E3314097F624528
:1003A000580B16312C978AADB0E3FED9C400510327
:1003B0002F083025BC254826D426402711241FBEEF
:1003C000CFEFD1E2DEBFCDBF00E00CBF14E0A0E074
:1003D000B2E0E6EBF4E700E00BBF02C007900D923D
:1003E000A23EB107D9F72AE0A2EEB4E001C01D9207
:1003F000A630B207E1F711E0CEEDD1E000E006C093
:1004000021970109802FFE010E94DD38C73DD107E9
:1004100080E00807A9F70E947B340C94593AF0CD8C
:100420001F93CF93DF931F92CDB7DEB7162F61E0F6
:10043000812F79830E944B23812F7981972F0F90F1
:10044000DF91CF911F9108950895CF93C82FCB01CD
:10045000BA010E943E368C2FCF910C942E228091AF
:10046000120590E020911305821B91090895909147
:10047000130580911205981750F4E92FF0E0EC5E17
:10048000FA4F208130E09F5F9093130502C02FEF59
:100490003FEFC9010895E091130580911205E81717
:1004A00030F4F0E0EC5EFA4F808190E008958FEF39
:1004B0009FEF08950895CF92DF92EF92FF920F93EE
:1004C0001F93CF93DF937C01262F972F8A01809172
:1004D000EE04882391F0C62FD72F6E01C40ED51ECF
:1004E000CC15DD0569F06991D701ED91FC91019082
:1004F000F081E02DC7011995F3CF642F822F90D1A1
:10050000C801DF91CF911F910F91FF90EF90DF9085
:10051000CF900895CF93DF931F92CDB7DEB7698355
:100520002091EE042223D1F02091EF04203240F0FC
:1005300021E030E0FC013383228380E090E014C0AE
:100540008091F004E82FF0E0EF50FB4F9981908309
:100550008F5F8093F0048093EF0404C061E0CE01CC
:1005600001965ED181E090E00F90DF91CF910895E8
:10057000FC011382128288EE93E0A0E0B0E0848355
:100580009583A683B7838FE393E091838083089557
:1005900010921305109212051092F0041092EF04BD
:1005A00083C081E08093EE04609311051092F00403
:1005B0001092EF0408950F93062F21E04091EF046D
:1005C00061EF74E080911105D5D01092F004109283
:1005D000EF041092EE040F9108954F925F926F9284
:1005E0007F92AF92BF92CF92EF92FF920F931F93A1
:1005F000CF93DF935C01F62ED42F28013901EE2032
:1006000011F1CFDFCE2DC43008F0C3E0C150C0F0EF
:10061000D501ED91FC91B8E0CB9FC0011124A3015D
:10062000920104C056954795379527958A95D2F73C
:10063000CA01B9010190F081E02DC5011995E6CFFD
:1006400060E0C501B8DF4D2FD13208F040E22C2D1B
:1006500064E175E08F2D46D010921305809312054A
:10066000DF91CF911F910F91FF90EF90CF90BF90AE
:10067000AF907F906F905F904F900895CF92EF92E0
:100680000F931F93C22EE12C00E010E09801A5DF2C
:100690001F910F91EF90CF90089521E0EFCF61E08F
:1006A0008ACF82EE94E064CF1092A10581E080931E
:1006B0009F0510929E0561E084E10E94872361E01E
:1006C00085E10E948723E9EBF0E080818E7F8083C3
:1006D00080818D7F808388E48093B80085E4809357
:1006E000BC000895413208F043C09091A1059111DA
:1006F000FCCF91E09093A10520939F052FEF2093CD
:10070000340510927905240F209378059093A00565
:100710009091A005880F892B8093A00580919E055C
:10072000813061F410929E058091A0058093BB00FA
:100730008091BC0083FDF8CF85EC01C085EE8093ED
:10074000BC008091A1058130E1F380917905841787
:1007500010F4409179052AE735E0FB01D9018A2F91
:10076000821B841718F48D918193F9CF842F0895FB
:1007700080E008950F93413208F04AC09091A1059E
:100780009111FCCF32E03093A10500939F053FEF1C
:10079000309334051092790540937805FB016AE7A0
:1007A00075E0DB013A2F361B341718F431913D9375
:1007B000F9CF1092A0053091A005880F832B80936C
:1007C000A00580919E05813061F410929E05809174
:1007D000A0058093BB008091BC0083FDF8CF85EC21
:1007E00001C085EE8093BC00222321F08091A105F9
:1007F0008230D1F3809134058F3F79F080913405B8
:10080000803241F080913405803331F094E005C0AE
:1008100091E003C092E001C093E0892F0F91089509
:1008200040915605262F30E0240F311D213231052D
:10083000DCF42091A1052430C9F4FC0180E090E0B3
:10084000861758F4309156052191DC01A85ABA4F09
:10085000A30FB11D2C930196F3CF80915605680F1D
:100860006093560580E0089581E0089582E0089540
:1008700085ED8093BC008091BC0084FDFCCF10927C
:10088000A105089585EC8093BC001092A105089500
:100890001F920F920FB60F9211240BB60F922F9347
:1008A0003F934F935F936F937F938F939F93AF93F8
:1008B000BF93EF93FF938091B900887F803609F44E
:1008C0009DC070F5883209F45CC090F4803109F461
:1008D00055C038F4882309F4F3C0883009F44EC0B9
:1008E000F2C0883109F44DC0803209F45EC0EBC01B
:1008F000803409F469C050F4803309F456C0883359
:1009000009F0E1C080933405BDDFDDC0803509F416
:100910004FC0883509F45DC0883409F0D4C0D2C016
:10092000883909F4C3C0A8F4883709F467C038F4DB
:10093000883609F463C0803709F460C0C4C08838C1
:1009400009F4B4C0803909F45FC0803809F0BBC035
:100950005BC0803B09F482C038F4803A09F466C079
:10096000883A09F47BC0AFC0803C09F4A3C0883C3E
:1009700009F4A0C0883B09F486C0A5C08091A005F9
:1009800010C09091790580917805981770F5E091E5
:10099000790581E08E0F80937905F0E0E658FA4FF3
:1009A00080818093BB0085EC82C0809334058AC02F
:1009B000E091790581E08E0F809379058091BB00ED
:1009C000F0E0E658FA4F80839091790580917805A0
:1009D0006AC0E091790581E08E0F8093790580915E
:1009E000BB00F0E0E658FA4F808380919F058111AB
:1009F00069C081E080939E0584EA5DC083E08093B6
:100A0000A10510923505CFCF80913505803208F0D1
:100A10004DC0E091350581E08E0F809335058091C2
:100A2000BB00F0E0EA5CFA4F8083BDCF2BDF809102
:100A30003505803230F4E0913505F0E0EA5CFA4F9C
:100A400010826091350570E0E0919A05F0919B0568
:100A500086E395E019951092350535C084E08093C2
:100A6000A1051092570510925605E0919C05F09152
:100A70009D05199580915605811105C081E08093EF
:100A8000560510925805E091570581E08E0F80932E
:100A90005705F0E0E85AFA4F80818093BB009091AF
:100AA000570580915605981708F47DCF85E8809307
:100AB000BC0009C085EC8093BC001092A10503C066
:100AC00010923405D5DEFF91EF91BF91AF919F91C8
:100AD0008F917F916F915F914F913F912F910F90E7
:100AE0000BBE0F900FBE0F901F901895EF92FF92C4
:100AF0000F931F93CF93DF931F921F92CDB7DEB753
:100B0000062F142F682F82EE94E029833A8349DD63
:100B1000602F82EE94E0FEDC2981022FE22E3A81E2
:100B2000F32E8E2D801B811738F4F70161917F0120
:100B300082EE94E0EFDCF5CF82EE94E0B0DD91E060
:100B4000811190E0892F0F900F90DF91CF911F912D
:100B50000F91FF90EF900895CF93DF931F92CDB741
:100B6000DEB749839E012F5F3F4F41E0BFDF0F900B
:100B7000DF91CF9108952F923F924F925F926F92A3
:100B80007F928F929F92AF92BF92CF92DF92EF921D
:100B9000FF920F931F93CF93DF9300D01F921F926A
:100BA000CDB7DEB7F82EE62E242E69010E94622111
:100BB0004B015C01312C1D82822D90E09C838B8344
:100BC0002801612C712C321408F04DC06F2D82EE7B
:100BD00094E0E7DC6E2D82EE94E09CDC82EE94E003
:100BE0005EDD6F2D82EE94E0DCDC4B815C8143198D
:100BF00051094132510514F040E250E06F2D82EE70
:100C000094E04BDD82EE94E02ADC892B11F1011592
:100C1000110591F4F6012D81E20FF11D27FDFA95E2
:100C2000FA83E98382EE94E022DCE981FA81808311
:100C30002D812F5F2D83E6CF0E946221DC01CB0145
:100C400088199909AA09BB0984159505A605B70550
:100C500008F382EE94E023DD822D40E2421508F491
:100C600080E2380EB0CF01151105D1F00E9462214B
:100C7000DC01CB0188199909AA09BB0920E030E001
:100C800080179107A207B30758F0822D90E0ED81FD
:100C90002E2FEE0F330B2817390714F42FEF2D8367
:100CA0008D810F900F900F900F900F90DF91CF914B
:100CB0001F910F91FF90EF90DF90CF90BF90AF907A
:100CC0009F908F907F906F905F904F903F902F906C
:100CD00008950F931F9389019A0141E04CDF1F9102
:100CE0000F910895EF92FF920F931F93CF93DF938D
:100CF0001F92CDB7DEB7182F062FF42EE22E2091CB
:100D00000A0230910B02AE014F5F5F4FE2DF998123
:100D1000EE2041F041E050E001C0440FFA94EAF7C0
:100D2000492B09C021E030E0A90101C0440FFA9429
:100D3000EAF7409549234983602F812F0DDF0F90FB
:100D4000DF91CF911F910F91FF90EF900895DF9267
:100D5000EF92FF920F931F93CF93DF931F92CDB724
:100D6000DEB7182FF62EE42ED22E20910A023091F3
:100D70000B02AE014F5F5F4FACDF882319F1EE2D00
:100D8000F0E0ED19F109319621E030E002C0220FC8
:100D9000331FDA94E2F7215031090E2E01C0220FE1
:100DA0000A94EAF7802F01C0880FEA95EAF7422FEC
:100DB0004095998149232823422B49836F2D812F08
:100DC000CBDE01C080E00F90DF91CF911F910F919A
:100DD000FF90EF90DF90089528E6FC0120830895AE
:100DE0000F93062F23E042E06AE1FC018081AFDF30
:100DF0000F9108950F93062F22E044E06BE1FC0170
:100E00008081A5DF0F9108950F93062F22E044E023
:100E10006CE1FC0180819BDF0F9108950F931F937C
:100E2000CF93DF93EC0100910A0210910B029C0119
:100E30002F5F3F4F42E06BE388819DDE298130E0E8
:100E4000322F22278A81A901482BCA01DF91CF9135
:100E50001F910F9108950F931F93CF93DF93EC0190
:100E600000910A0210910B029C012F5F3F4F42E05C
:100E70006DE3888180DE298130E0322F22278A814C
:100E8000A901482BCA01DF91CF911F910F910895BD
:100E90000F931F93CF93DF93EC0100910A021091FF
:100EA0000B029C012F5F3F4F42E06FE3888163DEBE
:100EB000298130E0322F22278A81A901482BCA01DB
:100EC000DF91CF911F910F9108950F931F93CF93AF
:100ED000DF93EC0100910A0210910B029C012F5F3D
:100EE0003F4F42E063E4888146DE298130E0322FC3
:100EF00022278A81A901482BCA01DF91CF911F9136
:100F00000F9108950F931F93CF93DF93EC010091FE
:100F10000A0210910B029C012F5F3F4F42E065E4F3
:100F2000888129DE298130E0322F22278A81A90198
:100F3000482BCA01DF91CF911F910F9108950F9314
:100F40001F93CF93DF93EC0100910A0210910B02E3
:100F50009C012F5F3F4F42E067E488810CDE2981CE
:100F600030E0322F22278A81A901482BCA01DF9164
:100F7000CF911F910F910895262F46E06BE6FC015B
:100F80008081B0CE0F93062F23E042E06BE6FC0198
:100F90008081DDDE0F910895CF93DF93EC0161E056
:100FA000F1DF60E0CE0126DF60E0CE012DDF60E002
:100FB000CE01DF91CF91E0CF82EE94E0E9DA82EAD0
:100FC00095E0EADF20E045E06AE688E68BDE21E096
:100FD00041E067E388E686DE20E046E06BE688E6EF
:100FE00081CECF93DF93EC0182EA95E017DF9983FE
:100FF000888382EA95E02FDF9B838A8382EA95E0EB
:1010000047DF9D838C83DF91CF910895CF93DF934A
:101010001F92CDB7DEB7682F82EE94E06983B8DA0D
:10102000698182EA95E0DCDE82EA95E00F90DF914B
:10103000CF91B2CFCF93DF93EC0182EA95E045DF09
:101040009983888382EA95E05DDF9B838A8382EAC5
:1010500095E075DF9D838C83DF91CF91089582EABF
:1010600095E0BACE9CB195FB882780F994FF03C028
:1010700081110FC002C0882361F08091B505909165
:10108000B605A091B705B091B8050196A11DB11D97
:101090000BC08091B5059091B605A091B705B091B0
:1010A000B8050197A109B1098093B5059093B605DC
:1010B000A093B705B093B80508959CB194FB882719
:1010C00080F995FF03C0882379F002C081110CC01C
:1010D0008091B5059091B605A091B705B091B8057E
:1010E0000196A11DB11D0BC08091B5059091B6056B
:1010F000A091B705B091B8050197A109B1098093F6
:10110000B5059093B605A093B705B093B8050895BB
:1011100099B193FB882780F992FF03C081110FC01A
:1011200002C0882361F08091C3059091C405A0910D
:10113000C505B091C6050196A11DB11D0BC08091DA
:10114000C3059091C405A091C505B091C60501974E
:10115000A109B1098093C3059093C405A093C50567
:10116000B093C605089599B192FB882780F993FF43
:1011700003C0882379F002C081110CC08091C3059F
:101180009091C405A091C505B091C6050196A11D19
:10119000B11D0BC08091C3059091C405A091C505F8
:1011A000B091C6050197A109B1098093C305909339
:1011B000C405A093C505B093C60508952CB1822F30
:1011C000807890E0880F892F881F990B26FF03C035
:1011D000892B79F402C0019761F48091D105909137
:1011E000D205A091D305B091D4050196A11DB11DE2
:1011F0000BC08091D1059091D205A091D305B091FB
:10120000D4050197A109B1098093D1059093D20526
:10121000A093D305B093D40508952CB126FB88275D
:1012200080F990E027FF03C0019779F402C0892B71
:1012300061F48091D1059091D205A091D305B09130
:10124000D4050196A11DB11D0BC08091D1059091CF
:10125000D205A091D305B091D4050197A109B10998
:101260008093D1059093D205A093D305B093D40574
:1012700008951F920F920FB60F9211242F933F9350
:101280004F935F936F937F938F939F93AF93BF938E
:1012900083B185FB992790F9292F30E086FB8827B9
:1012A00080F94091F5055091F6052417350779F539
:1012B000482F50E05093F4054093F305882359F0EC
:1012C000232B61F04091ED055091EE056091EF0503
:1012D0007091F00566C02130310561F48091ED0513
:1012E0009091EE05A091EF05B091F0050196A11D3A
:1012F000B11D35C04091ED055091EE056091EF05AF
:101300007091F00541505109610971093FC0309356
:10131000F6052093F5052130310551F58823A1F01C
:101320008091ED059091EE05A091EF05B091F0054B
:101330000196A11DB11D8093ED059093EE05A0933C
:10134000EF05B093F00547C08091ED059091EE0553
:10135000A091EF05B091F0050197A109B109809323
:10136000ED059093EE05A093EF05B093F00527C02F
:101370004091ED055091EE056091EF057091F005FB
:1013800081110FC04F5F5F4F6F4F7F4F4093ED054F
:101390005093EE056093EF057093F0059923D9F013
:1013A0000EC041505109610971094093ED055093F8
:1013B000EE056093EF057093F00591110CC08091DC
:1013C000ED059091EE05A091EF05B091F005019625
:1013D000A11DB11D0BC08091ED059091EE05A0916E
:1013E000EF05B091F0050197A109B1098093ED05D2
:1013F0009093EE05A093EF05B093F005BF91AF91E8
:101400009F918F917F916F915F914F913F912F911C
:101410000F900FBE0F901F9018951F920F920FB64E
:101420000F9211248F939F93AF93BF9380910601E6
:1014300081709091030190FF03C081110FC002C021
:10144000813061F48091DF059091E005A091E10584
:10145000B091E2050196A11DB11D0BC08091DF0581
:101460009091E005A091E105B091E2050197A109F5
:10147000B1098093DF059093E005A093E105B09357
:10148000E205BF91AF919F918F910F900FBE0F908A
:101490001F9018951F920F920FB60F9211248F93E1
:1014A0009F93AF93BF938091030181709091060148
:1014B00090FF03C0813079F402C081110CC080918B
:1014C000DF059091E005A091E105B091E20501965C
:1014D000A11DB11D0BC08091DF059091E005A09189
:1014E000E105B091E2050197A109B1098093DF05FB
:1014F0009093E005A093E105B093E205BF91AF9111
:101500009F918F910F900FBE0F901F9018950F9382
:101510001F93CF93DF938C018EE0809FE001819F2A
:10152000D00D1124CF54DA4F798368835B834A83CB
:101530008881998160E00E944B238A819B8160E0D1
:101540000E944B238881998161E00E9487238A81D0
:101550009B8161E00E9487230230110509F47FC05E
:1015600044F401151105E9F00130110509F448C0F2
:10157000BEC00330110509F4A6C00430110509F0FE
:10158000B6C08091680081608093680080916B0094
:10159000806280936B0080916B00806480936B000D
:1015A000A6C08091B1059091B20502978431910552
:1015B00040F4FC01E55BFC4F8081082E000C990B88
:1015C00002C08FEF9FEF41E050E062E378E00E94BD
:1015D0004C1F8091B3059091B40502978431910519
:1015E00040F4FC01E55BFC4F8081082E000C990B58
:1015F00002C08FEF9FEF41E050E06DE578E05DC005
:101600008091BF059091C00502978431910540F407
:10161000FC01E55BFC4F8081082E000C990B02C099
:101620008FEF9FEF41E050E068E878E00E944C1FA8
:101630008091C1059091C20502978431910540F4D3
:10164000FC01E55BFC4F8081082E000C990B02C069
:101650008FEF9FEF41E050E063EB78E02EC0809188
:10166000CD059091CE0502978431910540F4FC019F
:10167000E55BFC4F8081082E000C990B02C08FEFB8
:101680009FEF41E050E06EED78E00E944C1F8091AA
:10169000CF059091D00502978431910540F4FC016B
:1016A000E55BFC4F8081082E000C990B02C08FEF88
:1016B0009FEF41E050E06DE079E0DF91CF911F9125
:1016C0000F910C944C1F8091680084608093680097
:1016D0008091680082608093680080916D008160D5
:1016E00080936D0080916C00826080936C00DF912C
:1016F000CF911F910F9108952EE0269FF001279F13
:10170000F00D1124EF54FA4F648175818681978121
:101710000895662311F061E001C060E00C944B2352
:10172000662311F061E001C060E00C9487238F9282
:101730009F92AF92BF92CF92DF92EF92FF920F9360
:101740001F93CF93DF9300D01F92CDB7DEB76B010D
:101750007C0149015A01F1D5882349F06091F609CD
:101760007091F7098091F8099091F90980C0C5013D
:10177000B401E3D58111F2CFC701B6019BD588230F
:10178000C1F1C501B40196D5882399F120E030E07C
:10179000A901C701B6010E94203818161CF00FEFEE
:1017A0001FEF02C001E010E020E030E0A901C50118
:1017B000B4010E94203818161CF06FEF7FEF02C0B2
:1017C00061E070E0072E000C880B990B0E947136C7
:1017D0009B01AC01B801110F880B990B29833A8347
:1017E0004B835C830E94713629813A814B815C81F5
:1017F00023C020E030E0A901C501B4010E94CF352B
:10180000811116C020E030E0A901C701B6010E9495
:10181000203818161CF120E030E0A901C701B601FC
:101820000E94CF3587FD1FC060E070E0CB011FC074
:10183000A5019401C701B6010F900F900F900F9072
:10184000DF91CF911F910F91FF90EF90DF90CF909C
:10185000BF90AF909F908F900C947C356BED7FE0A4
:1018600089EC9FE304C06BED7FE089EC9FEB0F9068
:101870000F900F900F90DF91CF911F910F91FF90DC
:10188000EF90DF90CF90BF90AF909F908F90089592
:101890004F925F926F927F928F929F92AF92BF9280
:1018A000CF92DF92EF92FF92CF93DF93CDB7DEB767
:1018B0002E970FB6F894DEBF0FBECDBFCE010196B6
:1018C00090DB6D817E81072E000C880B990B0E94A6
:1018D00071362091D0023091D1024091D2025091C4
:1018E000D3020E942B386B017C018B819C81BC014F
:1018F000990F880B990B0E9471362091CC02309180
:10190000CD024091CE025091CF020E942B38A70108
:1019100096010DDF2091D4023091D5024091D6027C
:101920005091D7020E9409352091C8023091C90216
:101930004091CA025091CB020E9409352091D802F1
:101940003091D9024091DA025091DB020E942B388B
:101950006093B3097093B4098093B5099093B60965
:1019600061E070E080E090E0C7DE6093BF097093B3
:10197000C0098093C1099093C209C090C802D09059
:10198000C902E090CA02F090CB0220919B093091ED
:101990009C0940919D0950919E09C701B6010E9482
:1019A0000935A70196010E9409352091E402309182
:1019B000E5024091E6025091E7020E942B386093C5
:1019C000B7097093B8098093B9099093BA098091C7
:1019D000AF099091B009A091B109B091B209892BDA
:1019E0008A2B8B2B91F12091D9093091DA09409102
:1019F000DB095091DC096091F0027091F102809155
:101A0000F2029091F3020E942B386B017C010E943C
:101A10008E3860939F097093A0098093A1099093D9
:101A2000A209C701B6010E94D3356093A309709340
:101A3000A4098093A5099093A6091092AF0910926A
:101A4000B0091092B1091092B20980919F0990914A
:101A5000A009A091A109B091A2098F839887A987B5
:101A6000BA878090000390900103A0900203B09089
:101A70000303C090A309D090A409E090A509F090B9
:101A8000A6098091FC029091FD02A091FE02B09106
:101A9000FF028B879C87AD87BE87A50194016F816C
:101AA000788589859A850E942B382B013C012B85EE
:101AB0003C854D855E85C701B6010E942B389B0190
:101AC000AC01C301B2010E9409352091F8023091A6
:101AD000F9024091FA025091FB020E942B382B012F
:101AE0003C01A5019401C701B6010E942B386B018E
:101AF0007C012B853C854D855E856F817885898548
:101B00009A850E942B389B01AC01C701B6010E9447
:101B100008352091F4023091F5024091F60250917F
:101B2000F7020E942B389B01AC01C301B2010E9455
:101B300009352091E8023091E9024091EA02509182
:101B4000EB020E942B382091EC023091ED02409183
:101B5000EE025091EF020E9409356093BB09709329
:101B6000BC098093BD099093BE09CE01019662DA4B
:101B70002091BB093091BC094091BD095091BE092B
:101B800060911003709111038091120390911303DF
:101B90000E942B380E94AC366B017C01CED38111A0
:101BA00022C0C701B60186D381111DC020E030E0FC
:101BB00040E857E4C701B6010E94C6366B017C01BC
:101BC0004B01570120E030E0A9010E94CF3587FF8B
:101BD0000EC0C701B60190580E944336EE24FF2480
:101BE000E61AF70A09C0812C912CA12CB12CB40162
:101BF000C5010E9443367B01809124039091250307
:101C0000E816F9064CF08090C4029090C502A090AE
:101C1000C602B090C70208C08090C0029090C10276
:101C2000A090C202B090C30220E030E040E853E44C
:101C3000C501B4010E94CF3587FF0EC020E030E01F
:101C4000A901C501B4010E94203887FD07C0C50164
:101C5000B4010E94433603C06FEF01C060E086E02C
:101C60005FDDC701F7FE03C0919581959109BC0125
:101C7000990F880B990B0E947136209114033091B3
:101C8000150340911603509117030E9409356B010B
:101C90007C01409018035090190360901A037090D3
:101CA0001B039201A3010E942038181684F0409073
:101CB0001C0350901D0360901E0370901F0392013F
:101CC000A301B601C7010E94CF3587FF02C06201A0
:101CD0007301209120033091210340912203509100
:101CE0002303C501B4010E942B389601A7010E946D
:101CF0000835AB01BC017F77809181099091820901
:101D00000E94250269817A81072E000C880B990BAD
:101D10000E9471362091040330910503409106031F
:101D2000509107030E942B3820910803309109033A
:101D300040910A0350910B030E942B3820910C0311
:101D400030910D0340910E0350910F030E9409350D
:101D50002091DC023091DD024091DE025091DF02E1
:101D60000E942B389B01AC0160919B0970919C09EA
:101D700080919D0990919E090E94093560939B096D
:101D800070939C0980939D0990939E0940909F09B0
:101D90005090A0096090A1097090A2098090F8026B
:101DA0009090F902A090FA02B090FB02C090A309B3
:101DB000D090A409E090A509F090A6098091F402C2
:101DC0009091F502A091F602B091F7028F83988767
:101DD000A987BA87A5019401C301B2010E942B38DB
:101DE0006B877C878D879E872F81388549855A85AB
:101DF000C701B6010E942B389B01AC016B857C8525
:101E00008D859E850E94093560939F097093A00976
:101E10008093A1099093A209A5019401C701B6017D
:101E20000E942B386B017C012F81388549855A85AA
:101E3000C301B2010E942B389B01AC01C701B6015E
:101E40000E9408356093A3097093A4098093A509A3
:101E50009093A60981E090E00E94F81E4091D90974
:101E60005091DA096091DB097091DC0980E090E023
:101E70000E94F41E8090E5099090E609A090E70981
:101E8000B090E80920E030E040E85FEBC501B40124
:101E90000E94CF35882331F1C090D909D090DA095A
:101EA000E090DB09F090DC09A7019601C501B401BF
:101EB0000E9408354B015C0120E030E040E054E333
:101EC000C701B6010E942B389B01AC01C501B401CA
:101ED0000E942038181634F08FE593E09093C409DF
:101EE0008093C3098091E909882331F08FE593E05D
:101EF0009093C4098093C3098091DD099091DE0914
:101F0000A091DF09B091E009BC01CD016F5F7F4F67
:101F10008F4F9F4F6093DD097093DE098093DF0937
:101F20009093E0090E946F362091E1093091E20917
:101F30004091E3095091E4090E942B386093D9093C
:101F40007093DA098093DB099093DC092E960FB623
:101F5000F894DEBF0FBECDBFDF91CF91FF90EF9021
:101F6000DF90CF90BF90AF909F908F907F906F90B9
:101F70005F904F9008958F929F92AF92BF92DF92A1
:101F8000EF92FF920F931F93CF93DF9384E090E043
:101F90005AD1E3ECF9E087E2DF011D928A95E9F777
:101FA00080E090E0A0E8BFEB82A393A3A4A3B5A335
:101FB0008AE097EDA3E2BCE3868F978FA0A3B1A33D
:101FC0008CE69BE4ACE0BCE784839583A683B7836F
:101FD0008BEE92E2A5E6B8E980879187A287B38766
:101FE0008FE998E7A9E2BAE584879587A687B7873E
:101FF00080EC92EEA9E0B2E0808B918BA28BB38B48
:10200000CBE1D6E0D383C283ABE0B6E0B983A8834B
:102010008FE794E011969C938E9313969C938E93E6
:10202000129715969C938E93149717969C938E9364
:10203000169719969C938E9318971B969C938E9344
:102040001A971D969C938E931C971F969C938E9324
:102050001E9787ED99E09D838C8387EC99E09B83A5
:102060008A8389ED99E09F838E8380E1A3EBB9E0B9
:10207000ED0119928A95E9F7CBE6D9E088E4DE0113
:102080001D928A95E9F727EF35E084E1D9011D9289
:102090008A95E9F7358B248B83E190E0F9019183F0
:1020A00080838AE992E09383828384E792E0958338
:1020B000848380E292E0978386838CE092E091872C
:1020C0008087812C912C54018394898E9A8EAB8EBB
:1020D000BC8E0E94DC07DD24D394DD8E1AA61FA6D9
:1020E0008BA69CA6ADA6BEA642E150E063E170E0DF
:1020F00081E090E00CDADFA61CA219A68DA29EA2B8
:10210000AFA2B8A680E090E00E940608D9A61E8E75
:102110001BA28F8E98A2A9A2BAA261E086E0F9DA8A
:10212000DBA222E32E8393E39F8384E3888785E306
:10213000898786E38A8787E38B8788E38C8789E3AF
:102140008D8781E38E8730E33F87888B898B8A8BED
:102150002B8B8C8B9D8B18821D8289829A82AB82FD
:10216000BC82E12CF12C8701A801970168E070E0A6
:1021700080E090E00E9410029F8B8E8B0E942402D0
:10218000DD828091E0029091E102A091E202B091A3
:10219000E30288AB99ABAAABBBAB8092AF0990923C
:1021A000B009A092B109B092B209DF91CF911F910D
:1021B0000F91FF90EF90DF90BF90AF909F908F9026
:1021C000089580918309811103C081E08093830980
:1021D00080919509811103C081E0809395098091D8
:1021E0008F09811103C081E080938F098091890953
:1021F000811103C081E08093890980916B0981116D
:1022000003C081E080936B09089560E070E080E88E
:102210009FE7089560E070E080E89FE7089560E040
:1022200070E080E89FEF089560E070E080E89FEF45
:10223000089560E070E080EC9FEF089560E070E04A
:1022400080EC9FEF0895F5DF6093F6097093F7092E
:102250008093F8099093F909F1DF6093EA0970938C
:10226000EB098093EC099093ED09CFDF6093F209BD
:102270007093F3098093F4099093F509CBDF609391
:10228000EE097093EF098093F0099093F109C7DF8D
:102290006093FA097093FB098093FC099093FD0900
:1022A000C3DF6093FE097093FF098093000A909347
:1022B000010A0895CF92DF92EF92FF92CF936B01C4
:1022C0007C012091F2093091F3094091F409509179
:1022D000F5090E94CF35C1E0882371F02091FA09F9
:1022E0003091FB094091FC095091FD09C701B601ED
:1022F0000E94CF358111C0E08C2FCF91FF90EF90DD
:10230000DF90CF9008950F931F938B019C010027BE
:10231000112720783F770115110520483F4749F4E0
:10232000AB01BC016F77772781E0452B462B472B0C
:1023300009F480E01F910F910895E5CFEF92FF928D
:102340000F931F93CF93DF93DC01EA01F9011496F9
:102350008D919C91159712960D911C911397080FD2
:10236000191F2881398118964D915C911997421750
:10237000530728F04D915C911197452B39F1780165
:10238000E21AF30A18964D915C911997481B590B64
:102390004E0D5F1D4617570794F1A901460F571FB1
:1023A00040175107E0F0F182E082338322836E19F7
:1023B0007F0975836483161617061CF4382F292F9E
:1023C00002C030E020E03683278313C018968D9139
:1023D0009C911997821B930B8617970784F0718342
:1023E0006083338322831582148217821682888148
:1023F0009981680F791F7983688380E001C081E04B
:10240000DF91CF911F910F91FF90EF900895CF92A0
:10241000DF92EF92FF92CF93DF936B017C0184E414
:102420008C9DE0018D9DD00D1124C95DD94F8AA9E5
:102430009BA9009721F00E94A8391BAA1AAA84E43C
:102440008C9DF0018D9DF00D1124E95DF94F86A959
:1024500097A9009711F00E94A83984E48C9DF0019F
:102460008D9DF00D1124E95DF94F138A128A168AA9
:10247000178A108E118E128E138E148E158E168E54
:10248000178E10A211A281E090E093A382A315A25F
:1024900014A216A217A210A611A613A612A615A67C
:1024A00014A616A617A610AA11AA13AA12AA15AA4C
:1024B00014AA17AA16AA11AE10AE12AE13AE14AE1D
:1024C00015AEDF01DE961D921D921D921C92139790
:1024D000EE5BFF4F11821082DF91CF91FF90EF9062
:1024E000DF90CF9008950F931F93CF93DF93EB016D
:1024F000DC018D919C91FC01A681B781E881F98175
:1025000023E0EE0FFF1F2A95E1F712962D913C91E3
:102510001397E20FF31F00811181AC85BD859D01EA
:10252000220F331FDC0112968D919C911397D901D4
:10253000A80FB91F8D919C9124813581232B19F40B
:1025400061E070E002C062E070E0689F9001699F06
:10255000300D789F300D112488859985289FB00112
:10256000299F700D389F700D1124EC81FD812E9FE5
:10257000C0012F9F900D3E9F900D1124800F911F41
:10258000FA019183808373836283DF91CF911F91DE
:102590000F9108952F923F924F925F926F927F9288
:1025A0008F929F92AF92BF92CF92DF92EF92FF9263
:1025B0000F931F93CF93DF9300D000D0CDB7DEB73A
:1025C000DC011496ED91FC9115970190F081E02DBE
:1025D000808591859A838983A281B381BC83AB83F3
:1025E000FB0181909190A190B1908F01C12CD12CD1
:1025F0007601C814D904EA04FB040CF05FC0D801CA
:1026000014964D905D906D907C90179718964D9113
:102610005D916D917C911B97F8017096FE83ED831F
:10262000F801A081B18183E0AA0FBB1F8A95E1F771
:10263000E981FA8182819381A80FB91F2D903C9086
:102640001197F80124853585220F331F8B819C81DA
:10265000280F391FF9010081118114968D919C91E9
:102660001597892B19F481E090E002C082E090E098
:10267000809F9001819F300D909F300D1124249FE9
:102680008001259F100D349F100D1124249DC00141
:10269000259D900D349D900D1124A8016D817E81A2
:1026A000820D931D0E94403A8D819E81080F191F53
:1026B0009FEFC91AD90AE90AF90A9BCF26960FB6E5
:1026C000F894DEBF0FBECDBFDF91CF911F910F9168
:1026D000FF90EF90DF90CF90BF90AF909F908F9042
:1026E0007F906F905F904F903F902F900895CF9381
:1026F000DF93DB01AA5DBC4F2C91222369F024E417
:10270000269FF001279FF00D1124E95DF94FEF019D
:1027100019922A95E9F71C9224E4269FF001279F3D
:10272000F00D1124E95DF94F14821582168217828B
:102730001186108613861286118A108A17861686CD
:10274000DF91CF9164CE2F923F924F925F926F9222
:102750007F928F929F92AF92BF92CF92DF92EF9231
:10276000FF920F931F93CF93DF93CDB7DEB72897D8
:102770000FB6F894DEBF0FBECDBF6B017C011A010E
:1027800084E48C9D90018D9D300D1124295D394F7D
:10279000F90184819581A681B781892B8A2B8B2BA6
:1027A00009F4B8C0A12CB12C412C512C320138872E
:1027B0002F83C90104969A838983D9011896BC8313
:1027C000AB83E981FA8180819181A281B38148162E
:1027D00059066A067B0694F5AB81BC81ED91FC91AC
:1027E000EA0DFB1D228133818901812C912C8214F9
:1027F0009304C4F4D801ED91FC91309769F0848181
:1028000095812D833E830E94A839F80180819181B2
:102810000E94A8393E812D81FFEF8F1A9F0A0E5F1B
:102820001F4FE5CFC9010E94A8398FEF481A580AF7
:10283000680A780A94E0A90EB11CC3CFAF81B885AD
:1028400018968D919C9119970E94A839EF81F8856F
:1028500082859385892B59F1A12CB12C812C912C47
:1028600084E48C9D80018D9D100D11240F5C194F07
:102870008214930484F4D801ED91FC91EA0DFB1DC0
:10288000848195810E94A839BFEF8B1A9B0AEEE0E4
:10289000AE0EB11CEDCF84E48C9DF0018D9DF00D4A
:1028A0001124E95DF94F828593850E94A83984E45B
:1028B0008C9D90018D9D300D11248901095D194F6A
:1028C000D80150968D919C9151970E94A839F8019A
:1028D000868597850E94A839C701B60198DDC70192
:1028E000B60128960FB6F894DEBF0FBECDBFDF91BC
:1028F000CF911F910F91FF90EF90DF90CF90BF90FD
:10290000AF909F908F907F906F905F904F903F908F
:102910002F90EDCE28960FB6F894DEBF0FBECDBF38
:10292000DF91CF911F910F91FF90EF90DF90CF90AB
:10293000BF90AF909F908F907F906F905F904F90DF
:102940003F902F90089524E4269FF001279FF00DDB
:102950001124E95DF94F828993890497029758F40D
:1029600085E090E0938B828B8FEF9FEFDC01828F6D
:10297000938FA48FB58F08952F923F924F925F92BD
:102980006F927F928F929F92AF92BF92CF92DF927F
:10299000EF92FF920F931F93CF93DF93CDB7DEB7E4
:1029A000E0970FB6F894DEBF0FBECDBF9AA389A300
:1029B0001B016A012801390184E4849D8001859D01
:1029C000100D11249801295D394F7901D9014D92DB
:1029D0005D926D927C921397AB01C301B201B3DE9D
:1029E000F801E55DF94FD6014D915D916D917D91B5
:1029F0008D01CA01408351836283738364E070E078
:102A00000E94F938F70191878087892B09F49FC1CB
:102A10001E8E1D8E198E1A8E1B8E1C8EF8A2EF8EA6
:102A200097012C5F3F4F38A72FA32C5F3F4F3AA74A
:102A300029A7EFA1F8A580819181A281B381298D79
:102A40003A8D4B8D5C8D281739074A075B070CF0D0
:102A5000E7C0A9A5BAA58D919C912D8D3E8D280F1B
:102A6000391F3A8B298BD801ED91FC91EE0FFF1F96
:102A7000A9A1BAA18D919C91E80FF91F8081918144
:102A8000F90191838083D80114962D913D914D9148
:102A90005C9117972BA33CA34DA35EA3085F1F4F28
:102AA00062E070E0C1010E94F938E989FA899383F4
:102AB0008283892B09F44BC11D8A1E8A1F8A188EB6
:102AC0002D893E894F89588D8BA19CA1ADA1BEA1B6
:102AD000281739074A075B070CF08FC0D801ED9023
:102AE000FC90EE0CFF1CE989FA89C280D380CE0CE1
:102AF000DF1C68E070E081E090E00E94F938D601C8
:102B00008D939C93E989FA8982819381FC01EE0D72
:102B1000FF1DC080D180C114D10409F418C1F8018F
:102B200084819581A681B781F60180839183A283F8
:102B3000B383085F1F4F181619061A061B0634F0D8
:102B40001C8A1B8A812C912C54010CC064E070E01B
:102B50000E94F938D60115969C938E931497892B71
:102B600079F7F5C0F60180819181A281B381881641
:102B70009906AA06BB06A4F5F601E480F5802B8928
:102B80003C89E20EF31EF801DE01119680E101900E
:102B90000D928A95E1F7005F1F4FA701BE016F5F9D
:102BA0007F4FA9A1BAA114968D919C9115979BDC9A
:102BB000F60126813781D70112968D919C9113974A
:102BC000820F931F97838683BFEF8B1A9B0AAB0AF2
:102BD000BB0A2B893C892C5F3F4F3C8B2B8BC2CF90
:102BE0002D893E894F89588D2F5F3F4F4F4F5F4F43
:102BF0002D8B3E8B4F8B588F63CF298D3A8D4B8D0C
:102C00005C8D2F5F3F4F4F4F5F4F298F3A8F4B8F18
:102C10005C8F2D8D3E8D2C5F3F4F3E8F2D8F09CFCA
:102C20006EE070E0C1010E94F938AF8DB8A11B962B
:102C30009C938E931A97812C912CA12CB12CC12C92
:102C4000D12C24E4249DC001259D900D11249C01CC
:102C50002F5C394F3A8B298B21E030E0A214B3046A
:102C60000CF04DC0D8014D915D916D917D918D011C
:102C7000E989FA89E080F180E80CF91C77FD67C0EA
:102C8000D70111963C932E934115510561057105AD
:102C9000A9F0CA012FA738AB4BA75CA76DA77EA7E9
:102CA0000E941339F701958384832FA538A94BA57A
:102CB0005CA56DA57EA5892B31F449C0D701159679
:102CC0001C921E921497F70153834283848195814D
:102CD00097838683918780871386128681E090E0B0
:102CE000452B462B472B11F480E090E0C80ED91EEF
:102CF000FFEFAF1ABF0A4EE0840E911CAFCF84E401
:102D0000849D8001859D100D1124095D194FD80106
:102D10001D961C921E921C97C60133E0880F991FC6
:102D20003A95E1F70E941339F801918B808B892B3A
:102D300071F0C601880F991F0E941339D8011F96A0
:102D40009C938E931E97892B11F080E005C0A10102
:102D5000C301B201F8DC81E0E0960FB6F894DEBF63
:102D60000FBECDBFDF91CF911F910F91FF90EF90DC
:102D7000DF90CF90BF90AF909F908F907F906F909B
:102D80005F904F903F902F9008952F923F924F92D7
:102D90005F926F927F928F929F92AF92BF92CF92EB
:102DA000DF92EF92FF920F931F93CF93DF93CDB7F4
:102DB000DEB768970FB6F894DEBF0FBECDBF9C8B11
:102DC0008B8BDB0149015A0124E4289DC001299D18
:102DD000900D11249C01295D394F79012D913C9171
:102DE0001197F701358B248BFC01E35CF94F1496A6
:102DF0004D915D916D917C911797408351836283D2
:102E00007383FC01EF5BF94F18964D915D916D91C5
:102E10007C911B974083518362837383FC01EB5B3E
:102E2000F94F1C964D915D916D917C911F97408358
:102E3000518362837383FC01EB5AF94F50965C9186
:102E4000509751964C91519752963C915297539668
:102E50002C91539750834183328323838D010C5EE1
:102E60001F4F852F942F181619060CF068C0880F75
:102E7000991F880F991F0E941339D701D3969C93ED
:102E80008E93D297892B09F4BCC0212C312C412C74
:102E9000512C32019701225D3F4F3E8B2D8B2C5FD1
:102EA0003F4F388F2F8B2E5F3F4F3A8B298BB301CB
:102EB000A2012FEF421A520A620A720AED89FE89B4
:102EC00080819181A281B381481759076A077B07E6
:102ED0004CF5AF89B88DCD90DC90C20CD31CF801B5
:102EE000DE01119680E101900D928A95E1F7005F75
:102EF0001F4FA601BE016F5F7F4FEB89FC89848164
:102F00009581F1DAA989BA898D919C911197F60181
:102F100022813381820F931F8D939C93F4E02F0EB7
:102F2000311CC5CFD701D4968D919C91D5970E9425
:102F30001339F70197AB86AB892B09F462C0F8010E
:102F400080819181A281B38124E4289DF001299D93
:102F5000F00D1124E95DF94FAC01BD014D7F21E079
:102F600030E0452B462B472B11F020E030E033A317
:102F700022A324E4289DF001299DF00D1124E95D90
:102F8000F94F0197A109B10921E030E00297A105AD
:102F9000B10510F020E030E035A324A384E4889D3F
:102FA000F001899DF00D1124CF01835B994FD80169
:102FB00014964D915D916D917C911797DC014D9325
:102FC0005D936D937C931397E95DF94F868D978D93
:102FD000A0A1B1A1B7FF10C0B095A0959095819523
:102FE0009F4FAF4FBF4F82AF93AFA4AFB5AF168E19
:102FF000178E10A211A20AC012AE13AE14AE15AEF7
:1030000005C0C501B40103DA81E001C080E0689623
:103010000FB6F894DEBF0FBECDBFDF91CF911F91E9
:103020000F91FF90EF90DF90CF90BF90AF909F9067
:103030008F907F906F905F904F903F902F9008956A
:10304000CF92DF92EF92FF92CF93DF931092AF0671
:1030500024E4269FF001279FF00D1124E95DF94F2C
:1030600015A614A620E030E0C12CD12CDF011A9661
:10307000C1E0D0E0C416D506D4F4ED91FC911197CF
:10308000E20FF31FE280F3801E141F0454F4E48067
:10309000F580F782E682F186E08613861286D18378
:1030A000C083EFEFCE1ADE0A225F3F4FE3CF24E466
:1030B000269FF001279FF00D1124E95DF94F13A61B
:1030C00012A611AE10AEDF01DE961D921D921D926A
:1030D0001C92139782E090E0938B828BDF91CF91CB
:1030E000FF90EF90DF90CF90089524E4269FF001A9
:1030F000279FF00D1124E95DF94F138A128A23CB23
:1031000024E4269FF001279FF00D1124E95DF94F7B
:103110008289938981309105C8F08530910518F036
:10312000059769F008958FEF9FEFDC01828F938FF1
:10313000A48FB58F85E090E0938B828B08958FEFFD
:103140009FEFDC01828F938FA48FB58F089524E4C5
:10315000249FF001259FF00D1124E95DF94F2EE029
:10316000AC01249FC001259F900D11240284F3859A
:10317000E02DE80FF91F81E08093AF0682859385EB
:1031800091878087408551852681378181E090E055
:103190004217530711F080E090E0918380830895F7
:1031A0002F923F924F925F926F927F928F929F9257
:1031B000AF92BF92CF92DF92EF92FF920F931F9345
:1031C000CF93DF93CDB7DEB7C255D1090FB6F894D0
:1031D000DEBF0FBECDBF21969FAF8EAF21974BA70D
:1031E0005CA76DA77EA74801590184E4889D8001F2
:1031F000899D100D1124F801E95DF94F2285338571
:1032000027963FAF2EAF279782899389029709F0BF
:1032100060C186A597A5A0A9B1A9892B8A2B8B2B64
:1032200029F484E090E0938B828B53C18489958943
:1032300021964EAD5FAD21974817590709F049C156
:1032400086A997A99AAB89AB1EAE1DAE19AE1AAE70
:103250001BAE1CAE8F01DF019E962996BFAFAEAFAD
:103260002997F2962B96FFAFEEAF2B979801285C2B
:103270003F4F2D963FAF2EAF2D97A8014A5D5F4F70
:103280002F965FAF4EAF2F97C801829661969FAF82
:103290008EAF61971A976396BFAFAEAF63972996CB
:1032A000EEADFFAD299780819181A281B38129ADD7
:1032B0003AAD4BAD5CAD281739074A075B070CF0F8
:1032C000E7C02B96EEADFFAD2B97808191812DADA0
:1032D0003EAD280F391F3EAB2DABD90112960D9094
:1032E000BC91A02D2396BFAFAEAF2397B695A795FF
:1032F000B695A7952596BFAFAEAF25972D96EEADA7
:10330000FFAD2D9780819181892B09F496C02F966E
:10331000AEADBFAD2F97CD90DD90ED90FC9029A87C
:103320003AA8F9010190F081E02DF8ABEFA718AEB3
:103330001FAA8FA998AD2596AEADBFAD25978A1768
:103340009B070CF07AC06196AEADBFAD61978D91D1
:103350009C91892B69F1EFA5F8A94080518062808A
:103360007380A7019601C301B2010E94203887FD36
:103370000BC0A7019601D1016D917D918D919C911A
:103380000E94CF3587FD8CC0A7019601C301B20111
:103390000E942038181664F4A7019601F10160819B
:1033A0007181828193810E94CF35882309F478C08E
:1033B0006396AEADBFAD63978D919C91892B69F1FA
:1033C000EFA5F8A94080518062807380A701960123
:1033D000C301B2010E94CF3587FF0BC0A701960140
:1033E000D1016D917D918D919C910E94203887FF34
:1033F00057C0A7019601C301B2010E94CF358111C8
:103400000CC0A7019601F1016081718182819381D5
:103410000E94203818160CF443C02FA938AD2F5F36
:103420003F4F38AF2FAB34E0230E311C4FA558A9C6
:103430004C5F5F4F58AB4FA77CCFEDA9FEA96081D1
:10344000718123964EAD5FAD239789A99AA90E94F9
:10345000403A25968EAD9FAD2597880F991F880F0E
:10346000991F29A93AA9280F391F3AAB29AB89AD71
:103470009AADABADBCAD0196A11DB11D89AF9AAFA0
:10348000ABAFBCAFADADBEAD1496BEAFADAF07CF69
:1034900081E090E0D801D9969C938E93D89719C07B
:1034A00084E4889DF001899DF00D1124E95DF94FB8
:1034B000868D978DA0A1B1A1892B8A2B8B2B09F02A
:1034C00064C284E090E0938B828B86AD97AD93A726
:1034D00082A784E4889DF001899DF00D1124E95DA7
:1034E000F94F828993898230910571F482AD93AD51
:1034F000A4ADB5AD181619061A061B060CF04CC281
:10350000CC24C394D12C05C0049709F045C2C12C2A
:10351000D12C8EE02196EEADFFAD21978E9F7001EC
:103520008F9FF00C112427962EAD3FAD2797E20E0A
:10353000F31ED70112964D915C91139741155105D9
:1035400009F42AC216968D919C9117979AA789A77C
:10355000FE01319684E1DF011D928A95E9F7898A9F
:103560009A8AAB8ABC8AC114D10409F457C084E496
:10357000889DF001899DF00D1124E95DF94FDF016F
:10358000DE964D905D906D907C9082AD93ADA4AD34
:10359000B5AD481659066A067B0609F03FC0F7012B
:1035A000648175810084F185E02D84819581A681F7
:1035B000B7819C018D8B9E8BAF8BB88F285F3F4F5F
:1035C0003E8B2D8BD70118968D919C911997280FC2
:1035D000391F19963C932E93189718968D919C91AC
:1035E0001997460F571F841B950B97FD06C0860F32
:1035F000971F19969C938E93189784E4889DF001E9
:10360000899DF00D1124EB59F94FB1E04B1A510887
:103610006108710840825182628273829E012B5E32
:103620003F4FAE01475D5F4F64E170E0C7010E940C
:103630009E11082F10E00115110509F091C18CE0D1
:1036400090E0A0E0B0E08D839E83AF83B8879E01B9
:10365000235E3F4FAE01475D5F4F64E070E0C701FE
:103660000E949E11082F10E00115110509F078C184
:1036700080E190E0A0E0B0E08D839E83AF83B887C7
:103680004D8D5E8DBE01655D7F4F8F8D98A10E942F
:10369000403A8BA19CA1009761F06D8D7E8DEBE28D
:1036A000F0E0EC0FFD1F6E0F7F1F49A15AA10E9491
:1036B000403A1DA21EA21FA218A621962EAD3FAD14
:1036C0002197220F331F38AF2FAB24E4289DC00170
:1036D000299D900D1124895D994FAC014C5F5F4F7E
:1036E0005AAF49AFDC011896BEAFADAF2DA13EA1D8
:1036F0004FA158A529AB3AAB4BAB5CABE9ADFAADEA
:1037000080819181A281B381281739074A075B071D
:103710000CF0CFC0ADADBEADED91FC9189A99AA9D9
:10372000880F991F880F991FE80FF91FA081B18199
:103730008C91882309F4AFC0833009F4ACC00280B7
:10374000F381E02D2FA938ADE20FF31F40815181A5
:1037500058AB4FA7452B09F49EC089859A85AB8548
:10376000BC850196A11DB11D89879A87AB87BC874F
:103770009E01235E3F4FAE01475D5F4F64E070E006
:10378000C7010E949E1190E0009709F0E8C08D816A
:103790009E81AF81B8850496A11DB11D8D839E8346
:1037A000AF83B8874D8D5E8DBE016B5D7F4F8F8D72
:1037B00098A10E94403A8BA19CA1009761F06D8D69
:1037C0007E8DA5E2B0E0AC0FBD1F6A0F7B1F49A143
:1037D0005AA10E94403A1EAA1DAA412C512C320126
:1037E000EFA5F8A980819181A281B381481659067D
:1037F0006A067B060CF04FC0EFA5F8A9248035803F
:103800002DA93EA9220E331ED10112966D917C91F5
:1038100013979E01235E3F4FAE01475D5F4FC70187
:103820000E949E1190E0009709F099C0F1018281F9
:103830009381092E000CAA0BBB0B4D815E816F8119
:103840007885840F951FA61FB71F8D839E83AF8336
:10385000B887608171814D8D5E8D8F8D98A10E949A
:10386000403A8BA19CA1009759F0D1016D917C91B8
:103870002D8D3E8D620F731F49A15AA10E94403ABF
:10388000BFEF4B1A5B0A6B0A7B0AEDA9FEA93496BF
:10389000FEABEDABA5CF49A85AA86BA87CA8FFEF5B
:1038A0004F1A5F0A6F0A7F0A4DA25EA26FA278A626
:1038B0001DCF89859A85AB85BC85892B8A2B8B2B5F
:1038C00009F44EC08AE190E0A0E0B0E089839A83D9
:1038D000AB83BC8321962EAD3FAD2197C901330F39
:1038E000AA0BBB0B8D879E87AF87B88B4D895E89EE
:1038F000BE016F5F7F4F8F89988D0E94403A8B8DFC
:103900009C8D009761F06D897E8941E050E04C0FFD
:103910005D1F640F751F498D5A8D0E94403A89A51D
:103920009AA5D70117969C938E93169711961C9281
:103930001E92CD2889F184E4889DF001899DF00DC7
:103940001124EB59F94F80819181A281B3810196B5
:10395000A11DB11D80839183A283B3831DC08C01FF
:10396000CD28D1F4012BC1F084E4889DF001899D1C
:10397000F00D1124E95DF94F81E090E095A784A74F
:1039800085E090E0938B828B07C083E090E0938B7F
:10399000828B81E090E09BCDCE5ADF4F0FB6F8943A
:1039A000DEBF0FBECDBFDF91CF911F910F91FF9072
:1039B000EF90DF90CF90BF90AF909F908F907F90CF
:1039C0006F905F904F903F902F900895CF92DF922D
:1039D000EF92FF920F931F936B017C0184E48C9D07
:1039E000F0018D9DF00D1124E95DF94F82899389D5
:1039F000009709F450C00197B9F482A593A59C01E2
:103A00002F5F3F4F33A722A7092E000CAA0BBB0B39
:103A1000028D138D248D358D80179107A207B30772
:103A2000D1F5C701B6010CDB84E48C9DF0018D9DBE
:103A3000F00D1124E95DF94F82899389039759F5B7
:103A400082A593A59C012F5F3F4F33A722A7092E84
:103A5000000CAA0BBB0B468D578D60A171A184177A
:103A60009507A607B707BCF086AD97AD93A782A7C9
:103A700084E090E0938B828B82AD93ADA4ADB5AD25
:103A8000181619061A061B0634F4EE5BFF4F81E088
:103A900090E0918380831F910F91FF90EF90DF90D2
:103AA000CF90089524E4269FF001279FF00D112464
:103AB000E95DF94F828993890497B1F482A593A5B2
:103AC000019693A782A7092E000CAA0BBB0B46896F
:103AD0005789608D718D84179507A607B70721F464
:103AE00085E090E0938B828B08952F923F924F92C6
:103AF0005F926F927F928F929F92AF92BF92CF927E
:103B0000DF92EF92FF920F931F93CF93DF93CDB786
:103B1000DEB72E970FB6F894DEBF0FBECDBF498338
:103B20005A836B837C834901442E552E24E4249DC3
:103B3000F001259DF00D1124E95DF94F22883388AD
:103B4000910124503109158614862230310508F080
:103B5000DDC0DC0111961C921E9213961C921E92DF
:103B60001297A12CB12C60E070E09F01265F3F4FBF
:103B700038872F837F013CE0E30EF11CDF01509674
:103B8000BA87A9879F01225F3F4F3C872B87681523
:103B900079050CF06FC0EF81F885A081B1819D019E
:103BA0002A0D3B1D3E872D87D9012D913C91119700
:103BB000232B09F059C018960D911C911997129654
:103BC000ED91FC911397FE83ED8316962D913C9118
:103BD0001797D7014D915C91DA01E3E0AA0FBB1F63
:103BE000EA95E1F7E985FA85C080D180FD01EC0D09
:103BF000FD1D440F551FAB85BC85CD90DC904C0D51
:103C00005D1DDA016D937C93D7014D915C91119705
:103C10004F5F5F4F4D935C9313830283AD85BE85E9
:103C20001B963C932E931A970217130748F4201BF8
:103C3000310B31832083158214821782168214C0BF
:103C4000AD85BE851496CD90DC9015974D815E8133
:103C50004C0D5D1D401B510B518340832C193D09B8
:103C600035832483D782C6826F5F7F4FBEE0AB0E61
:103C7000B11C8DCF24E4249D8001259D100D1124BD
:103C8000095D194FF80124853585DC0111963C93B7
:103C90002E934089518913965C934E9312974685D3
:103CA000578515965C934E931497232BA1F5B5E099
:103CB0002B16310481F51092AF06828D938DA48D61
:103CC000B58DAE014F5F5F4F64E070E08F3F9F4F57
:103CD000AF4FBF4F59F480E290E00E94552C6981AC
:103CE0007A818B819C81A40100DA15C08FE190E07C
:103CF0000E94552CD8019B961C921E929A9781E0A7
:103D000090E053969C938E93529705C0FC011182CC
:103D10001082138212822E960FB6F894DEBF0FBE69
:103D2000CDBFDF91CF911F910F91FF90EF90DF906A
:103D3000CF90BF90AF909F908F907F906F905F904B
:103D40004F903F902F900895EF92FF920F931F9303
:103D5000CF93DF937C018B01EA010E94D82C811163
:103D600021C08091280390912903049711F183E0E9
:103D700090E090932903809328031BC098819111B0
:103D8000F0CF28ED38EB45E050E060E070E0CB018B
:103D90000E94622FAE01B801C7010E94702FC801B6
:103DA0000E943B2F8091B0069091B106892B31F390
:103DB000D8CFDF91CF911F910F91FF90EF90089591
:103DC000CF93DF93209128033091290324303105CC
:103DD00041F0EB010E94702FCE01DF91CF910C9446
:103DE0003B2FDF91CF9108950C9484330C94793359
:103DF0000C9467330C944B2F0C940B33089560E0B4
:103E000070E080E090E00C94B32C0895AF92BF92E4
:103E1000CF92DF92EF92FF920F931F93CF93DF9396
:103E20001F921F92CDB7DEB75C0169017A018B0149
:103E300080E090E0C114D104E104F104F1F0C11478
:103E4000D10421E0E206F10410F4A60102C04FEF14
:103E50005FEF9E012F5F3F4FB801C5010E942534DF
:103E60008F3F2FEF920749F029813A81C21AD30A76
:103E7000E108F108020F131FDDCF0F900F90DF91C3
:103E8000CF911F910F91FF90EF90DF90CF90BF9057
:103E9000AF90089508950895883008F070C0A82F55
:103EA000B0E0AA0FBB1FA65DBC4F11967C936E932A
:103EB00090E0FC013197E730F105A0F58827EE5836
:103EC000FF4F8F4F0C94DD38809169008C7F482B19
:103ED00040936900E89A089580916900440F551F46
:103EE000440F551F837F482B40936900E99A08953A
:103EF0008091690074E0440F551F7A95E1F78F7C3B
:103F0000482B40936900EA9A08958091690066E021
:103F1000440F551F6A95E1F78F73482B4093690052
:103F2000EB9A089580916A008C7F482B40936A0039
:103F3000EC9A089580916A00440F551F440F551F55
:103F4000837F482B40936A00ED9A089580916A0020
:103F500024E0440F551F2A95E1F78F7C482B4093AE
:103F60006A00EE9A089580916A0096E0440F551F0A
:103F70009A95E1F78F73482B40936A00EF9A089562
:103F80001F920F920FB60F9211240BB60F922F9320
:103F90003F934F935F936F937F938F939F93AF93D1
:103FA000BF93EF93FF93E0912E03F0912F031995A8
:103FB000FF91EF91BF91AF919F918F917F916F9101
:103FC0005F914F913F912F910F900BBE0F900FBEBD
:103FD0000F901F9018951F920F920FB60F921124F9
:103FE0000BB60F922F933F934F935F936F937F93F3
:103FF0008F939F93AF93BF93EF93FF93E091300321
:10400000F09131031995FF91EF91BF91AF919F917D
:104010008F917F916F915F914F913F912F910F9071
:104020000BBE0F900FBE0F901F9018951F920F920E
:104030000FB60F9211240BB60F922F933F934F930D
:104040005F936F937F938F939F93AF93BF93EF9300
:10405000FF93E0913203F09133031995FF91EF91B3
:10406000BF91AF919F918F917F916F915F914F9190
:104070003F912F910F900BBE0F900FBE0F901F908E
:1040800018951F920F920FB60F9211240BB60F9234
:104090002F933F934F935F936F937F938F939F9350
:1040A000AF93BF93EF93FF93E0913403F091350307
:1040B0001995FF91EF91BF91AF919F918F917F9152
:1040C0006F915F914F913F912F910F900BBE0F9089
:1040D0000FBE0F901F9018951F920F920FB60F9260
:1040E00011240BB60F922F933F934F935F936F93CF
:1040F0007F938F939F93AF93BF93EF93FF93E09141
:104100002A03F0912B031995FF91EF91BF91AF9185
:104110009F918F917F916F915F914F913F912F91DF
:104120000F900BBE0F900FBE0F901F9018951F920F
:104130000F920FB60F9211240BB60F922F933F934D
:104140004F935F936F937F938F939F93AF93BF939F
:10415000EF93FF93E0912C03F0912D031995FF91BC
:10416000EF91BF91AF919F918F917F916F915F91EF
:104170004F913F912F910F900BBE0F900FBE0F905C
:104180001F9018951F920F920FB60F9211240BB625
:104190000F922F933F934F935F936F937F938F93E0
:1041A0009F93AF93BF93EF93FF93E0913603F0910A
:1041B00037031995FF91EF91BF91AF919F918F9127
:1041C0007F916F915F914F913F912F910F900BBE17
:1041D0000F900FBE0F901F9018951F920F920FB661
:1041E0000F9211240BB60F922F933F934F935F932F
:1041F0006F937F938F939F93AF93BF93EF93FF93AF
:10420000E0913803F09139031995FF91EF91BF9137
:10421000AF919F918F917F916F915F914F913F915E
:104220002F910F900BBE0F900FBE0F901F901895FF
:104230001F920F920FB60F9211242F933F938F93DB
:104240009F93AF93BF938091B3069091B406A091D2
:10425000B506B091B6063091B20623E0230F2D3794
:1042600020F40196A11DB11D05C026E8230F02967A
:10427000A11DB11D2093B2068093B3069093B4069E
:10428000A093B506B093B6068091B7069091B80694
:10429000A091B906B091BA060196A11DB11D8093F7
:1042A000B7069093B806A093B906B093BA06BF912B
:1042B000AF919F918F913F912F910F900FBE0F90D3
:1042C0001F9018952FB7F8946091B3067091B406BB
:1042D0008091B5069091B6062FBF08953FB7F89428
:1042E0008091B7069091B806A091B906B091BA0630
:1042F00026B5A89B05C02F3F19F00196A11DB11D41
:104300003FBFBA2FA92F982F8827820F911DA11D7B
:10431000B11DBC01CD0142E0660F771F881F991FB8
:104320004A95D1F708958F929F92AF92BF92CF9204
:10433000DF92EF92FF926B017C01D0DF4B015C01B9
:10434000C114D104E104F104F1F0A4DDC7DFDC0104
:10435000CB0188199909AA09BB09883E9340A10598
:10436000B10570F321E0C21AD108E108F10888EE26
:10437000880E83E0981EA11CB11CC114D104E10475
:10438000F10421F7DDCFFF90EF90DF90CF90BF9049
:10439000AF909F908F900895789484B5826084BD8B
:1043A00084B5816084BD85B5826085BD85B5816039
:1043B00085BDEEE6F0E0808181608083E1E8F0E099
:1043C0001082808182608083808181608083E0E8C8
:1043D000F0E0808181608083E1EBF0E080818460A7
:1043E0008083E0EBF0E0808181608083E1E9F0E0B0
:1043F000808182608083808181608083E0E9F0E059
:10440000808181608083E1EAF0E080818260808346
:10441000808181608083E0EAF0E080818160808338
:10442000E1E2F1E08081826080838081816080832D
:10443000E0E2F1E0808181608083EAE7F0E0808162
:1044400084608083808182608083808181608083BA
:104450008081806880831092C10008951F93CF935C
:10446000DF93182FEB0161E016D1209711F460E083
:1044700004C0CF3FD10531F461E0812FDF91CF91AE
:104480001F9145C1E12FF0E0EA55FE4FE4914E2F18
:1044900050E0FA013197E231F10508F09DC088271C
:1044A000E758FF4F8F4F0C94DD3884B5806884BD8A
:1044B000C7BD97C084B5806284BDC8BD92C08091DD
:1044C0008000806880938000D0938900C09388002A
:1044D00088C080918000806280938000D0938B00A0
:1044E000C0938A007EC080918000886080938000A5
:1044F000D0938D00C0938C0074C08091B000806810
:104500008093B000C093B3006CC08091B000806213
:104510008093B000C093B40064C080919000806824
:1045200080939000D0939900C09398005AC08091D6
:104530009000806280939000D0939B00C0939A007B
:1045400050C080919000886080939000D0939D002F
:10455000C0939C0046C08091A00080688093A0001A
:104560008091A0008F7B8093A000D093A900C0937E
:10457000A80037C08091A00080628093A000D093F3
:10458000AB00C093AA002DC08091A00088608093EA
:10459000A000D093AD00C093AC0023C08091200157
:1045A000806880932001D0932901C093280119C00D
:1045B00080912001806280932001D0932B01C093D1
:1045C0002A010FC080912001886080932001D09340
:1045D0002D01C0932C0105C0C038D1050CF04CCF83
:1045E00046CFDF91CF911F91089590E0FC01319764
:1045F000E231F10508F04EC08827E557FF4F8F4F95
:104600000C94DD38809180008F7703C0809180000A
:104610008F7D80938000089580918000877FF9CFFF
:1046200084B58F7702C084B58F7D84BD0895809155
:10463000B0008F7703C08091B0008F7D8093B00071
:104640000895809190008F7707C0809190008F7DB2
:1046500003C080919000877F80939000089580919F
:10466000A0008F7707C08091A0008F7D03C080914C
:10467000A000877F8093A0000895809120018F770C
:1046800007C0809120018F7D03C080912001877F2A
:10469000809320010895CF93DF9390E0FC01E451D3
:1046A000FE4F2491FC01EE5CFD4F8491882361F163
:1046B00090E0880F991FFC01EE56FD4FC591D491F3
:1046C000FC01E858FD4FA591B491611109C09FB755
:1046D000F8948881209582238883EC912E230BC047
:1046E000623061F49FB7F8943881822F80958323DC
:1046F0008883EC912E2B2C939FBF06C08FB7F89424
:10470000E8812E2B28838FBFDF91CF9108951F93CF
:10471000CF93DF93282F30E0F901EA55FE4F8491C3
:10472000F901E451FE4FD491F901EE5CFD4FC491C3
:10473000CC23C1F0162F811158DFEC2FF0E0EE0FE3
:10474000FF1FE858FD4FA591B4918FB7F894111150
:1047500005C09C91ED2FE095E92302C0EC91ED2B73
:10476000EC938FBFDF91CF911F910895FC01918D44
:10477000228D892F90E0805C9F4F821B91098F735F
:1047800099270895FC01918D828D981731F0828DC3
:10479000E80FF11D858D90E008958FEF9FEF08954C
:1047A000FC01918D828D981761F0828DDF01A80F39
:1047B000B11D5D968C91928D9F5F9F73928F90E05B
:1047C00008958FEF9FEF0895FC01848DDF01A80FFE
:1047D000B11DA35ABF4F2C91848D90E001968F7329
:1047E0009927848FA689B7892C93A089B1898C9148
:1047F00080648C93938D848D981306C00288F3890E
:10480000E02D80818F7D80830895CF93DF93EC012D
:10481000888D8823C1F0EA89FB89808185FD05C0E8
:10482000A889B9898C9186FD0EC00FB607FCF5CF1B
:10483000808185FFF2CFA889B9898C9185FFEDCF62
:10484000CE01C2DFE8CFDF91CF910895EF92FF92C2
:104850000F931F93CF93DF93EC0181E0888F9B8DA3
:104860008C8D981305C0E889F989808185FD23C066
:10487000F62E0B8D10E00F5F1F4F0F731127E02EE8
:104880008C8DE8120BC00FB607FCFACFE889F989C6
:10489000808185FFF5CFCE0197DFF2CF8B8DFE01B2
:1048A000E80FF11DE35AFF4FF0820B8FEA89FB8975
:1048B0008081806207C0EE89FF896083E889F98979
:1048C00080818064808381E090E0DF91CF911F91AF
:1048D0000F91FF90EF900895CF92DF92EF92FF92A9
:1048E0001F93CF93DF93EC016A017B01122FE889BC
:1048F000F98982E080834115514E61057105B1F05F
:1049000060E079E08DE390E0A70196010E94BB385A
:10491000DA01C9010197A109B109B695A795979543
:104920008795AC01411580E15807A8F0E889F9891D
:10493000108260E874E88EE190E0A70196010E9481
:10494000BB38BA01A9014150510961097109769535
:10495000679557954795EC85FD855083EE85FF85D6
:104960004083188EEC89FD891083EA89FB89808158
:1049700080618083EA89FB89808188608083EA89FD
:10498000FB89808180688083EA89FB8980818F7DB3
:104990008083DF91CF911F91FF90EF90DF90CF90B8
:1049A00008951F920F920FB60F9211240BB60F921B
:1049B0002F938F939F93EF93FF93E091CB06F0910A
:1049C000CC068081E091D106F091D20682FD12C022
:1049D00090818091D4068F5F8F732091D5068217C6
:1049E00051F0E091D406F0E0E554F94F958F8093B3
:1049F000D40601C08081FF91EF919F918F912F91FB
:104A00000F900BBE0F900FBE0F901F9018951F9226
:104A10000F920FB60F9211240BB60F922F933F9364
:104A20004F935F936F937F938F939F93AF93BF93B6
:104A3000EF93FF938BEB96E0C7DEFF91EF91BF9171
:104A4000AF919F918F917F916F915F914F913F9126
:104A50002F910F900BBE0F900FBE0F901F901895C7
:104A6000EBEBF6E01382128288EE93E0A0E0B0E078
:104A700084839583A683B78386E894E091838083BB
:104A800085EC90E09587848784EC90E09787868713
:104A900080EC90E0918B808B81EC90E0938B828B0B
:104AA00082EC90E0958B848B86EC90E0978B868BE4
:104AB000118E128E138E148E08951F920F920FB6C0
:104AC0000F9211240BB60F922F938F939F93EF9316
:104AD000FF93E0916807F09169078081E0916E078C
:104AE000F0916F0782FD12C09081809171078F5FF6
:104AF0008F7320917207821751F0E0917107F0E0F7
:104B0000E85AF84F958F8093710701C08081FF911B
:104B1000EF919F918F912F910F900BBE0F900FBE31
:104B20000F901F9018951F920F920FB60F9211249D
:104B30000BB60F922F933F934F935F936F937F9397
:104B40008F939F93AF93BF93EF93FF9388E597E085
:104B50003BDEFF91EF91BF91AF919F918F917F913C
:104B60006F915F914F913F912F910F900BBE0F90DE
:104B70000FBE0F901F901895E8E5F7E013821282A0
:104B800088EE93E0A0E0B0E084839583A683B783AA
:104B900086E894E0918380838DEC90E0958784870C
:104BA0008CEC90E09787868788EC90E0918B808BE7
:104BB00089EC90E0938B828B8AEC90E0958B848BD0
:104BC0008EEC90E0978B868B118E128E138E148E46
:104BD00008951F920F920FB60F9211240BB60F92E9
:104BE0002F938F939F93EF93FF93E0910508F0919C
:104BF00006088081E0910B08F0910C0882FD12C03C
:104C0000908180910E088F5F8F7320910F0882171B
:104C100051F0E0910E08F0E0EB50F84F958F809343
:104C20000E0801C08081FF91EF919F918F912F918C
:104C30000F900BBE0F900FBE0F901F9018951F92F4
:104C40000F920FB60F9211240BB60F922F933F9332
:104C50004F935F936F937F938F939F93AF93BF9384
:104C6000EF93FF9385EF97E0AFDDFF91EF91BF9159
:104C7000AF919F918F917F916F915F914F913F91F4
:104C80002F910F900BBE0F900FBE0F901F90189595
:104C9000E5EFF7E01382128288EE93E0A0E0B0E047
:104CA00084839583A683B78386E894E09183808389
:104CB00085ED90E09587848784ED90E097878687DF
:104CC00080ED90E0918B808B81ED90E0938B828BD7
:104CD00082ED90E0958B848B86ED90E0978B868BB0
:104CE000118E128E138E148E08951F920F920FB68E
:104CF0000F9211240BB60F922F938F939F93EF93E4
:104D0000FF93E091A208F091A3088081E091A808A8
:104D1000F091A90882FD12C090818091AB088F5F4D
:104D20008F732091AC08821751F0E091AB08F0E04E
:104D3000EE56F74F958F8093AB0801C08081FF91AD
:104D4000EF919F918F912F910F900BBE0F900FBEFF
:104D50000F901F9018951F920F920FB60F9211246B
:104D60000BB60F922F933F934F935F936F937F9365
:104D70008F939F93AF93BF93EF93FF9382E998E054
:104D800023DDFF91EF91BF91AF919F918F917F9123
:104D90006F915F914F913F912F910F900BBE0F90AC
:104DA0000FBE0F901F901895E2E9F8E0138212826F
:104DB00088EE93E0A0E0B0E084839583A683B78378
:104DC00086E894E09183808385E391E095878487EA
:104DD00084E391E09787868780E391E0918B808BD5
:104DE00081E391E0938B828B82E391E0958B848BBE
:104DF00086E391E0978B868B118E128E138E148E24
:104E000008958F929F92AF92BF92CF92DF92EF92CE
:104E1000FF920F931F93CF93DF937C018B016C0163
:104E200082E0C80ED11C4701E5E08E0E911CC0E067
:104E3000D0E0F60161916F014AE050E0C801C6D0B0
:104E40005C016EE2C80167D08A0D9B1DC80FD91F97
:104E5000C814D90471F74AE050E0F7016581C80130
:104E6000B5D08C0F9D1FDF91CF911F910F91FF90B7
:104E7000EF90DF90CF90BF90AF909F908F9008956C
:104E8000EFE2F9E086E994E0918380831282138255
:104E9000148215820895CF92DF92EF92FF920F93C2
:104EA0001F93CF93DF936C017A018B01C0E0D0E0B8
:104EB000CE15DF0589F0D8016D918D01D601ED91F8
:104EC000FC910190F081E02DC6011995892B11F418
:104ED0007E0102C02196ECCFC701DF91CF911F91D7
:104EE0000F91FF90EF90DF90CF90089561157105BD
:104EF00079F0FB0101900020E9F73197AF01461BE3
:104F0000570BDC01ED91FC910280F381E02D1994A7
:104F100080E090E00895DC01ED91FC910190F0813A
:104F2000E02D19944F925F926F927F92EF92FF92D1
:104F30000F931F93CF93DF93CDB7DEB7A1970FB633
:104F4000F894DEBF0FBECDBF7C01FA01CB0119A2E0
:104F5000223008F42AE08E010F5D1F4F422E512CA3
:104F6000612C712CBF01A30192010E94BB38F90191
:104F7000CA01015011096A3014F4605D01C0695C16
:104F8000D8016C93232B242B252B61F7B801C70183
:104F9000ADDFA1960FB6F894DEBF0FBECDBFDF9197
:104FA000CF911F910F91FF90EF907F906F905F9046
:104FB0004F9008952115310541F4DC01ED91FC91EC
:104FC0000190F081E02D642F1994ACCF9A01462F07
:104FD00050E060E070E0EECF8230A9F028F4882342
:104FE00049F0813051F00895843021F1E8F08530A6
:104FF00039F1089510926E00089580916F008D7FB1
:1050000080936F000895809170008D7F8093700071
:1050100081E08093B0008091B100887F84608093AC
:10502000B1001092B3000895809171008D7F80933C
:1050300071000895809172008D7F809372000895B1
:10504000809173008D7F809373000895CF93C82F54
:1050500080913A038C1307C0ECEAF2E0E4918FEF01
:1050600080933A0301C0EFEF8E2FB6DF60E08C2F04
:10507000CF914DCB1F920F920FB60F9211240BB60A
:105080000F922F933F934F935F936F937F938F93E1
:105090009F93AF93BF93EF93FF93809138099091C3
:1050A0003909A0913A09B0913B09892B8A2B8B2BA6
:1050B00051F180913509E0913609F09137099081DD
:1050C000892780838091380990913909A0913A0904
:1050D000B0913B09181619061A061B06BCF48091FC
:1050E000380990913909A0913A09B0913B0901978B
:1050F000A109B1098093380990933909A0933A091D
:10510000B0933B0903C080913A03A0DFFF91EF9178
:10511000BF91AF919F918F917F916F915F914F91CF
:105120003F912F910F900BBE0F900FBE0F901F90CD
:10513000189540E855E260E070E080E090E000C043
:105140008130910571F01CF4892B39F0089582307B
:10515000910559F0039769F0089526E08BEB96E0EE
:105160000BC026E088E597E007C026E085EF97E0D2
:1051700003C026E082E998E0AFCB1F920F920FB6F2
:105180000F9211240BB60F922F933F934F935F937F
:105190006F937F938F939F93AF93BF93EF93FF93FF
:1051A0008FE89DEF90932501809324010E945F3446
:1051B000FF91EF91BF91AF919F918F917F916F91EF
:1051C0005F914F913F912F910F900BBE0F900FBEAB
:1051D0000F901F9018958FE89DEF90932501809375
:1051E0002401A3E7B0E08C918E7F8C93E0E2F1E0A4
:1051F00080818C7F8083E1E2F1E08081877E808303
:1052000080818460808380818C7F80838C918160A9
:105210008C93089581E008956F927F928F929F9270
:10522000AF92BF92CF92DF92EF92FF920F931F93B4
:10523000CF93DF935C017B014A0101E010E00E1582
:105240001F0564F568018FEFC81AD80AE801CC0F72
:10525000DD1FC80DD91D6880798061147104E1F0EB
:1052600068E974E0C3010E94503A892B19F419824D
:10527000188212C06BE974E0C3010E94503A892B76
:1052800059F4CE14DF0441F06801E2E0CE0ED11CE7
:10529000198218821B821A828601D1CF81E0F50122
:1052A0008083B401C7010E94AF33F50192838183EB
:1052B00080E090E0DF91CF911F910F91FF90EF90F0
:1052C000DF90CF90BF90AF909F908F907F906F9026
:1052D00008958CE399E0089580E008950F931F935B
:1052E000CF93DF938B01BA01E901198218829801EB
:1052F000012E000C440B550BFC01818192810E9410
:10530000061F019621F01983088380E001C081E027
:10531000DF91CF911F910F9108950F931F93CF931A
:10532000DF931F921F92CDB7DEB7FB018A01B9014F
:105330009E012F5F3F4FAF01FC01818192810E944E
:10534000C633019639F089819A81F801918380836F
:1053500080E001C081E00F900F90DF91CF911F910D
:105360000F910895FC01808108950895089581E0CA
:10537000FB01808380E008950895109266090895E6
:10538000FC01818192810C94A633CF93DF93CDB73A
:10539000DEB72A970FB6F894DEBF0FBECDBFAC01C3
:1053A000CB0160E070E049835A836B837C83092ED4
:1053B000000CAA0BBB0B8D839E83AF83B8879E0125
:1053C000275F3F4FAE014F5F5F4F68E070E0809115
:1053D00055099091560982DF811108C081E0298525
:1053E0003A852830310519F480E001C081E02A9621
:1053F0000FB6F894DEBF0FBECDBFDF91CF910895F9
:105400000F931F93CF93DF931F921F92CDB7DEB7F9
:105410008B019E012F5F3F4FAC0180915509909108
:1054200056095CDF811108C081E029813A8120178B
:10543000310719F480E001C081E00F900F90DF91F7
:10544000CF911F910F910895CF93DF93EC011092AC
:105450005909109258091092650910926409AC011B
:1054600060E070E0CB010E947518AE0161E070E071
:1054700080E090E00E94751880915509909156093E
:10548000DF91CF9179CF4F925F926F927F928F92FF
:105490009F92AF92BF92CF92DF92EF92FF920F93C3
:1054A0001F93CF93DF931F921F92CDB7DEB79C015E
:1054B0006C0197FF03C087E0C80ED11C43E0D59470
:1054C000C7944A95E1F7C90168E070E00E94A838E6
:1054D0007C0189010E5F1F4F8091530990915409FF
:1054E000801791070CF0DCC080915109909152090E
:1054F000009731F00E94A839109254091092530974
:10550000C8010E9413399093520980935109892B45
:1055100029F01093540900935309C2C0A12CB12C57
:10552000AC14BD040CF05EC0412C512C320100E0E3
:1055300010E09801265A364FAE014F5F5F4F61E091
:1055400070E08091550990915609E7DE811198C16C
:1055500089819A812FEF421A520A620A720A20E95F
:1055600042162FE5520621E0620671043CF060917C
:105570006409709165098DEE90E02DC0080F191F28
:105580000A30110551F549E050E060E070E08AE52D
:1055900099E00E94513460916409709165098823F3
:1055A000C1F08091620990E06817790709F0B8CFDF
:1055B0008EEE90E0EADE8091640990916509019693
:1055C000992790936509809364098FEFA81AB80A08
:1055D000A7CF8FEE90E0D9DEA7CF0A3011050CF4EB
:1055E000A8CF9ECFEF2809F44BC1C12CD12C760156
:1055F00000E010E09801265A364FAE014F5F5F4F32
:1056000061E070E0809155099091560986DE811124
:1056100037C189819A812FEFC21AD20AE20AF20AAF
:1056200020E9C2162FE5D20621E0E206F1043CF0A3
:1056300060916409709165098DEE90E02AC0080FB1
:10564000191F0A30110539F549E050E060E070E0BB
:105650008AE599E00E94513460916409709165096E
:105660008823A9F08091620990E06817790709F012
:1056700007C18EEE90E089DE809164099091650902
:10568000019699279093650980936409F9C08FEE7C
:1056900090E07BDEAACF0A3011050CF4ABCFF0C04E
:1056A00000E010E00C151D050CF077C0412C512CCA
:1056B0003201A12CB12C480193E0880C991C9A95D9
:1056C000E1F72091510930915209C4018A0D9B1DC7
:1056D000280F391FAE014F5F5F4F61E070E080918E
:1056E00055099091560919DE8111CAC089819A81A4
:1056F0002FEF421A520A620A720A20E942162FE577
:10570000520621E0620671043CF0609164097091D8
:1057100065098DEE90E034C0A80EB91E8AE0A81687
:10572000B104A9F549E050E0B4018091510990918C
:1057300052090E945134609164097091650988236F
:10574000E9F08091510990915209FC01E80DF91D91
:10575000808590E06817790709F0A4CF8EEE90E07D
:1057600014DE8091640990916509019699279093C0
:105770006509809364090F5F1F4F94CF8FEE90E00F
:1057800004DE412C512C3201A12CB12C9ACF2AE0FD
:10579000A216B1040CF495CF85CFE114F10409F4FD
:1057A0006AC0680183E0CC0CDD1C8A95E1F7812C8E
:1057B000912C540100E010E09801265A364FAE01BA
:1057C0004F5F5F4F61E070E08091550990915609FD
:1057D000A4DD811155C089819A812FEF821A920A26
:1057E000A20AB20A20E982162FE5920621E0A2065B
:1057F000B1043CF060916409709165098DEE90E010
:1058000034C0080F191F0A30110589F549E050E02E
:1058100060E070E08AE599E00E945134609164098B
:10582000709165098823F9F08091620990E068170A
:10583000790709F58EEE90E0A8DD809151099091ED
:105840005209A7016AE579E08C0D9D1D0E94403A3E
:105850008091640990916509019699279093650953
:105860008093640908C08FEE90E08FDDA0CF0A30EE
:1058700011050CF4A1CF809151099091520902C0F9
:1058800080E090E00F900F90DF91CF911F910F91EA
:10589000FF90EF90DF90CF90BF90AF909F908F9050
:1058A0007F906F905F904F900895CF92DF92EF922C
:1058B000FF920F931F93CF93DF931F92CDB7DEB765
:1058C0006C017B018A01452B31F0AB0160E070E097
:1058D000C801E3D78983B701C60157DD81110DC027
:1058E0000115110551F0B701C8018ADD811105C00C
:1058F00061E070E0CE01019683DD0F90DF91CF91E2
:105900001F910F91FF90EF90DF90CF900895CF926D
:10591000DF92EF92FF92CF93DF93CDB7DEB7289758
:105920000FB6F894DEBF0FBECDBF6B01E12CF12C9A
:10593000C982DA82EB82FC822D833E834F835887B3
:10594000AE014F5F5F4F68E070E0AFDF28960FB6A3
:10595000F894DEBF0FBECDBFDF91CF91FF90EF90E7
:10596000DF90CF9008950F931F93CF93DF93EC01B7
:105970008B01AFDC9093560980935509009739F05D
:10598000A801BE0149DCEC01892B19F40BC0C7EA60
:10599000D4E08091550990915609E7DC10925609A0
:1059A00010925509CE01DF91CF911F910F9108956B
:1059B0008091550990915609D5CC2F923F924F92E4
:1059C0005F926F927F928F929F92AF92BF92CF928F
:1059D000DF92EF92FF920F931F93CF93DF93CDB798
:1059E000DEB769970FB6F894DEBF0FBECDBF20912A
:1059F0005909222309F426C25D8B4C8B688B798B65
:105A00008A8B9B8B9A01AB01BC01CE0101960E944F
:105A1000751D10E038E0232E312C89819A811816EB
:105A200019060CF00AC21F861E861D861C868981F7
:105A30009A81AC85BD85A817B9070CF0F3C1EB813D
:105A4000FC812E853F85E20FF31F20813181309349
:105A5000500920934F098481958190934E0980933A
:105A60004D094281538150934C0940934B09468123
:105A7000578150934A0940934909820F931F9C0113
:105A8000990F440B550B2E8B3F8B488F598FC12C90
:105A9000D12C76012E893F89488D598DC216D306A7
:105AA000E406F50608F0A2C11F8260914F097091CB
:105AB00050098B01072E000C220B330BD701C601B6
:105AC0000496A11DB11D80179107A207B30728F402
:105AD000E0914B09F0914C090AC0E4E0F0E0E61BCC
